S01C00004172746973616E44656D6F53696D706C69636974792E7333375A
S21400000000000820310300005D0300005D030000CF
S2140000105D0300005D0300005D0300005D0300005B
S2140000205D0300005D0300005D0300005D0300004B
S2140000305D0300005D03000099A5000041A80000D4
S2140000405D0300005D0300005D0300005D0300002B
S2140000505D0300005D030000292C00006D2C0000ED
S2140000605D0300005D0300005D0300005D0300000B
S2140000705D0300005D0300005D0300005D030000FB
S2140000805D0300005D0300005D0300005D030000EB
S2140000905D0300005D0300005D0300005D030000DB
S2140000A05D0300005D0300005D0300005D030000CB
S2140000B05D0300005D0300005D0300005D030000BB
S2140000C05D0300005D0300005D0300005D030000AB
S2140000D05D0300005D0300005D03000011060000E4
S2140000E05D0300005D0300005D0300005D0300008B
S2140000F05D0300005D0300005D0300005D0300007B
S2140001005D0300005D030000C1A8000025AA0000F2
S2140001105D0300005D0300005D0300005D0300005A
S2140001205D0300005D0300005D0300005D0300004A
S2140001305D0300005D0300005D0300005D0300003A
S2140001405D0300005D0300005D0300005D0300002A
S21400015010B5054C237833B9044B13B10448AFF3FC
S21400016000800123237010BDE40200200000000080
S214000170D418010008B5034B1BB103490348AFF37D
S214000180008008BD00000000E8020020D41801002E
S214000190154B002B08BF134B9D46A3F5803A002154
S2140001A08B460F461348144A121A0BF01CFD0F4BD1
S2140001B0002B00D098470E4B002B00D0984700200D
S2140001C0002104000D000D48002802D00C48AFF3B3
S2140001D000800BF0B5FC200029000BF045FA0BF070
S2140001E09BFC00BF00000800000008200000000084
S2140001F000000000E4020020A49800200000000098
S2140002000000000008B50121164803F0F1FE0121A8
S214000210154803F0EDFE012304220A21072005F00D
S2140002202BFE012304220B21072005F025FE0123C7
S21400023004220C21072005F01FFE012304220D21B5
S214000240072005F019FE012304220E21072005F0E1
S21400025013FE012304220F21072005F00DFE0020C7
S21400026008BD00BF4041050000550A0038B500F043
S214000270A3F80849084C0B68084A43F08073002529
S2140002800B602560136843F001031360BDE8384037
S21400029003F02ABEFCED00E0041000E0001000E0D1
S2140002A0014B1868704700BF041000E04FF0804212
S2140002B010B5164B1649174801245464D3F8B020DD
S2140002C02243C3F8B020D3F8E02042F00802C3F877
S2140002D0E0200A6842F480520A60D3F8E02022F058
S2140002E00802C3F8E020D3F8B02022F00102C3F8D9
S2140002F0B02005F0F1FC0521112004F073FF214623
S21400030020460022BDE8104004F0B2BE00400E4079
S214000310344005403CDB000010B500F04DF80446C4
S21400032003F0A6F9B4FBF0F0BDE810400AF098BA66
S214000330064880470649074A074B9A42BEBF51F80F
S214000340040B42F8040BF8E7FFF722FFE90300006E
S214000350E018010000000020E4020020FEE700BFD5
S2140003600048704700A24A040F4BD3F8943003F0BD
S2140003700703032B14D0042B0FD0022B0AD00B4BF1
S2140003801868094BD3F80031C3F304230133B0FBDC
S214000390F3F07047064B1868F3E7064B1868F0E76B
S2140003A04FF40040EDE700BF00400E40080000207C
S2140003B0040000200C00002008B5FFF7D5FF054B11
S2140003C0054AD3F80831C3F308230133B0FBF3F032
S2140003D0106008BD00400E4000000020014B186869
S2140003E0704700BF04000020044B054A9A60D3F80B
S2140003F0882042F47002C3F88820704700ED00E0C1
S214000400000000004FF40040704700BF4FF47A70C1
S214000410704700BF014B1868704700BF0C000020F3
S2140004202DE9F043054685B0002800F086800121BE
S214000430454803F0DDFD2B68444A934200F0828075
S21400044002F58062934276D002F58062934253D1E1
S2140004503F48404E012103F0CBFD01230A22697973
S214000460287905F009FD01230A22E979A87905F023
S21400047003FD09274FF001081DE003F03BFD04EBE8
S2140004804403354A2C791B011A4408FA09F3136011
S214000490082C95F8059028D940F2DD31304603F057
S2140004A029FD04EB44042D4B2401234408FA09F2E9
S2140004B0013F1A6027D02C7995F805904FF6FF7308
S2140004C0082C40F20C41304643FA09F2D5D804EB2A
S2140004D04403DFF884C01B01D2079C4408FA09F3E2
S2140004E0CBD5CCF8003095F805904FF6FF7343FA5D
S2140004F009F3DB07D5D4CFE75421194803F0FAFCFB
S21400050005B0BDE8F08328682E7D8DF800800323B3
S214000510D5E9032443642B898DF801805BBA9BB22E
S21400052083646946CDE901248DF80C6005F0F8FD7A
S21400053005B0BDE8F0830B488BE73E21084803F082
S214000540D9FC74E7084884E740410500009008405D
S2140005500032090060DB00000C8008460C8008446E
S2140005604CDB0000002209000012090038B50546E1
S21400057005F030FF012808D1044C01E0013C04D00E
S214000580284605F0FDFD0128F8D038BDE0930400AC
S21400059000207047FEE700BF4FF400534B6000207A
S2140005A0704700BF012070470020704770B57AB1D1
S2140005B00D461646002404E00134A64205F8010B59
S2140005C004D000F0B1F8431CF6D10CB1204670BD43
S2140005D04FF0FF34FAE700BF044A05491368002BC2
S2140005E008BF0B46184410601846704700030020EA
S2140005F0A898002070B5161E07DD0C468D1914F855
S214000600010B00F0C5F8A542F9D1304670BD00BF19
S214000610104803691B0609D570B50F4C2368072BD5
S21400062005DDC36C23F00403C36470BD70470B4D37
S2140006302E6806F0B1F90A4B98552B6801332B60EB
S2140006402368013323602B68082BEED100232B6030
S21400065070BD00BF001001401003002018030020EA
S2140006600803002070B5012188B02748274D284E82
S21400067003F0BEFC0121274803F0BAFC0422114611
S2140006800123072005F0F8FB01230222052107209D
S21400069005F0F2FB0FCD01AC0FC495E8070084E827
S2140006A0070001211C4803F0A3FC08A9002401F858
S2140006B01C4D304606F00EF903237367B26F174BD6
S2140006C022F4E06222F0070242F4806204208021D5
S2140006D042F00402B267B064C3F88411F26C0243BD
S2140006E0F26430465960052106F05EF80C4B1A6835
S2140006F021462346906802220BF00EFB094B01228E
S2140007001A7008B070BD00BF40410500C4DB000091
S2140007100010014000550A0000B2040000E100E0AD
S2140007200C01002005030020144B1B7810B5F3B114
S21400073004F0ECFF124A1368002B1BDD114B124C21
S2140007401968645C1968013119601968082904BFC2
S2140007500021196013680D49013B1360CB6C43F010
S2140007600403E4B2CB6404F0D5FF204610BDFFF7C7
S21400077079FFDDE74FF0FF34F5E700BF0503002003
S214000780100300201403002008030020001001407E
S2140007900E4B1B7810B5044653B10D4B1B780BB1AE
S2140007A00A2C08D021460B4806F0FCF8204610BD5F
S2140007B0FFF758FFF1E70D21064806F0F3F821464B
S2140007C0044806F0EFF8204610BD00BF05030020E1
S2140007D0040300200010014070B588B008ACADF8E6
S2140007E00C1004F81C3D0421012602AB0494ADF85D
S2140007F00E10022403A91546ADF814600693ADF852
S2140008001C40FFF7B3FE18B100232B6008B070BD84
S2140008109DF809309DF8082003F0FC0303EB022343
S21400082020462B6008B070BDF8B51C46E52306468A
S2140008300F461546FFF7D0FF02281DD12A6843F65B
S214000840095303FB02F35B0BA3F5BB53103B2B6072
S21400085039463046E0232246FFF7BEFF02280BD17A
S214000860226845F2CD5303FB02F35B13A3F537432F
S214000870023B23600020F8BD4FF0FF30F8BD00BFFC
S2140008801249134B134A086830B4C3F8070092E8BD
S2140008900300114A114DDA614FF480621A625D66F8
S2140008A0102220250E4C18609A660320002299809C
S2140008B09D719A629C611C665A62DA621A67DA66F1
S2140008C05A67C3E9040030BC704700BFECDB000089
S2140008D0646E0020F0DB00002C0300201C030020C8
S2140008E0E0DB00002DE9F04FDFF8A89099F8003023
S2140008F083B080468B469246002B47D04FEA480787
S21400090007EB080609EBC606356FF36E9D421FD847
S2140009105C1B544528BF54461CB9204603B0BDE8AE
S214000920F08F002607EB080309EBC3032246596E37
S214000930584629440BF04CF925443444002CECD09E
S214000940474409EBC70720463D6703B0BDE8F08F74
S214000950D6E91914641B544528BF54462246294438
S214000960584601930BF034F9B26E019B2544AA4217
S214000970AAEB040A14BF5B1B0025534528BF534649
S214000980002BDBD0A34426461C46CBE7FFF778FFB8
S214000990B4E700BF646E00202DE9F843DFF89090BE
S2140009A000EB400409EBC4041646A36A656AAB4232
S2140009B021D8276A7F1B07F1FF3E724530D9734462
S2140009C09A421CD8013000EB400009EBC009974260
S2140009D0D9F8040028441CD8D61B88463A460BF0A3
S2140009E0F7F808EB0701D9F8040032460BF0F0F8E8
S2140009F06662012004E0013B5B1B934202D20020AA
S214000A00BDE8F883013000EB400009EBC000406809
S214000A10284435440BF0DCF865620120BDE8F88315
S214000A20013000EB400009EBC00CDCF80400EFE7F7
S214000A30646E00200B781BB330B400230C4614F809
S214000A40015F0133002DFAD1934228BF1346FE2BD7
S214000A50DCB210D9FF251A0A447005708270033084
S214000A60441ECA1811F8015B04F8015F8A42F9D1E6
S214000A70184430BC704704700130002BF0D1F8E702
S214000A8003700130704700BF024B1B69C01A800814
S214000A90704700BF3007002010B504F02FFE0B4B48
S214000AA01B787F2B04460ED909490B7105310123AB
S214000AB0084801F8013B1B2200F06AF82046BDE812
S214000AC0104004F01FBE0349F2E700BF2C070020C9
S214000AD0580700205C07002070B52A4C237803B125
S214000AE070BD0125257004F009FE0A222649064637
S214000AF02846FFF751FF304604F004FE0A2000F0B7
S214000B003BF904F0FBFD6268204B7F2A054606D9B8
S214000B1062F07F01D2097F2A03F8011BF8D8A1688A
S214000B201A707F2903F1010306D961F07F02C90913
S214000B307F2903F8012BF8D8226919707F2A03F160
S214000B40010306D962F07F01D2097F2A03F8011B50
S214000B50F8D8022019181A70587018220B4800F09E
S214000B6017F8284604F0CEFD636A03B1984700F0F4
S214000B705DF9236A13B15B6803B19847BDE870401E
S214000B80FFF78ABF30070020F8DB00005C07002074
S214000B902DE9F041744D2B78012B84B006460C46A7
S214000BA017460FD063B9714BD3F88420D3F888303A
S214000BB09A4202D0AB78002B40D004B0BDE8F0815A
S214000BC0022B64D01F2F17D9FBB2A21B7F2AD1B2EB
S214000BD059D9D20961F07F0106F8012C06F8021CEB
S214000BE0023E7F2F0FD9FF0963F07F0306F8017CD2
S214000BF006F8023CB21E09E0EB69FB40DA07D2D4E5
S214000C00172FFBB2E1D806F8013C721E5849EB6874
S214000C100E68F31A7F2B06D963F07F01DB097F2B62
S214000C2004F8011BF8D804F8013B11460120A21A6B
S214000C30FFF7B2FE00285DD0EE60B4E7012422463E
S214000C40204601A9AC70FFF74DFE002816DD9DF882
S214000C500430042B75D051D9062B6FD060D3072BE8
S214000C6061D0802B75D101A922462046FFF73AFEB7
S214000C70002803DD9DF8040000F0C2FA0023AB70E4
S214000C8004B0BDE8F08106F8011C013EA9E76A69D8
S214000C9001237F2A8DF804300DF1050306D962F092
S214000CA07F01D2097F2A03F8011BF8D830491A7051
S214000CB0D1F80080E968A8EB01017F2903F1010261
S214000CC006D961F07F03C9097F2902F8013BF8D8ED
S214000CD0134601AA03F8011B012011469A1AFFF7D2
S214000CE05BFE98B96A692B7801326A61012B7FF442
S214000CF05AAF67E72B7801332B7054E7022B0CD0E2
S214000D002FD8A34225D1FFF7E7FEB7E72B78C5F823
S214000D100C80013BDBB22B70E8E700F0A1F8ADE7F2
S214000D2000F0B6F8AAE7134B1C68002CA6D0E368C0
S214000D3003B198472469002CF9D19FE7FFF7ACFE72
S214000D409CE72B6A002B99D05B68002B96D09847BF
S214000D5094E71B0692D5012201A91046FFF7C2FDB3
S214000D608CE700F063F889E730070020646E002007
S214000D70041000E03C08002038B5054604F0BEFC30
S214000D80054904462A460846FFF702FF2046BDE806
S214000D90384004F0B7BC00BF5C07002070B50C46B6
S214000DA0064604F0ABFC7F2C05460A4906D964F0DB
S214000DB07F03E4097F2C01F8013BF8D8054801F8C9
S214000DC0014B3246FFF7E4FE2846BDE8704004F0CB
S214000DD099BC00BF5C070020F8B50D4607461446D0
S214000DE004F08CFC7F2D06460F4906D965F07F027D
S214000DF0ED097F2D01F8012BF8D87F2C0D7001F13D
S214000E00010106D964F07F03E4097F2C01F8013B59
S214000E10F8D83A4601F8014B0348FFF7B9FE3046CA
S214000E20BDE8F84004F06EBC5C07002008B50A4B2D
S214000E301B6A4BB11B683BB19847BDE808400A46A1
S214000E4001460D20FFF7C8BF044B0C201968BDE80B
S214000E500840FFF7A3BF00BF30070020041000E0E3
S214000E6038B5094C04F04AFC2378054633B10749E7
S214000E700B220846FFF78CFE002323702846BDE8A9
S214000E80384004F03FBC00BF300700205C0700205D
S214000E9070B51D4C04F032FC62681C4B7F2A054678
S214000EA006D962F07F01D2097F2A03F8011BF8D821
S214000EB0A1681A707F2903F1010306D961F07F0249
S214000EC0C9097F2903F8012BF8D8226919707F2AEF
S214000ED003F1010306D962F07F01D2097F2A03F8E5
S214000EE0011BF8D8022019181A70587018220748E3
S214000EF0FFF74EFE284604F005FC636A13B1BDE812
S214000F007040184770BD00BF300700205C07002007
S214000F10F8B506462F4F304C04F0F0FB33683A69BC
S214000F209B1A9B087F2B0546204606D963F07F0256
S214000F30DB097F2B00F8012BF8D80370B3687F2BF2
S214000F4000F1010006D963F07F02DB097F2B00F871
S214000F50012BF8D800F8013B20227168FFF76AFDE4
S214000F60092201461C48FFF713FE3B693268D21A75
S214000F7092087F2A234606D962F07F01D2097F2A8B
S214000F8003F8011BF8D81A70F2687F2A03F10103F0
S214000F9006D962F07F01D2097F2A03F8011BF8D830
S214000FA01A7030697F2803F1010306D960F07F02CA
S214000FB0C0097F2803F8012BF8D800241870991C64
S214000FC005485C701522FFF7E3FD2846BDE8F840AB
S214000FD004F098BB300700205C07002010B504F032
S214000FE08DFB0D4B1B68C3F308037F2B044610D9FB
S214000FF00A4963F07F020A71DB090531084801F8E7
S214001000013B0222FFF7C4FD2046BDE8104004F075
S21400101079BB0349F2E700BF04ED00E05807002063
S2140010205C07002010B504F069FB0549044603225E
S2140010300846FFF7ADFD2046BDE8104004F062BB51
S2140010405C07002010B504F059FB0549044612223F
S2140010500846FFF79DFD2046BDE8104004F052BB51
S2140010605C07002010B504F049FB05490446112230
S2140010700846FFF78DFD2046BDE8104004F042BB51
S2140010805C07002038B5044604F038FB0C4B0D49CD
S2140010901B69E31A9B087F2B054606D963F07F027F
S2140010A0DB097F2B01F8012BF8D8064801F8013B35
S2140010B00822FFF76DFD2846BDE8384004F022BB45
S2140010C0300700205C07002038B5044604F016FB05
S2140010D00C4B0D491B69E31A9B087F2B054606D966
S2140010E063F07F02DB097F2B01F8012BF8D8064856
S2140010F001F8013B0422FFF74BFD2846BDE83840C7
S21400110004F000BB300700205C07002038B504461A
S21400111004F0F4FA0C4B0D491B69E31A9B087F2B6D
S214001120054606D963F07F02DB097F2B01F8012B09
S214001130F8D8064801F8013B0622FFF729FD2846A5
S214001140BDE8384004F0DEBA300700205C07002017
S21400115070B504460D4604F0D1FA134B06461869DE
S214001160124B201A80087F2806D960F07F02C0093B
S2140011707F2803F8012BF8D87F2D187003F10103A0
S21400118006D965F07F02ED097F2D03F8012BF8D80C
S2140011901946064801F8015B0722FFF7F9FC3046BE
S2140011A0BDE8704004F0AEBA300700205C070020AF
S2140011B070B504460E4604F0A1FA0F4B1B69E31AFD
S2140011C09B087F2B05460D4806D963F07F02DB0996
S2140011D07F2B00F8012BF8D8314600F8013B80221F
S2140011E0FFF728FC192201460448FFF7D1FC2846E1
S2140011F0BDE8704004F086BA300700205C07002087
S214001200F8B51E4B1C6884B3064678B3246964B3ED
S214001210002501E0246944B30135B542FAD104F053
S2140012206DFA7F2D074626D915480126057105302B
S2140012300670A3687F2B00F1010006D963F07F02D9
S214001240DB097F2B00F8012BF8D800F8013B802241
S2140012502168FFF7EFFB162201460A48FFF798FCC5
S2140012603846BDE8F84004F04DBAF8BD04F046FA3A
S21400127007460448DCE7EEB20248D9E73C080020FF
S214001280580700205C07002070B5064604F036FAC2
S2140012900A4C0546314620468022FFF7CBFB014626
S2140012A00122002320460A704B701A220231FFF7F3
S2140012B06FFC2846BDE8704004F024BA5C070020A6
S2140012C0F0B5124F3C681F2C87B019D8104D01900E
S2140012D004EB8406B60001343C60AC1984460493E3
S2140012E00C98E3600C9B0590616001A82272236154
S2140012F0CDE9021245F806C0FFF70AFE07B0F0BDBA
S2140013000448FFF7C1FF07B0F0BD00BF4408002047
S2140013104814002004DC0000024B834201D0FFF793
S214001320F5BE7047B095002010B504210446FFF7BF
S2140013300FFF2046BDE81040FFF7E8BE034B834290
S21400134001D0FFF7C1BEFFF78DBE00BFB0950020ED
S214001350034B834202D00421FFF7FABE704700BF5A
S214001360B095002010B4054C844203D05DF8044BC1
S214001370FFF7A6BF5DF8044B704700BFB09500208E
S21400138070B50C460646114620461546FFF710FF78
S2140013902046FFF779FB01463046FFF7FFFC0A4A76
S2140013A01368FF2B0BD803EB43008000074901337B
S2140013B00C50014400201360C1E9015070BD044880
S2140013C0BDE87040FFF760BF4008002048080020D6
S2140013D054DC000000BA704740BA80B2704700BFC5
S2140013E083891B0706D18169138B090703D423F071
S2140013F004031383704743F004031383704700BF4E
S21400140083891B0707D183692BB9138B590703D52B
S21400141043F003031383704743F0010313837047BD
S21400142082B2B2F5007F10D20012A821084B01FB51
S21400143000F100EB4000595CC0EBC000D2B203EBF9
S214001440C000914218BF002070470020704700BFC0
S2140014500C6F002030B484B2B4F5007F0ED2A823FF
S214001460001203FB00F0074B1D5CE4B2A5420344E8
S21400147004D1C3E92412002030BC70476FF0150079
S214001480FAE700BF0C6F0020F0B484B2B4F5007F1A
S21400149027D20012A82606FB00F3134DEF5CE4B239
S2140014A0A7422B441DD171B15C8908684968C3F80E
S2140014B09E1044F00101C3F89A005981A3F8A220B7
S2140014C00020F0BC70479A2210FB0622501951519A
S2140014D0416001815A8922F0010208465A81F0BC17
S2140014E070476FF01500ECE70C6F00200B0C1B0428
S2140014F010B5044633B911F47F4F0AD101700123A9
S214001500184610BD0846FFF765FF042320601846FE
S21400151010BD88B2FFF760FF02232080184610BD7A
S214001520F8B583B2B3F5007F13D20012A82505FBE9
S21400153000F2094EB75CDBB29F4206EB020408D10C
S21400154020460C30FFF7D2FF002384F88C001846A4
S214001550F8BD6FF01503FAE70C6F0020802A1DD83F
S214001560F8B584B2B4F5007F15D20012A82707FBA1
S21400157000F50C4E16F805C0E4B2A44535440AD171
S21400158085F88C200AB91046F8BD28460C300AF0BB
S2140015901FFB0020F8BD6FF01500F8BD6FF0790056
S2140015A0704700BF0C6F002038B5054608460C464D
S2140015B00AF042FD802806D8C2B221462846BDE879
S2140015C03840FFF7CBBF6FF0790038BDF0B582B278
S2140015D0B2F5007F87B072D20512A82404FB05F48A
S2140015E0384E335DD2B29342344468D1D4F890007A
S2140015F010B1606801F080F884F89800A82404FB15
S21400160005646389DA072BD413F0020FB4F8A4300C
S214001610ADF80A300CBF082309238DF809008DF8B1
S21400162008300422A82303FB05F7F419234694F890
S2140016308C1060680091002101910C3302A901F022
S2140016409BF8054648B994F8983053BB63895B0706
S21400165003D4F35D60600133F355284607B0F0BD50
S2140016602346172253F89A1F8DF809005B68B4F8D2
S214001670A200CDF80E308DF80820CDF80A10FFF73E
S214001680ABFE6389B4F8A420ADF8152013F0020F62
S2140016900CBF02230023ADF812008DF814300F2281
S2140016A0C0E701F09BFA638913F0010F0CBF022319
S2140016B0B42313FA80F02081284607B0F0BD6FF0FF
S2140016C01505CAE70C6F0020F8B50A60F024002262
S2140016D04B600C724A810D46069F00F027F906B251
S2140016E0002E1CDB044627B13A8939463046FFF700
S2140016F0CBFEA4B2B4F5007F13D2A823321203FBAC
S21400170002F2094B995CE4B2A142134409D1074A9C
S2140017103046C3E92425BDE8F840FFF757BF3046FA
S214001720F8BD6FF01500F8BD0C6F00207D1A0000A4
S21400173038B310B5038F82B0044629B913F02003DE
S2140017400AD0002002B010BD43F01003038713F048
S21400175020034FF00901F4D10B4A009301EB41013D
S21400176002EB8102234609492046FFF7ADFF002819
S214001770E8D1238F23F01C0343F02203238702B013
S21400178010BD6FF015007047A8DC00005C700020EC
S2140017902DE9F04188B001F021FA284B1A78C5B23D
S2140017A0AA4241D0002168462022254C1D700E46D4
S2140017B00AF019FA48F20F0304F5A877ADF80C30D2
S2140017C0B0460225636833B301F008FA2389C31ACA
S2140017D01A046846C5F102051DD42378D4F8901083
S2140017E0626843EA05250136ADF8085061B1D4F8C1
S2140017F094300092B4F8A4200193ADF80A208847EC
S214001800012808D062682378C4F804800133237066
S214001810138FDB060DD4A834BC424FF00105D1D19E
S214001820304608B0BDE8F0810026304608B0BDE876
S214001830F08110460121FFF77BFFECE7C916002078
S2140018400C6F002030B108B5FFF7A2FF034B93F9E9
S214001850080008BD6FF01500704700BF5C700020E0
S21400186060B1018FCA0705D441F0010211F00201F0
S214001870028701D000207047FFF75ABF6FF01500AF
S214001880704700BFF8B5002848D0002946D0254D3F
S2140018900F4629780446C1B1238FDB071FD5224B9C
S2140018A05E6806B3D3F8AC2082B32B78022B32D016
S2140018B002232B70FFF76CFF39462046FFF7E2FF46
S2140018C0012306462B703046F8BD01234FF4A8725C
S2140018D015482B700AF087F9238FDB07DFD42046E4
S2140018E0FFF7BEFFDBE71D462846A02210F8083BA0
S2140018F000211E430AF077F96C6001F06FF90230A0
S21400190028813B88A5F8A4303046F8BD03F1A80529
S2140019104FF48076E8E76FF01B06D4E76FF0150605
S214001920D1E700BFC81600200C6F00204B892DE9B8
S214001930F04703EB4303D1F800809C000E4608EB0B
S2140019400407002A41D0B2F9085071687E89FB78F6
S214001950A8B2B0F5007F01EB060C13D245F30F29B1
S214001960A82202FB09F2DFF8B0E01EF802A0C0B21F
S2140019708245724430D0043B032B3FD8DFE803F0A7
S2140019801F1A0915043B032B0CD8DFE803F01813C5
S214001990020E3B7A022B3CD0042B38D0895D2846B9
S2140019A0FFF7BEFD2846BDE8F087397A2846FFF7E0
S2140019B0B7FDF7E761462846FFF7F6FDF2E73A7A05
S2140019C061462846FFF7CAFDECE74146FFF75AFF97
S2140019D000280546B9DAE6E738F80440A2F8A4403D
S2140019E0043B032B0AD801A252F823F0BF190000CB
S2140019F0B519000093190000AB1900008245D1D13B
S214001A00A82303FB09EE00238EF88C30CAE7895919
S214001A10C5E7895BC3E700BF0C6F002010B4148FC6
S214001A2024F020039BB2138771B1B0F90C10002983
S214001A300ADB43F004032007138708D404F01004DD
S214001A408CB95DF8044B704743F008031387118B7D
S214001A50C90704D5908A4FF6FE71884209D003F074
S214001A601004002CEDD0104601215DF8044BFFF762
S214001A705FBE43F010031387F5E700BF82892DE9A8
S214001A80F041446813040546216848D463894789B1
S214001A9003EB43039B00CE18CB5ABB4209D07368B6
S214001AA0FB22227213B16268002198470020BDE82D
S214001AB0F08112F00F01076812D172896068F3781E
S214001AC000EB020863B1022B5ED9032B08D1337AF0
S214001AD0022B6FD0042B6AD0012B01D1AB69835443
S214001AE073681BB131466268284698476389216847
S214001AF001339BB203EB4302920063818B5A01EBE6
S214001B000208EBB9D8F8043000262672002BCDD098
S214001B1028466268414698473046BDE8F0810B8803
S214001B208C2222721BB131F80C3F002BFBD14B6884
S214001B30002BBBD02846626898470020BDE8F0819D
S214001B4038462A462146FFF7F1FE07B206463846D3
S214001B50FFF73CFD98F80330082B01D00120A6E7DC
S214001B60B6B2B6F5007FCDD2A8233F1203FB07F727
S214001B70124BDA5DF6B2B24203EB0701C2D1013274
S214001B80DA5500234B60BDE7327A40460AF02BF860
S214001B90337A2A69F1789A4228BF1A4601291CBF6F
S214001BA09B1A9844404669690AF012F898E7AB69B0
S214001BB0835095E7AB69835292E700BF0C6F002015
S214001BC0002900F0AA802DE9F0430B78882B8DB011
S214001BD01CD0972B15D1524CB1F80CE063688E7B65
S214001BE09842A2F10F0501F10F074FF0000C4A785A
S214001BF01AD0D4F8AC30984227D000200DB0BDE8FB
S214001C00F0836FF015000DB0BDE8F083444CB1F8DA
S214001C1002E063680E799842A2F1050501F1050716
S214001C204FF0010C4A78E4D194F898309342E0D112
S214001C306389DB4303F001036345DAD1B4F8A430CB
S214001C407345D6D14FF0000811E094F84031934226
S214001C50D3D1B4F8B230DB4303F001036345CCD1F3
S214001C60B4F84C317345C8D12E4C4FF00108D4F867
S214001C70902002B30B468146BCF1000F2DD0002306
S214001C800B932378D4F89410B4F8A420CDF81090D1
S214001C9043EA0823ADF81C60CDE90857ADF81830C4
S214001CA00591ADF81A2075B90A95D4F8903004A8B5
S214001CB0984701281ED023780020013323706060E7
S214001CC00DB0BDE8F083022D22D0042D1BD0012DCF
S214001CD016D04FF0FF330A93E7E751F8020F496832
S214001CE001AA03C25889FFF777FB01ABADF80C00D9
S214001CF00B93C6E700F072FF05302081002082E7D4
S214001D003B780A93D1E73868FFF764FB0A90CCE784
S214001D103888FFF761FB0A90C7E76FF01500704739
S214001D200C6F0020B46F002071B108B54B78102BF3
S214001D3005D003F0FB03022B01D0002008BD0121D3
S214001D40FFF7F6FC002008BD6FF01500704700BFD7
S214001D50F8B548B341B300F12006044608460D46E0
S214001D600AF06AF90746304601F02AF8BB1C83429F
S214001D7017DA02220E49304600F0A4FF3A462946FA
S214001D80304600F09FFF01220A49304600F09AFFD5
S214001D90082384F83B3000F001FF0023E063184678
S214001DA0F8BD6FF01B03FAE76FF01503F7E700BF07
S214001DB038DD0000B4150100002800F08C800029F2
S214001DC000F089802DE9F84F90F83B40073C012C45
S214001DD076D881469A4617460E46002B46D0D3F84C
S214001DE0008008F10104A24201EB08056BDD09F151
S214001DF0200B06E00D2826D0A74205F8010BB046BA
S214001E0043DD584600F0B4FF0028264604F10104DE
S214001E10F0DA00F0C3FED9F83C30C01AB0F5FA6F1D
S214001E203DD900232B70BAF1000F46D099F83B300D
S214001E30CAF80080072B6FF0730010D1032389F8CF
S214001E403B30BDE8F88F00232B70BAF1000F01D0AD
S214001E50CAF80080002099F83B30072BEED0082BFC
S214001E60EFD1062389F83B30BDE8F88F08460AF024
S214001E70E3F8441CA742804606EB0005B7DC06F8EC
S214001E8000A06FF01B00BDE8F88F00232B70BAF19E
S214001E90000FF6D0CAF800806FF01B00F3E70023AF
S214001EA02B70BAF1000F05D0CAF800806FF00A0058
S214001EB0BDE8F88F6FF00A00C3E76FF07300CAE75B
S214001EC04FF0FF30BDE7002301F808306FF01B002D
S214001ED0CAF80080B5E76FF01500704778B10229A0
S214001EE00DD94B1C0B400AD181600371437183717D
S214001EF0C371037043708370C370184670476FF0E9
S214001F00150070474368C218013311738268016870
S214001F10134099421ABF436001200020704700BF5B
S214001F20036841689942024606D091681844013316
S214001F300B40007B136070474FF0FF30704700BFC8
S214001F404368026880689B1A1840704703684268B6
S214001F508068013B9B1A1840704700BF43680360C7
S214001F60704700BF2DE9F0410746064657F80C4B70
S214001F704068B568013C241A2C40944205F10105DE
S214001F80A5EB000528BF1446A542384488460AD368
S214001F9000254146224609F01BFE7368234460195B
S214001FA07360BDE8F0812A4609F012FE0023A844BB
S214001FB0641B384633717371B371F371E9E700BF80
S214001FC0F8B50B46446801688568641A2C4094424C
S214001FD005F10105A5EB010528BF144600F10C0725
S214001FE0A5420646394409D300251846224609F07C
S214001FF0EFFD3368234460193360F8BD2A4618465F
S21400200009F0E6FD00220346641B2B443946327075
S2140020107270B270F270E8E7F0B583B002AC0023DD
S21400202044F8043D0D46074616460B7023463246D6
S21400203029463846FFF7C0FE10F10B0FF6D00028F1
S214002040A8BF019803B0F0BD10B50C46FFF7E4FF3B
S214002050002807DB2046044909F0DCFF002818BFEB
S2140020606FF0040010BD00BFE4DD00002DE9F0476E
S21400207000F1200A05460E465046012100F010FFEA
S21400208000F08CFD41F28737044600F087FD001B08
S214002090B842FAD9504600F0BDFE504600F0A8FE01
S2140020A04FF41651504600F0C7FE00F077FDDFF8FB
S2140020B07480082781460AE009F0D8FF48BB00F084
S2140020C06DFD40F6B733A0EB090098421AD800F031
S2140020D065FD3146E86385F83B706C222846FFF7BD
S2140020E09BFF0446012CA0F1020041463044E3DC8D
S2140020F000F054FD40F6B733A0EB090098426FF0AD
S2140021007304E4D95046002100F0CAFE2046BDE81C
S214002110F08700245046002100F0C2FE2046BDE8AD
S214002120F08700BFE4DD000038B50C4605460D49D3
S214002130FFF70EFE214628466C22FFF785FF041E99
S21400214009DB00F02BFD044600F028FD001BB0F56F
S2140021507A7FF9D3002405F1200000F05BFE2046CC
S21400216038BD00BFE0DD0000002800F05F8170B5DC
S21400217000F12006A2B00446304600F09BFD05465E
S214002180002840F04E8107A92046FFF76FFF002881
S214002190C0F23B81A7492046FFF7DAFD6C2207A96B
S2140021A02046FFF739FF0028C0F22C8107A9A24875
S2140021B009F022FD01AA294640F6B83007F0F8FDDE
S2140021C09E492046FFF7C4FD6C2207A92046FFF76C
S2140021D023FF0028C0F21681994907A809F01AFFC4
S2140021E0002800F00781974907A809F013FF78B187
S2140021F0954907A809F00EFF002800F0FF809349D4
S21400220007A809F007FF30B9914809F07DFD02E004
S214002210904809F079FD01AA002140F6B83007F091
S214002220C7FD8D492046FFF793FD6C2207A920467F
S214002230FFF7F2FE07A90546884809F0DDFC002DE9
S214002240C0F2E0807F4907A809F0E4FE38B384496D
S2140022502046FFF77DFD6C2207A92046FFF7DCFE2F
S21400226007A905467F4809F0C7FC002DC0F2CA80C2
S21400227001AA002140F6B83007F09AFD7A492046B8
S214002280FFF766FD6C2207A92046FFF7DDFE07A9CB
S2140022900546764809F0B0FC002DC0F2C58001AABC
S2140022A000214FF4FA6007F083FD71492046FFF7DE
S2140022B04FFD6C2207A92046FFF7AEFE07A905468C
S2140022C06C4809F099FC002DC0F29C8001AA002100
S2140022D040F6B83007F06CFD67492046FFF738FD3A
S2140022E06C2207A92046FFF797FE07A90546634814
S2140022F009F082FC002DC0F28580614907A809F02C
S21400230089FE28B301AA002140F6B83007F050FD38
S2140023105C492046FFF71CFD6C2207A92046FFF704
S2140023207BFE07A90546584809F066FC002D69DBC8
S2140023304D492046FFF70CFD6C2207A92046FFF703
S21400234083FE07A90546494809F056FC002D6BDBBD
S21400235001AA002140F6B83007F02AFD4B49204676
S214002360FFF7F6FC6C2207A92046FFF755FE07A9E3
S2140023700546474809F040FC002D43DB334907A8D3
S21400238009F048FE08B922B070BD01AA002140F647
S214002390B83007F00DFD3F492046FFF7D9FC6C2208
S2140023A007A92046FFF738FE07A905463A4809F070
S2140023B023FC002D26DB01AA002140F6B83007F0EA
S2140023C0F7FC29492046FFF7C3FC6C2207A92046E4
S2140023D0FFF73AFE07A90546244809F00DFC002D34
S2140023E022DB01AA002140F6B83007F0E1FC00200D
S2140023F022B070BD294809F087FC0CE7284809F090
S21400240083FC08E7274809F07FFC07A92046FFF76A
S2140024108BFE30464FF4E13100F00EFD4FF0FF30FA
S214002420B1E76FF01500AEE71F48ECE76FF0150058
S214002430704700BFE8DD000008DE000030DE000068
S21400244034DE000060DE000084DE0000A0DE000057
S214002450A4DE000064DE0000C0DE0000C4DE000073
S214002460E8DE0000ECDE000014DF000018DF0000ED
S2140024705CDF000060DF000080DF000084DF00001B
S214002480BCDF0000B8DF0000C4DF0000F8DF00009B
S214002490FCDF000028E000002CE0000038DE000032
S2140024A088DE0000ECDD00003CDF0000F0B5A3B0E5
S2140024B0002858D000F120060446304600F0FAFB0B
S2140024C0002850D107A92046276AFFF7CFFD051E32
S2140024D00ADA07A92046FFF727FE3946304600F0FD
S2140024E0ABFC284623B0F0BD22492046FFF730FC5F
S2140024F06C2207A92046FFF78FFD051EE9DB07A91A
S2140025001D4809F079FB1D4907A809F083FD68B945
S2140025102046FFF729FE01AA0546002140F6B830FE
S21400252007F046FC002D21DB0025D2E714492046A3
S214002530FFF70EFC6C2207A92046FFF785FD051E57
S214002540C7DB104809F0E0FB0F492046FFF700FC08
S2140025506C2207A92046FFF777FD051ED8DA0B4840
S21400256009F0D2FBB5E76FF01505BAE7084809F0A1
S214002570CBFBAEE73CDD000040DD00005CDD00008C
S2140025806CDD00007CDD000014DF00003CDF000096
S2140025909CDD00002DE9F0479CB09DF89080002857
S2140025A000F0818000F1200A0446504699461646FF
S2140025B00D4600F07FFB002875D101A92046FFF7E5
S2140025C055FD071E57DBB8F1000F60D1324645496E
S2140025D001A809F083FC01A92046FFF7B9FB6C228D
S2140025E001A92046FFF730FD071E44DB4A463E4958
S2140025F001A809F073FC01A92046FFF7A9FB6C228D
S21400260001A92046FFF720FD071E34DBB5F5164F5F
S2140026105DD00BDDB5F5613F57D047DDB5F5E12F51
S21400262057D0B5F5612F58D10A220AE0B5F5965F66
S21400263044D045DDB5F5165F4DD0B5F5964F4CD177
S21400264004222A4901A809F049FC01A92046FFF7FF
S2140026507FFB6C2201A92046FFF7F6FC071E0ADB6B
S21400266023492046FFF774FB6C2201A92046FFF79A
S214002670EBFC00EAE07701A92046FFF755FD294666
S214002680504600F0D9FB38461CB0BDE8F087194923
S2140026902046FFF75DFB6C2201A92046FFF7D4FC1D
S2140026A0071E93DAE7E76FF01507ECE7B5F5614F1D
S2140026B016D0B5F5E13F10D10722C2E70222C0E7E7
S2140026C0B5F5166F09D10122BBE70822B9E7052246
S2140026D0B7E70922B5E70322B3E76FF01507CAE7A5
S2140026E00622AEE7C8DD0000D0DD0000D8DD000021
S2140026F014DF000094090100024660B190F83A30F9
S214002700013313F0FF0009BF012382F83A0082F874
S2140027103A3018467047704748B3F8B5044617462F
S2140027201D460E4600F04AFA40F23C620021204662
S21400273009F059FAA7621DB1656200212046A84734
S2140027402546336845F8203F3168284600F0B2FC3D
S21400275040B14FF40043074A23872B23226484F8B2
S2140027604430F8BD2846012100F0B8FCF1E76FF0D0
S21400277015007047E80364002DE9F04F87B0FF248A
S2140027808DF81340BDF84070002871D000F1200588
S2140027900446284689461646984600F08BFA0028D6
S2140027A066D1B4F93830002B5BDB0123B9F1000F9A
S2140027B035D0B8F1000F2DD04EBB9FB30022039248
S2140027C0164602972846019300F0FAFA82462846F3
S2140027D000F002FBDDE902239C18019B83460434CB
S2140027E00BB1A24523DA394809F006FA21465B46C2
S2140027F052463748A4EB0A0409F0FEF95C45D4BFFC
S2140028006FF00F006FF0790007B0BDE8F08FCDE9EC
S2140028100276D7E736B1CDE902864746D2E7B8F169
S214002820000FCAD16FF03C0007B0BDE8F08FB819B2
S2140028307E2380B28DF81430FEF7CEFD0322ADF86D
S214002840150005A9284600F03DFA46BB9FB9284664
S21400285001220DF1130100F035FA002007B0BDE8A3
S214002860F08F284600F05AFC10F1160F03469DD153
S2140028706FF01500C8E7029A4146284600F022FA93
S2140028807B1E9BB201339DF81320434418F8011BAE
S214002890521A4345D2B2F9D18DF81320D7E7039ADE
S2140028A04946284600F00EFA731E9BB201339DF887
S2140028B013204B4419F8011B521A4B45D2B2F9D1DA
S2140028C08DF81320002FC2D0D5E700BF44E00000EB
S2140028D054E00000038B102910D8DFE801F0090946
S2140028E013090F0F170F0F0F0F0F0F0F0F0F1100FA
S2140028F023F003034FF6FE729BB282820383704777
S21400290043F0020343F0010303837047002243F0C1
S214002910030382820383704700283DD000293BD002
S214002920002A39D02DE9F84F91F800A091F801B0AF
S214002930BAF18A0F814690460E4623D0184C23786B
S214002940FF2B26D0002505E09A450AD014F80C3F48
S214002950FF2B11D005F1010C424631464846002BAC
S214002960F2D163785BB9D4E901735FFA8CF5B847A6
S21400297014F80C3FFF2BEDD12846BDE8F88F9B4599
S214002980E4D1F0E7064C5946FFF7A4FF2378FF2B67
S214002990D8D10020BDE8F88F6FF01500704700BF53
S2140029A0501201002DE9F04383B0002800F09F800C
S2140029B000F120050446284600F07CF9002840F087
S2140029C0968094F8463006460746032B03D8DFE881
S2140029D003F00483471684F846700DF1070803E0F9
S2140029E09DF807307E2B5FD001224146284600F036
S2140029F091F90128F4D0304603B0BDE8F083B4F86E
S214002A004A80B4F848304146A3EB080303F10108B6
S214002A1004F14C0942464944284600F07BF98045BB
S214002A205DD1B4F8482084F846704FF6FF739A429A
S214002A30D3D002F1010CCC444946FF2311F8010B18
S214002A401B1A8C45DBB2F9D1002BC6D1013649469C
S214002A502046FFF761FF052ECDD094F84630B4E748
S214002A600DF1070801224146284600F053F90028D8
S214002A70C1D0B4F848309DF807100B449BB29A1E9C
S214002A8092B240F2EC508242A4F8483004D97E2933
S214002A901ED084F84670A7E703220021A4F84A70E7
S214002AA084F846208846AFE784F84600012241466F
S214002AB0284600F02FF900289DD09DF807307E2B81
S214002AC0CBD01B020222A4F8483084F84620C9E77F
S214002AD0012384F84630E9E70DF10708E6E7002809
S214002AE089DDB4F84A301844A4F84A0083E76FF04A
S214002AF0150680E788B1038F1A0610B5044609D478
S214002B0043F080030387FFF74DFF238F23F08003F6
S214002B10238710BD6FF00F0010BD6FF015007047D3
S214002B20002834D0F0B5056887B09DB3828A40F29D
S214002B30DC539A4228D80446202328468DF80C30C9
S214002B40FFF7DAFD63688DF80D006089CDF80E306A
S214002B50FEF742FCADF812002089FEF73DFC00228D
S214002B60277BE68923690192A28A00920C22ADF89F
S214002B7014000DEB020128468DF816708DF81760CC
S214002B80FFF7FAFD07B0F0BD6FF00600FAE76FF04A
S214002B90150070476FF01500F4E700BF00B589B068
S214002BA002A807F001FB9DF808301BB1019001F068
S214002BB099F9019809B05DF804FB00BF00B587B02D
S214002BC0684600F0CDFA9DF800301BB1152B01D0F9
S214002BD001F088F907B05DF804FB00BF00F038BBD1
S214002BE010B50D4C2068FFF7ABF9AA2803D80B4B9D
S214002BF04FF400521A602068FFF7A8F9042803D89B
S214002C00074B4FF400521A60064B1A68536E43F097
S214002C1004035366002010BDE41A0020CC8008444C
S214002C20CC800846140000200D4838B5C36C026CF2
S214002C301340836403691B0600D438BD094C25681D
S214002C4003F0AAFE01462846FFF75CF92068FFF766
S214002C507DF90428F1D8044B4FF400521A6038BDB1
S214002C6000000140E41A0020CC80084610B50E4C47
S214002C70E36C226C1340A36423695A0606D50B4BFB
S214002C801B7823B1E36C23F00203E36410BD084B0A
S214002C901868FFF745F9431CF4D0C1B22046BDE8DA
S214002CA0104003F07FBE00BF00000140E81A00207D
S214002CB0EC1A002020B10068B0FA80F04009704796
S214002CC001207047C8B108B503689BB1002A17DB1E
S214002CD00D4B1B78A3B940F2FF130C489A42A8BFCD
S214002CE01A460068FFF73EF9094AD36C43F0020320
S214002CF0D36408BD6FF0150008BD6FF0150070476F
S214002D006FF0040008BD00BFE81A0020EC1A00208F
S214002D100000014038B590B1036883B1002A1DDB7E
S214002D2040F2FF130F4D9A42A8BF1A462868FFF7D5
S214002D3047F90D4B1B7804462BB9204638BD6FF07B
S214002D401504204638BD2868FFF7FAF8AA28F4D8F4
S214002D50064B4FF400521A60204638BD6FF004044C
S214002D60EBE700BFE41A002010000020CC800844E7
S214002D7038B568B103685BB10E4D2868FFF7D0F828
S214002D80431C044613D00C4B1B782BB9204638BD89
S214002D906FF01504204638BD2868FFF7D1F8AA283A
S214002DA0F4D8064B4FF400521A60204638BD6FF038
S214002DB03C04EBE7E41A002010000020CC80084416
S214002DC008B1036813B96FF015007047014B186817
S214002DD0FFF7BCB8EC1A002008B1036813B96FF00F
S214002DE015007047014B1868FFF7AAB8EC1A0020C8
S214002DF058B108B5036813B96FF0150008BD044B49
S214002E001868FFF7ABF8002008BD6FF01500704794
S214002E10EC1A002058B108B5036813B96FF0150016
S214002E2008BD044B1868FFF799F8002008BD6FF03E
S214002E3015007047E41A002040B308B5036813B3C2
S214002E40B1F5614F0AD012D9B1F5613F06D020D94D
S214002E50B1F5E12F02D0B1F5612F11D100230A465A
S214002E60016019460D4803F01BFC002008BDB1F5B3
S214002E70964FF3D0B1F5164FF0D0B1F5165FEDD002
S214002E806FF0040008BD6FF0150008BD6FF0150068
S214002E907047B1F5E13FE1D0F2E700BF0000014026
S214002EA000283AD038B50368D3B10C46D9B9042205
S214002EB0104601230A2102F0DFFF19491948096864
S214002EC0194B1A4A4FF4806505601C704B6F43F02F
S214002ED002034B67D36C43F002032046D36438BD2D
S214002EE06FF0150038BD104B104901221A70CB6CDC
S214002EF0042223F00203CB64104600230A2102F0CA
S214002F00BBFF074B0A491A68536F4FF4806423F0DF
S214002F100203536700200C6038BD6FF01500704741
S214002F2014000020CC800846E81A0020000001406B
S214002F30CC8008442DE9F041504F3B78012B8EB0F1
S214002F40064600F08F804E4B4E48186040F2FF1148
S214002F50FEF7C4FF4C4B4D4A4D4D1360184640F2E9
S214002F60FF11FEF7BBFF0121112001F0E5FF012153
S214002F704848DFF83C8101F03BF80121464801F063
S214002F8037F80121454801F033F8042210460023A3
S214002F900D2102F071FF424B01224FF400511960DF
S214002FA0104600230B2102F067FF012302220B21AB
S214002FB0042002F061FF0FCD07AC0FC495E80700B0
S214002FC00EAB002503F81C5D84E807001946D8F808
S214002FD0000003F07FFCD8F80000324A3249112383
S214002FE04367836F23F4E06323F007038367C36FAD
S214002FF023F007034FF0040E4FF0400C43F0050398
S2140030008024C367C1F848E0C2F880C1C2F8804196
S214003010CB6C43EA0E03CB640521C2F800C01460F3
S21400302003F0C2FB29463046FFF73AFF0EB133687D
S21400303043B91D4B02225A643B78012B08D00EB0D0
S214003040BDE8F081194B01221A70FFF7C9FDF0E7C1
S21400305001A803F0F5FD9DF80430002BEFD000F03A
S21400306041FFECE701A803F083FD9DF80430002B38
S2140030703FF469AF00F036FF65E700BF9D90002083
S214003080E41A0020CC160020D8180020EC1A0020E5
S2140030907CE000004041050000550A000072040074
S2140030A0CC80084400E100E0000001401000002051
S2140030B01400002078B1026838B5044612B96FF0E3
S2140030C0150038BD0D46FFF735FF29462046BDE8FA
S2140030D03840FFF7B1BE6FF01500704790B1036837
S2140030E083B10B4B197081B90A4B30B41A680A4C7D
S2140030F0536E4FF4005503F00B03084653662560E5
S21400310030BC70476FF015007047FFF769BD00BF11
S2140031101000002014000020CC80084408B103688A
S21400312013B96FF015007047024B1868B0FA80F0BC
S21400313040097047AC09104310B5084C00F098FAE7
S214003140002100F079FA02F0D9FA22681368591CB7
S2140031501CBF0133136002F0D5FAEFE7FC1A00201B
S2140031602DE9F041054682B008B900F0BBFEDFF855
S214003170DC802A48D8F80810294F2B460C2200F08D
S2140031809BFC2C78386014B102B0BDE8F08125496C
S214003190254A264B264E046084600C702046214645
S2140031A014801C60348000F023F921460646102067
S2140031B000F01EF921460640112000F019F9F6B27B
S2140031C006402146122000F013F9304001280FD0A7
S2140031D0184A19499269194B6A604FF4BA72C5E9E0
S2140031E003129C69164BAC60062028706B61FEE7E4
S2140031F000952346D8E9002112483C6800F0FEF806
S2140032002A786060002ABFD13B680F49CDE90025C7
S2140032105868182300F068F9B6E700BF98E0000089
S214003220FC1A0020F01A0020F41A0020F81A0020D9
S214003230F21A002060E50000A4E0000014E300009D
S214003240D0E00000C0E00000393100001800002087
S21400325010B502F053FA034B1B681C6802F052FAD2
S214003260204610BDFC1A002000230360704700BFF4
S21400327038B50F4B01221A700446B0B10D4A0E4BFA
S21400328012680E491D6862600D4B63610020B7220C
S2140032902070C4E90312A56000F0FEFB00F0EEF912
S2140032A02046BDE8384000F095BD00F01BFEE5E77F
S2140032B0041B002060E5000014E30000DCE00000D2
S2140032C000E10000014B1868704700BF001B00209B
S2140032D02DE9F041044684B0002870D0394A3A4BB4
S2140032E012683A491D686260394B6361002040F6F7
S2140032F0B5022070A560C4E90312204603F038FC2E
S214003300237813B9334D2B682BB1204604B0BDE8A3
S214003310F04103F095BCFFF7D5FF2346014606466D
S214003320B4222D4800F0C8FB23782860002BECD18F
S2140033304FF0FF3804270193014638230394CDF855
S214003340088000973246254800F0F0FB2378002BD3
S214003350DBD129682248CDE90073CDE902842C230D
S2140033602431324600F0E2FB2378002BCDD12968C9
S2140033701C48CDE90073CDE9028438236C3132460F
S21400338000F0D4FB2378002BBFD129681648CDE97E
S2140033900073CDE9028401239031324600F0C6FB6B
S2140033A02378002BB1D1296810480394CDE9013861
S2140033B0483100973246242300F0B8FBA5E700F01A
S2140033C091FD8BE760E5000014E300000CE10000CF
S2140033D0D4E10000081B002030E1000044E10000BA
S2140033E054E1000064E1000074E1000088E10000A0
S2140033F016288CBF00200120704700BF2DE9F04141
S21400340082B00746089C0D461646984624B33F2EC3
S2140034100FD82E4A2E49126A2E4B62604FF4C172A4
S214003420C4E903121D6A2C4BA56008202070636156
S214003430FEE7B8F1000F12D0244A2549D269254B81
S214003440626040F28512C4E90312DD69224BA56072
S214003450072020706361FEE700F044FDD7E71F4BAE
S2140034601B68EBB1FFF72EFFB300804605B315F0DF
S214003470070118BF082125F007022B4455185B1BCF
S2140034809E0823464146F422154800F015FB237893
S21400349063B9C0E93A56C0F8F07002B0BDE8F081F2
S2140034A02046FFF715FF2378002BDBD00020F4E73B
S2140034B0CDE900541A46014608230A4800F018FBD6
S2140034C023780546002BDCD0F0E700BF60E500005F
S2140034D00CE1000014E30000B4E10000081B00202B
S2140034E0A8E1000098E100002DE9F0438BB0DDE98B
S2140034F0126405460F4690469946002C33D017B303
S2140035008DB1002E32D0284A2849D269284B6260F5
S21400351040F2E112C4E90312DD69264BA5600720DC
S21400352020706361FEE7204A2049926A204B626061
S2140035304FF4EF72C4E903129D6A1E4BA5600A2081
S21400354020706361FEE7184A1849926A184B626059
S2140035504FF4EE72C4E903129D6A164BA5600A206A
S21400356020706361FEE700F0BDFCC8E7D5F8EC10FC
S2140035700391CDE9056603220A2007920894049673
S21400358000FB01F06423B0FBF3F00290D5F8E830BE
S214003590CDE900933A464346D5F8F010284605F0A4
S2140035A057FE0BB0BDE8F08360E500000CE10000BC
S2140035B014E30000C4E100002DE9F041804686B027
S2140035C00F46144622B31B4E3068C8B1214600F0A1
S2140035D0E9FA237805461BB1002006B0BDE8F08165
S2140035E04146224604F038FA2378A3B917B13F784B
S2140035F007F0010785F83470284606B0BDE8F0816C
S2140036002046FFF765FE2378002BE5D13068DDE71E
S21400361000F068FCD7E7294630686A4600F06AFB87
S2140036209DF8003013B900252846E6E700F05AFC5E
S214003630F9E700BF081B002078B100B511F00101C2
S21400364087B00BD16A4606F0B3FB9DF800300BB18D
S21400365000F048FC07B05DF804FB70476A46082196
S21400366006F0A6FB9DF80030002BF3D0FEE700BF67
S214003670014B1868704700BF881B002008B502F091
S2140036803DF8034B01221A60BDE8084002F03AB844
S2140036900C1B00202DE9F843DDE9086479B9434A9C
S2140036A04349126A434B626040F2C662C4E90312A1
S2140036B01D6A414BA560082020706361FEE707463F
S2140036C01546994688463AB1531E13425ED102F01B
S2140036D015F8D7F804C004E002F010F8D7F804C0D4
S2140036E004254D4538BF4D46B9686B1E6A420B42ED
S2140036F002EA010218BF5219904409F1FF3313EA97
S2140037000805C9F1000318BF4D4603EA08032B4419
S214003710C1F10105AC44591A8C4515D3234D2549F2
S2140037202D68BB60096865600023214DA160237089
S21400373040F22671214B6361C4E90351144601F03F
S214003740E1FF2046BDE8F88316B1A1EB0C0131601D
S214003750164A184B164DD2F858809F6D174B63616A
S2140037604FF4E4621626C4E90352C4F80480A76046
S214003770267001F0C7FF40F2D5620F4B2670C4E9F1
S2140037800187C4E9035263610024DAE7074A08495F
S214003790126A084B626040F2CA62C4E903121D6AEC
S2140037A0054BA560082020706361FEE760E5000019
S2140037B0E0E1000014E3000048E2000060E20000E0
S2140037C02DE9F04F87B00391DDF840A0129C7AB93E
S2140037D0814A8249126A824B626040F29172C4E961
S2140037E003121D6A7F4BA560082020706361FEE708
S2140037F09846119B0746581C934611D053450FD246
S214003800754A7649126A764B626040F29572C4E950
S21400381003121D6A734BA560082020706361FEE7E3
S214003820B8F1000F17D008F1FF3313EA080F02D1E2
S214003830B8F1030F11D8684A6849126A684B62608B
S21400384040F29A72C4E903121D6A664BA56008200E
S21400385020706361FEE74FF004083A78910740F164
S214003860A7801BF003032BF0030606F1040618BF1F
S21400387004231E44BAF1000F76D0D20740F19D8093
S214003880039B18694045024638BF4246531E5542C0
S214003890334205EA060500D0154405FB0A63411EBF
S2140038A05B1B1942C0F1000101EA030108BF0020BA
S2140038B001440023CDE9003403980123FFF7EAFE14
S2140038C023788146002B4CD13B7838619B0765D422
S2140038D08346BAF1010F29D90123CDE904364E46B5
S2140038E0A14602E0049B9A451DD032462E44CBF8F2
S2140038F00060049BFC690399013338460493AB448B
S214003900002CEFD03B6AA0470128EBD0324A344B5C
S214003910926E9D6EC9F804204C463049314B1A20F1
S21400392040F2D77218E04C46B146059E0023CBF80D
S2140039300030FD69D5B14A463B6A03993846A84728
S214003940012813D0264B244A9D6E926E2349254BA0
S21400395062601A2040F2E772C4E90312A560207084
S214003960636107B0BDE8F08FC7F810A01C4B1A4A79
S2140039701968039B1068119A7A61C7E90136194ADB
S214003980164EC7F80C80002340F2FA75BB616060E3
S2140039902370C4E90216C4E90452E2E71BF00302EE
S2140039A02BF0030318BF0422134400EB030B90E72D
S2140039B05E46042E38BF04265CE708F1FF33C8F1E4
S2140039C00005334205EA060500D0454405FB0A61BA
S2140039D0491B42466DE700BF60E50000E0E10000DD
S2140039E014E3000078E2000038B505460C460029CE
S2140039F044D00DB301F082FE22490B6843B19D42CC
S214003A002AD01A4601E0954226D0D268002AFAD17A
S214003A10EB600D6001F076FE1B4A1C4B12681C49D9
S214003A201D6862601B4BA560002040F2C922207012
S214003A30C4E90312636138BD134A1549926A134BF1
S214003A40626040F2B722C4E903129D6A114BA5607A
S214003A500A2020706361FEE701F054FE0A4A0B4B11
S214003A60526D0B495D6D62600A4BA560152040F2F1
S214003A70BE222070C4E90312636138BD00F032FA3A
S214003A80B7E700BF6870002060E5000014E30000A0
S214003A90E0E1000000E2000000B587B06946054896
S214003AA0FFF7A2FF9DF800300BB100F01BFA07B03D
S214003AB05DF804FB2400002010B50C4684B06BB102
S214003AC00A480193002311469C4218BF20460093E3
S214003AD004220123FFF7DEFD04B010BDCDE902236A
S214003AE000F000FADDE90223EAE700BF2400002028
S214003AF070B582B0DDE906650C46114665B10A4828
S214003B001A46002C18BF20460123CDE9066502B0F0
S214003B10BDE87040FFF7BEBDCDE9002300F0E2F936
S214003B20DDE90013EBE700BF240000202DE9F04795
S214003B300B9CDDF828A0DDE908890D4616461F46D1
S214003B4094B1ADB1002012490A94CDE9089A2870C4
S214003B50864218BF3146C5E9070043463A4628461E
S214003B60BDE8F047FFF72CBE00F0BCF9002DE9D108
S214003B70084A0949926A094B626040F21242C4E957
S214003B8003129D6A064BA5600A2020706361FEE75B
S214003B902400002060E50000E0E1000014E30000DF
S214003BA00CE200002DE9F041054682B00C460029E3
S214003BB03FD0002D2DD001F0A1FDD5E905134E1CF8
S214003BC0024601D0994270D92E690133AB61002EAE
S214003BD032D02B7899074ABFAB6833689B191046DA
S214003BE048BF53F8043C2B6101F08CFD3D4A3E4B28
S214003BF010683E491A68A26040F2EF42C4E9031218
S214003C003B4B6060002020706361304602B0BDE828
S214003C10F081344A3549926A334B626040F2D542AD
S214003C20C4E903129D6A324BA5600A2020706361C6
S214003C30FEE700F057F9BCE7104601F063FD2B786D
S214003C40EA68D5E90101DB074FF000084CBF0369BD
S214003C500123CDE90084FFF71DFD27780646002FD7
S214003C6036D1D5F81C80B8F1000FCED002462B6AAC
S214003C7069682846C0470128C7D001F03FFDAB69F8
S214003C80013BAB6101F03EFD164A174B906E17499B
S214003C909A6E6060164BA2601A2040F219523E4699
S214003CA02070C4E903126361AFE701F02BFD0D4AF3
S214003CB00D4B126E0D491D6E62600D4BA5601820EF
S214003CC04FF49C622070C4E90312636100269CE7EF
S214003CD001F014FDAB69013BAB61464601F012FDF5
S214003CE093E700BF60E5000014E30000E0E1000099
S214003CF020E20000F8B505460F461446002A2AD0F2
S214003D00002D2CD0002F4CD001F0F8FCAB69002B16
S214003D1035D0013BAB6101F0F5FC2B789B0743BF28
S214003D20AB68043BFE183E4601F0E8FC2B693360A6
S214003D302F6101F0E7FC234A234B126823491D68D4
S214003D406260234BA560002040F255522070C4E903
S214003D5003126361F8BD00F0C5F8002DD2D1194AF0
S214003D601A49926A184B626040F23B52C4E9031249
S214003D709D6A174BA5600A2020706361FEE701F07C
S214003D80C1FC104A104BD26D1049DD6D6260104BBD
S214003D90A560172040F245522070C4E90312636103
S214003DA0F8BD084A0949926A074B626040F23C52E5
S214003DB0C4E903129D6A064BA5600A202070636161
S214003DC0FEE700BF60E5000014E30000E0E100004D
S214003DD034E200002DE9F04F044685B008B900F043
S214003DE081F8334EDFF8E090DFF8E0A0D9F8002045
S214003DF0DFF8DC807368DAF800102E4FA2604FF010
S214003E00000BC422616084F800B0C4E903826761D5
S214003E1013B905B0BDE8F08F59460220FFF7E8FA5F
S214003E20594605460320FFF7E3FA594605400420A5
S214003E30FFF7DEFAEDB2284001280CD0D9F81810AA
S214003E40DAF818306360C4E902180622CA236761EC
S214003E5022702361FEE7FFF735FA23460146074640
S214003E602C221548154DFFF727FE23782860002BD7
S214003E70CFD173680293366803940423C118CDE942
S214003E8000363A4608230E48FFF750FE21780029F0
S214003E90BFD122460B482E68FFF78EFB2378B06210
S214003EA0002BB6D1286805B0BDE8F04FFFF7DCB9A7
S214003EB03800002004E3000094E20000101B0020FD
S214003EC0A8E20000C0E2000014E3000060E5000085
S214003ED0D4E20000024B00221A60FCF7C7B900BF0C
S214003EE06C900020FEE700BF014B1860704700BFD3
S214003EF06C900020FEE700BF4FF0804310B5002412
S214003F005B68134BC9B2224606E00132072A03F16A
S214003F10080314D013F8084C8C42F6D153F80C4C16
S214003F208442F2D30B4B03EBC20253791A064FF0CE
S214003F3080414B6823F0407313434B6010BD40F63E
S214003F40D8310548FFF7D6FF4FF04072EFE700BFC5
S214003F50800B0100740B0100600B010038B54FF0B8
S214003F60804441F67133256C2364FCF7F9F900218F
S214003F70FFF7C2FF0DB10023236438BD4FF0804326
S214003F8041F6713270B51E6C1A6405460C46FFF792
S214003F90B3FF114B114A022C08BF13469D4211D99C
S214003FA00F4B104A104911609D420ED96CB94FF064
S214003FB08C434FF480521A601EB14FF080430022AB
S214003FC01A6470BD094B084A1A604FF088434FF4D4
S214003FD080521A60F0E700BF80D543020024F40048
S214003FE080F0FA02000100460202020000010044CE
S214003FF0C0F30323013B30B40E2B55D8DFE803F0A3
S2140040004C2054545047420832383C28542E240042
S214004010C0F3043327484FF48075274AD2F844414A
S214004020E40704D51844800030BC01607047D2F81D
S21400403040412C42F6D0D2F840412C42F7D1F1E76D
S214004040C0F304331D48EDE7C0F304331C48E9E72A
S214004050C0F3043381F001011A48E3E7C0F30433E8
S2140040601948DFE7C0F304334FF480351748D4E728
S214004070C0F304331648D5E7C0F3043381F00101DA
S2140040801448CFE7C0F3043310251348C5E7C0F340
S214004090043301251148C0E7C0F304331048C1E7D4
S2140040A0C0F304330F48BDE741F23C110E4830BC64
S2140040B0FFF720BF6007F21000400E400006F21027
S2140040C0800FF210200BF2102006F2108007F2107C
S2140040D0800AF210000BF2104007F2100007F210F0
S2140040E00000F2108005F210600B010000F00F00D7
S2140040F0013808B50B2800F28D80DFE800F01321A8
S2140041002F3B434B8B557A637106524BD3F8F031F5
S21400411003F00703052B00F29A80DFE803F086849D
S21400412096908C884B4BD3F8943003F00703023BF1
S214004130052B00F28480DFE803F0767A7E867884AA
S214004140444BD3F8800000F00700022805D004286E
S21400415067D001280CBF0320012008BD3D4BD3F8D3
S214004160843003F00703013B032B70D8DFE803F02D
S2140041705F636559374BD3F88C0000F007000228C0
S214004180E5D108BD334BD3F8880000F007000228BD
S214004190DDD108BD2F4B1B6F13F0030327D0012B77
S2140041A00CBF0920012008BD2A4BD3F85C3103F070
S2140041B03003202B37D0302B3BD0102B0CBF0720E2
S2140041C0012008BD234BD3F8603103F00303022B14
S2140041D00DD0032B29D0012B0CBF0420052008BDD1
S2140041E01C4BD3F8643103F00303022BF1D10720F4
S2140041F008BD184BD3F85C3103F44013B3F5001F29
S21400420011D0B3F5401F14D0B3F5801F0CBF0720A4
S214004210012008BD41F276610F48FFF76BFE0020D3
S21400422008BD0C2008BD042008BD0A2008BD0320D8
S21400423008BD082008BD022008BD062008BD0520D0
S21400424008BD0E2008BD0D2008BD0B2008BD0120AE
S21400425008BD00BF00400E40600B010038B5384B6B
S2140042609842054606D02DD9364B984202D0364B9A
S21400427098422AD12846FFF739FF314B9D42044623
S2140042802FD034D92F4B9D4216D02F4B9D4237D17D
S2140042902E4BD3F8884004F00704042C04D8DFE83B
S2140042A004F0094B4739350040F64A512848FFF7D5
S2140042B021FE0024204638BD244BD3F88C4004F061
S2140042C00704EAE7234B9842D4D040F6C941204879
S2140042D0FFF710FE2846FFF709FF194B9D420446DC
S2140042E0CFD11A4BD3F8844004F00704D5E7194B16
S2140042F09D4205D1154BD3F8804004F00704CCE767
S21400430040F6F8411248FFF7F5FDC6E7BDE838402D
S214004310FCF77CB8FCF750F80C4BD3F80041C4F31C
S2140043200164631C01249C40B0FBF4F4204638BDB5
S214004330BDE83840FCF76EB8BDE83840FCF762B818
S21400434003002000040022000500240000400E4068
S214004350600B010002001E00012808B514BF1348B8
S2140043601348FFF7C3FE0138072818D8DFE800F027
S2140043700417170617170A0D002008BDBDE80840E9
S214004380FCF72CB80B4B186808BDFBF7EDFF0A4B83
S214004390D3F80031C3F3042303FB000008BD40F646
S2140043A0D1210648FFF7A6FD002008BDB800320060
S2140043B0B90034004000002000400E40600B0100B1
S2140043C000F47810B0F5D01F08B500F09D811FD816
S2140043D0B0F5402F00F0A58134D8B0F5802F00F05E
S2140043E0DE806AD9B0F5002F00F03A81B0F5202FB4
S2140043F000F00981B0F5C02F4FD1FBF7B5FFCE4BCB
S214004400D3F81831C3F308230133B0FBF3F008BD2B
S214004410B0F5381F00F0AA812ED8B0F5001F00F0C6
S214004420C9806BD9B0F5201F00F01581B0F5281FA4
S21400443000F0DC80B0F5101F2FD1C048BDE8084062
S214004440FFF70CBFB0F5901F00F0B9802CD9B0F57F
S214004450B01F00F04C81B0F5C01F00F08780B0F5AB
S214004460A01F1AD1B548FFF7F9FEB34BD3F8303189
S21400447003F00303D84008BDB0F5501F00F083805A
S2140044802AD9B0F5601F00F01481B0F5681F00F05F
S214004490A080B0F5581F00F0EE8041F26221A848D7
S2140044A0FFF728FD002008BDB0F5602F35D0B0F529
S2140044B0801FF2D1A34B186808BD50B3B0F5003F7B
S2140044C0EBD1FBF751FF9C4BD3F80831C3F308231D
S2140044D00133B0FBF3F008BDB0F5401F38D0B0F59F
S2140044E0481FDAD10020FFF737FF934BD3F85C3133
S2140044F003F003030133B0FBF3F008BDB0F5E01F93
S21400450019D0B0F5F01FC8D18F48BDE80840FFF7B6
S214004510A5BEBDE80840FBF727BF8C48FFF7E6FDC1
S2140045200728C7D00928F4D040F69A218448FFF718
S214004530E1FC002008BD8648FFF790FE7E4BD3F8CE
S21400454028210123C2F301129340B0FBF3F008BD0B
S2140045507F48FFF783FE784BD3F82831C3F3013347
S2140045601A1D01239340B0FBF3F008BD7648FFF711
S21400457075FE714BD3F820210123C2F3031293403A
S214004580B0FBF3F008BD0120FFF7E6FE6A4BD3F858
S2140045905C31C3F301430133B0FBF3F008BDFBF716
S2140045A0E3FE654BD3F80C31C3F308230133B0FBAD
S2140045B0F3F008BD6648BDE80840FFF74FBE624806
S2140045C0FFF74CFE5C4BD3F82031C3F30343D840CF
S2140045D008BD6048FFF78AFD0238092834D8DFE8AE
S2140045E000F02B272320333333331D2F5648FFF795
S2140045F035FE514BD3F820210123C2F302329340FB
S214004600B0FBF3F008BDFBF7AFFE4B4BD3F804311D
S214004610C3F308230133B0FBF3F008BD4E4B186814
S21400462008BD4E4B186808BDBDE80840FBF7D6BE6F
S214004630BDE80840FBF7E6BEBDE80840FBF7EABE6B
S214004640FBF7CCFE400008BD40F684313C48FFF73F
S21400465051FC002008BD4248BDE80840FFF7FEBDFB
S214004660FBF782FE344BD3F81C31C3F30823013327
S214004670B0FBF3F008BD3B48FFF738FD04380628CA
S21400468010D801A353F820F0294600002346000066
S214004690A5460000B5440000A5460000A54600005B
S2140046A01D46000040F6FB212548FFF723FC0020AE
S2140046B008BD2D48FFF71AFD0438062810D801A3B8
S2140046C053F820F02946000023460000E14600008B
S2140046D0B5440000E1460000E14600001D4600002B
S2140046E040F62D311648FFF705FC002008BD164899
S2140046F0FFF7B4FD104BD3F82021012302F00F0280
S2140047009340B0FBF3F008BD1148FFF7A7FD0A4B36
S214004710D3F82821012302F003029340B0FBF3F004
S21400472008BDFBF721FE044BD3F81431C3F3042372
S2140047300133B0FBF3F008BD00400E400500240036
S214004740600B01004000002002001E0006000E0064
S214004750030020000C7F3A004400002008000020E0
S214004760040022000A7B36000B7C38000448FFF762
S21400477075FD044BD3F82031C3F30123D84008BDA0
S21400478002001E0000400E40C0F30313013B70B54C
S2140047900C460B2B00F24E81DFE813F0200064007D
S2140047A04C01750089009D00B100F20038010B0134
S2140047B020010C00B1F5007F04D341F27741C648D2
S2140047C0FFF798FBC54AD2F8043123F4FF3323F4ED
S2140047D0807343EA0424C2F8044170BD1F2900F226
S2140047E0EA81FFF7BBFBBE4BBC4D01221A60D5F831
S2140047F0003123F0407343F08073C5F8003100F0B9
S2140048009FFBD5F8003123F4F85343EA0424C5F897
S2140048100041FBF7D1FDB34B1C68002CFCD1B24B1A
S2140048205968C1F30141FFF7A9FBB048FFF7C8FD7F
S214004830AF4B984240F20E81AE4B012498428CBF9B
S2140048404FF000734FF08073A549A44A0C60D2F86D
S214004850000120F040701843C2F80001BDE8704027
S21400486000F084BB1F2904D941F26B319A48FFF748
S21400487041FB9A4AD2F8143123F4F85343EA04244D
S214004880C2F8144170BDB1F5007F04D341F2723115
S2140048909148FFF72FFB914AD2F80C3123F4FF33EF
S2140048A023F4807343EA0424C2F80C4170BDB1F5CA
S2140048B0007F04D341F279318748FFF71BFB874A14
S2140048C0D2F8183123F4FF3323F4807343EA042428
S2140048D0C2F8184170BDB1F5007F04D341F28131B2
S2140048E07D48FFF707FB7D4AD2F81C3123F4FF33DF
S2140048F023F4807343EA0424C2F81C4170BDB1F56A
S214004900007F80F05281FFF729FB754B734A012127
S2140049101960D2F8003123F0407343F08073C2F878
S2140049200031D2F8083123F4FF3323F4807343EACE
S2140049300424C2F80841FBF73FFD6A4B1C68002CB4
S214004940FCD1694B5968C1F30141FFF717FB674873
S214004950FFF736FD664B98427ED9664B0124984297
S2140049608CBF4FF000734FF080735D495B4A0C605C
S214004970D2F8000120F040701843C2F8000170BD64
S2140049805D4B984200F0A18168D85C4B984200F0DD
S2140049901C825B4B984200F0ED81A3F57033984281
S2140049A000F0678141F206414B48BDE87040FFF7D2
S2140049B0A1BA524B984240F00481022900F2DF80EF
S2140049C0464BD3F84421D1073BD5444AD2F8303180
S2140049D023F003031C43C2F8304170BD494B984294
S2140049E000F0D380484B984269D1032904D941F29C
S2140049F069413948FFF77EFA384AD2F85C3123F429
S214004A00403343EA0444C2F85C4170BD3F4B9842D1
S214004A1000F0068103F5A113984200F083803C4B1A
S214004A20984200F0D58041F23C412B48BDE87040EA
S214004A30FFF760BA41F27E412748BDE87040FFF7B5
S214004A4059BAD3F840215203BFD5D3F840215203B8
S214004A50F7D4BAE72346F7E6234686E72D4B984277
S214004A6006D02D4B984200F05C812C4B984299D191
S214004A70B4F5004F00F2088200F00B82651CB5FA10
S214004A8085F5C5F11F051F2D00F2F1810123AB400E
S214004A90013B9C4204D040F669212148FFF72AFAE0
S214004AA00E4BD3F84421D60710D50C4AD2F8203145
S214004AB023F4E04343EA0535C2F8205170BD41F2C5
S214004AC06F410548BDE87040FFF714BAD3F840219F
S214004AD05407FBD4E9E700BF600B010000400E401E
S214004AE04000C843C800C64300300E4000050A0018
S214004AF00048E8010090D00380161800A0091400B2
S214004B0080061600B8003200B900340090171C006A
S214004B1090071A0000362C0080262E0080002A00FF
S214004B20FC0A0100A1F10F03702B00F28B81651CBB
S214004B30B5FA85F5C5F11F061F2E00F27D8101230B
S214004B40B340013B9C4204D040F66921CB48FFF7B6
S214004B50D1F9CB4BD3F84421D407C5F11B0509D5B1
S214004B60C74AD2F8283123F4405343EA0535C2F841
S214004B70285170BDD3F840215006FBD4F0E741F22F
S214004B804641C048FFF7B6F91AE7032904D941F2AF
S214004B906141BC48FFF7AEF9B94AD2F85C3123F060
S214004BA003031C43C2F85C4170BD41F28831B5482E
S214004BB0FFF7A0F9A7E641F25531B248FFF79AF998
S214004BC00FE641F25641AF48BDE87040FFF792B994
S214004BD0082900F22281651CB5FA85F5C5F11F0586
S214004BE01F2D00F2FF800123AB40013B9C4204D006
S214004BF040F66921A148FFF77DF9A14BD3F844217F
S214004C00D00708D59E4AD2F8283123F003031D4367
S214004C10C2F8285170BDD3F840215106FBD4F1E705
S214004C20082900F2EB80651CB5FA85F5C5F11F056D
S214004C301F2D00F2DD800123AB40013B9C4204D0D7
S214004C4040F669218D48FFF755F98D4BD3F844217E
S214004C50D20709D58A4AD2F8283123F0300343EA2E
S214004C600515C2F8285170BDD3F840215606FBD46E
S214004C70F0E7B1F5004F00F2498100F04C81651C69
S214004C80B5FA85F5C5F11F051F2D00F24A810123EF
S214004C90AB40013B9C4204D040F669217748FFF7C1
S214004CA029F9774BD3F84421D60709D5744AD2F8A8
S214004CB0203123F4702343EA0545C2F8205170BD25
S214004CC0D3F840215407FBD4F0E7B1F5004F00F2CB
S214004CD0F88000F0FB80651CB5FA85F5C5F11F0568
S214004CE01F2D00F2E8800123AB40013B9C4204D01C
S214004CF040F669216148FFF7FDF8614BD3F844217F
S214004D00D40709D55E4AD2F8203123F0F00343EAEF
S214004D100515C2F8205170BDD3F840215007FBD4CA
S214004D20F0E7082900F2E380651CB5FA85F5C5F1C1
S214004D301F051F2D00F2B9800123AB40013B9C42AA
S214004D4004D040F669214D48FFF7D4F84C4BD3F811
S214004D504421D10709D54A4AD2F8203123F44073BA
S214004D6043EA0525C2F8205170BDD3F8402152070A
S214004D70FBD4F0E7B1F5004F00F2AE8000F0B18052
S214004D80651CB5FA85F5C5F11F051F2D00F2878055
S214004D900123AB40013B9C4204D040F669213748D2
S214004DA0FFF7A8F8364BD3F84421D20708D5344A83
S214004DB0D2F8203123F00F031D43C2F8205170BDF6
S214004DC0D3F840215607FBD4F1E7022949D82C4BEB
S214004DD0D3F84421D0073FF5F8ADD3F8402151036E
S214004DE0FBD4F2E540F64E212448FFF783F8FAE6B6
S214004DF040F64E212148FFF77DF81CE741F21E41A0
S214004E002048FFF777F8B4F5004FFFF40CAF40F6F4
S214004E1063211A48FFF76EF805E741F20F4119487B
S214004E20FFF768F8B4F5004FFFF4D5AE40F66321FF
S214004E301248FFF75FF8CEE640F64E210F48FFF720
S214004E4059F87CE641F22D410E48FFF753F8B4F5C9
S214004E50004FFFF46CAE40F663210848FFF74AF8AF
S214004E6065E641F2AD310748FFF744F8AFE740F694
S214004E704E210248FFF73EF808E600BFFC0A010094
S214004E8000400E40600B010041F2F8312848FFF761
S214004E9031F840F663212748FFF72CF8EEE540F698
S214004EA04E212448FFF726F872E740F64E212148A7
S214004EB0FFF720F840E740F64E211E48FFF71AF8A5
S214004EC011E741F2D9311A48FFF714F840F663218A
S214004ED01848FFF70FF8FEE641F2CA311448FFF70C
S214004EE009F840F663211348FFF704F848E741F253
S214004EF0E8310F48FEF7FEFFB4F5004FFFF414AF9D
S214004F0040F663210B48FEF7F5FF0DE741F29C31B2
S214004F100748FEF7EFFF40F663210648FEF7EAFF74
S214004F20ADE640F64E210348FEF7E4FFAFE600BFCD
S214004F30600B0100FC0A01000139FFF725BC00BF29
S214004F4008B503210648FFF71FFC03210548FFF7B5
S214004F501BFC03210448BDE80840FFF715BC00BF52
S214004F6040410500504107006041090038B5FBF795
S214004F70FBF9204A05461368002BFCD11E4B5B68E4
S214004F80C3F30143022B1ED01C4B1D4C1D482B4463
S214004F90A4FB03231C0E18BF04F1FF342146FFF7C1
S214004FA0F3FB21461848FFF7EFFB1849184B194842
S214004FB02944A3FB0131890E18BF01F1FF31BDE87A
S214004FC03840FFF7E1BB144C144B0E482C44A3FBAF
S214004FD00434E40D18BF04F1FF342146FFF7D4FB78
S214004FE021460C48FFF7D0FB21460748BDE838406D
S214004FF0FFF7CABBC800C64300300E407FF0FA0277
S214005000893BE6554041050060410900FFA14A047E
S214005010B5FA9BEE50410700FF2C31016BCA5F6B5F
S214005020022810B50C4604D04FF4F4510D48FEF794
S21400503061FF0D4B5B6AC3F30113012B00D04CB923
S2140050404FF48001084AD2F8903031EA0303FAD1CF
S214005050012010BD41F69B610248FEF74BFF034955
S214005060F0E700BF600B010000400E40FF3F473AEC
S214005070F0B5044683B00E4605287BD8DFE800F07E
S214005080031E2A676C724FF400754FF4807708236E
S2140050904FF0090CCEB94E4901200D669840D1F864
S2140050A090300342FBD13AB10122494902FA0CF290
S2140050B0D1F890301342FBD103B0F0BD80254027D5
S2140050C006234FF0070C002EE5D04249194489000C
S2140050D000260CE0002976D03D4B5B6AC3F3011333
S2140050E0012B4FD03C4904274FF0030C0026384BC9
S2140050F01F660B68002BFCD0002ADDD0354D6544BA
S214005100AD002B68002BFCD0022CD5D1002ED3D0BE
S2140051102F4B5B6A03F00303032B03D020460021CA
S214005120FFF77EFF41F6F1512C48FEF7E3FE012221
S21400513000210220FFF79CFF41F668612748FEF732
S214005140D9FE234B1F662B68002BFCD0B4E7012743
S214005150BC46022500239DE72025102704234FF098
S214005160050C97E74FF400654FF480670A234FF06D
S2140051700B0C8FE7194841F6655103B0BDE8F040C7
S214005180FEF7B8BE164BDB6B5B0514D51048436ABA
S21400519003F0030CBCF1030F04D00F4904274FF0B3
S2140051A0030CA4E7436A0C4923F0300343F02003C2
S2140051B0436204279BE741F6745108480192FEF7C4
S2140051C099FE019AE2E7082502234FF0030C62E7F6
S2140051D000400E408004F2100812C843600B010025
S2140051E000300E40112838B50C460DD000F00F00E8
S2140051F001380B2800F2CE80DFE800F00B29B289D8
S214005200B439CC6D7B43505D042900F0D18005296C
S21400521013D00025023C0C2C00F24282DFE814F08A
S214005220F001F301F6010F02400240024002400284
S214005230B001400205020C02EE01B64AB64B1568F4
S2140052409D42E6D90021284600F068FBE2E70629E1
S21400525000F03482B14D013C0B2C00F2A280DFE856
S21400526004F0979089A0A063A0A0A0A0A08607291C
S21400527000F02082092940F0A580A94B01221A6778
S21400528038BD0C1F062C00F2E881DFE814F0D400CD
S214005290CD00E601BE00E601E6011A010C1F062C51
S2140052A000F2F081DFE814F00601FF00EE01F800DE
S2140052B0EE01EE01E9008C1E092C00F2EA81DFE81F
S2140052C014F0070151014A015801E801E801E8011C
S2140052D0E801430116014C1E072C00F2CC81DFE8E2
S2140052E014F0CA00CA01CA01C300CA01CA018D006F
S2140052F083004C1E072C00F2B781DFE814F0A300F1
S214005300B501B501AD00B501B501A5006A000629D5
S214005310844DA0D1844841F27F71FEF7EBFD41F247
S21400532089718148FEF7E6FDFBF746F87F4B984209
S21400533045D97F4B012198428CBF4FF000704FF04B
S21400534080707C4B764A1960D2F800317A4923F097
S214005350407303430120C2F800310323086007E0CE
S214005360764D78E70629764D7FF475AFD7E70423A8
S2140053702B6038BD012211461046FFF779FE012347
S214005380F6E7012211460020FFF772FE0223EFE740
S2140053900023EDE741F66D116348BDE83840FEF79F
S2140053A0A9BD41F2AE716048BDE83840FEF7A2BD27
S2140053B0FBF714F8054600283FF42BAF42E7002021
S2140053C00146BEE741F638015748BDE83840FEF7CB
S2140053D091BD4FF44011524AD2F85C3123F4401389
S2140053E00B43C2F85C3138BD30214D4AD2F85C31EF
S2140053F023F030030B43C2F85C3138BD012211465E
S2140054000420FFF735FE1021EFE7012211460420A5
S214005410FFF72EFE0221424AD2F8603123F0030342
S2140054200B43C2F8603138BD012211460320FFF756
S2140054301FFE0021EFE7012211460220FFF718FEAB
S2140054400121E8E70021C6E7012211460420FFF704
S2140054500FFE4FF48011BEE7012211460220FFF72F
S21400546007FE4FF40011B6E7012211460220FFF7AF
S214005470FFFD2021B9E70021B7E7012211460520EC
S214005480FFF7F6FD0321264AD2F8643123F0030322
S2140054900B43C2F8643138BD012211460420FFF7E1
S2140054A0E7FD0221EFE7012211460320FFF7E0FDAA
S2140054B00021E8E7012211460220FFF7D9FD01216D
S2140054C0E1E7012211460520FFF7D2FD0321A2E7FE
S2140054D0012211460020FFF7CBFD0421104AD2F826
S2140054E0F03123F007030B43C2F8F03138BDFAF76A
S2140054F075FF144B984200F2E88009494B6A012276
S21400550043F008034B6202201146FFF7B1FD02216B
S214005510E4E700BF08000020002D310180400E4067
S21400552000400E408C400E40600B01000048E80131
S2140055300090D0034000C8430016C84384400E4085
S21400554088400E4040787D01012211460520FFF775
S2140055508FFD0021C2E7012211460220FFF788FDD9
S2140055600121BBE7012211461046FFF781FD052108
S214005570B4E7012211460320FFF77AFD0321ADE7C9
S2140055800520062401221146FFF772FDFEF7E6FC11
S214005590FFF7D6FC1DB1504A1368002BFCD14F4BC9
S2140055A04F485C67FEF70CFF4E4B98427FD94E4B38
S2140055B0012498428CBF4FF000734FF080734B4924
S2140055C0464A0C60D2F8000120F040701843C2F83A
S2140055D00001FAF7F1FE404A1368002BFCD1444B59
S2140055E05968C1F30141FEF7C9FC1DB928460121DF
S2140055F000F094F9BDE83840FFF7B8BC0724C5E7CB
S21400560000200424BEE701200324BBE7374B334ABF
S21400561001211960D2F8003123F0407343F0807303
S2140056200220C2F800310446ACE741F2347131483A
S214005630BDE83840FEF75EBC03200524A2E72B4BEE
S214005640264A01241C60D2F8003123F0407343F050
S2140056508073C2F80031032094E74FF4C751254801
S214005660BDE83840FEF746BC41F6B9012148BDE822
S2140056703840FEF73FBC41F696011E48BDE838406C
S214005680FEF738BC41F607111A48BDE83840FEF769
S21400569031BC41F641111748BDE83840FEF72ABC38
S2140056A041F239711348BDE83840FEF723BC0023A9
S2140056B01C4684E7094B00221A6738BD41F2757113
S2140056C00C480D4DFEF716FC24E641F6221109485B
S2140056D0FEF710FC11E700BFC800C64300400E40AE
S2140056E000050A000048E8010090D0034000C843C7
S2140056F000300E40600B010080400E40EFF310803B
S21400570072B6704700B962B6704700BFEFF31080FC
S21400571072B67047FFF7F6BF38B542EA032340F289
S2140057200112934205460C4660D0B3F5817F14D330
S21400573040F20122934250D030D9B3F5407F24D0B6
S21400574040F2013293423ED12D4BD3F878311A0EF7
S214005750C3F307432B60226038BD012B2AD00BD33E
S214005760B3F5807F2FD1264BD3F86C311A0EC3F3D6
S21400577007432B60226038BD214BD3F86C31C3F34E
S2140057800722DBB22B60226038BD1D4BD3F8703188
S2140057901A0EC3F307432B60226038BDB3F5007FB3
S2140057A011D1174BD3F87031C3F30722DBB22B604D
S2140057B0226038BD124BD3F87431C3F30722DBB234
S2140057C02B60226038BD40F2D3710E48FEF792FB84
S2140057D0002213462B60226038BD094BD3F878317F
S2140057E0C3F30722DBB22B60226038BD044BD3F82C
S2140057F074311A0EC3F307432B60226038BD00BF16
S214005800B081E00FAC0B01001C4B022810B5D3F89A
S21400581080310C4620D003281CD0012814BFDBB2F0
S214005820C3F307231B0323F4704244B9BAB91449DF
S214005830CA6E22F470421343CB66012010BDAAB98B
S2140058400F49D1F8EC2022F470421343C1F8EC3033
S214005850012010BD1B0EE5E7C3F30743E2E740F265
S21400586062710848FEF746FB204610BD40F26E7196
S2140058700448FEF73FFB002010BD00BFB081E00FDC
S21400588000300E40AC0B01001F4B2DE9F0410446E2
S2140058900E46D3F80051FAF767FD1C4A0746136810
S2140058A0002BFCD11A4A5368C3F301439C4229D00B
S2140058B0C4F102081023022C03FA08F80DD0C2F82F
