:1000000000000820310300005D0300005D030000D4
:100010005D0300005D0300005D0300005D03000060
:100020005D0300005D0300005D0300005D03000050
:100030005D0300005D0300000DAF0000B5B10000DE
:100040005D0300005D0300005D0300005D03000030
:100050005D0300005D0300004134000085340000B2
:100060005D0300005D0300005D0300005D03000010
:100070005D0300005D0300005D0300005D03000000
:100080005D0300005D0300005D0300005D030000F0
:100090005D0300005D0300005D0300005D030000E0
:1000A0005D0300005D0300005D0300005D030000D0
:1000B0005D0300005D0300005D0300005D030000C0
:1000C0005D0300005D0300005D0300005D030000B0
:1000D0005D0300005D0300005D0300005D030000A0
:1000E0005D0300005D0300005D0300005D03000090
:1000F0005D0300005D0300005D0300005D03000080
:100100005D0300005D03000005B2000069B300005C
:100110005D0300005D0300005D0300005D0300005F
:100120005D0300005D0300005D0300005D0300004F
:100130005D0300005D0300005D0300005D0300003F
:100140005D0300005D0300005D0300005D0300002F
:1001500010B5054C237833B9044B13B10448AFF301
:1001600000800123237010BDF80200200000000071
:10017000E423010008B5034B1BB103490348AFF367
:10018000008008BD00000000FC020020E423010004
:10019000154B002B08BF134B9D46A3F5803A002159
:1001A0008B460F461348144A121A0CF004FA0F4BF0
:1001B000002B00D098470E4B002B00D09847002012
:1001C000002104000D000D48002802D00C48AFF3B8
:1001D00000800CF083F9200029000CF07FF80CF06F
:1001E00069F900BF000008000000082000000000BE
:1001F00000000000F8020020189A00200000000013
:100200000000000008B50121164804F0F7FA0121AA
:10021000154804F0F3FA012304220A21072006F00E
:1002200033FB012304220B21072006F02DFB0123C1
:1002300004220C21072006F027FB012304220D21B4
:10024000072006F021FB012304220E21072006F0DF
:100250001BFB012304220F21072006F015FB0020C1
:1002600008BD00BF4041050000550A0038B500F048
:10027000A3F80849084C0B68084A43F0807300252E
:100280000B602560136843F001031360BDE838403C
:1002900004F030BAFCED00E0041000E0001000E0D3
:1002A000014B1868704700BF041000E04FF0804217
:1002B00010B5164B1649174801245464D3F8B020E2
:1002C0002243C3F8B020D3F8E02042F00802C3F87C
:1002D000E0200A6842F480520A60D3F8E02022F05D
:1002E0000802C3F8E020D3F8B02022F00102C3F8DE
:1002F000B02006F0F9F90521112005F07BFC21461C
:1003000020460022BDE8104005F0BABB00400E4078
:10031000344005404CE4000010B500F04DF80446B0
:1003200003F0ACFDB4FBF0F0BDE810400AF052BFA2
:10033000064880470649074A074B9A42BEBF51F814
:10034000040B42F8040BF8E7FFF722FFE903000073
:10035000F023010000000020F8020020FEE700BFAB
:100360000048704700A24A040F4BD3F8943003F0C2
:100370000703032B14D0042B0FD0022B0AD00B4BF6
:100380001868094BD3F80031C3F304230133B0FBE1
:10039000F3F07047064B1868F3E7064B1868F0E770
:1003A0004FF40040EDE700BF00400E400800002081
:1003B000040000200C00002008B5FFF7D5FF054B16
:1003C000054AD3F80831C3F308230133B0FBF3F037
:1003D000106008BD00400E4000000020014B18686E
:1003E000704700BF04000020044B054A9A60D3F810
:1003F000882042F47002C3F88820704700ED00E0C6
:10040000000000004FF40040704700BF4FF47A70C6
:10041000704700BF014B1868704700BF0C000020F8
:100420000A4A13787BB910B5094C23680121117071
:100430002BB9002010BD54F8043F002BF9D0984789
:100440000028F8D010BD0020704700BF44030020F2
:1004500010000020124B1B78FBB1002802DD114B6D
:1004600018467047F0B4104C2C2303FB00440D4693
:1004700004F1200726460FCEBE4228606960AA60BC
:10048000EB60344605F11005F4D107CC0023286059
:100490006960AA601846F0BC7047044B1846704764
:1004A0004403002002001180140300200500118085
:1004B000134B1B780BB3134A1368002B01DD124852
:1004C0007047F0B4114D0446591C2C2004F120074C
:1004D00000FB0355116020686168A268E3682E463E
:1004E0000FC61034BC423546F5D120686168A26859
:1004F000334607C30020F0BC70470548704700BF73
:100500004403002040030020010011801403002058
:100510000500118080290FD10B49086810B402EB47
:1005200042020A4C00EB0212A24207D818600A608D
:1005300000205DF8044B70470548704700220548CD
:100540001A605DF8044B704718000020C8040020B2
:1005500002001180010011800048704704001180E2
:1005600008B500F041F900F0EDF8002008BD00BF2B
:100570007BB170B50C461E46002520460135302261
:1005800000210CF018F8AE4204F13004F5D100203F
:1005900070BD0020704700BF2DE9F04782B0DDE953
:1005A0000A570C4602200E21013500F041F9ADB288
:1005B000032000F01FF902AE2B0243F0010326F8DE
:1005C000023D0221304600F0E7F80FB3013507F194
:1005D000FF384FF0000A4FF6FF793021204600F037
:1005E000DBF8D04505EB0A031CBF1B0243F0FF03F9
:1005F0004FF002010AF1010A30460CBFADF8069037
:10060000ADF8063000F0C8F8574504F13004E4D1E5
:10061000012000F0EFF80E21022000F027F9002061
:1006200002B0BDE8F08700BF08B529B90846092126
:1006300000F01CF9002008BD0921002000F0F8F8A6
:10064000A02000F0D7F8002008BD00BFF0B58DB0A5
:1006500000F0CAF800F076F800F0D2F800231A464D
:100660000F21022000F0D6F800231A4618460E216A
:1006700000F0D0F800231A460E21022000F0CAF83C
:1006800000231A461846092100F0C4F800231A4630
:1006900018460B2100F0BEF801220B21002000F0CB
:1006A00003F9044610B120460DB0F0BD1E4B019376
:1006B0008023029304934FF4C0731C481C49039396
:1006C0001C4A1D4B1D4E07901D4F8DF815400225ED
:1006D00001A88DF814500697CDE90861CDE90A23E9
:1006E000FFF7E6FE04460028DDD1092100F0A0F85E
:1006F000A02000F07FF80E21284600F099F8032092
:1007000000F078F80CA8042320F82E3D294600F0CC
:1007100043F8012000F06EF828460E2100F0A6F8FC
:1007200020460DB0F0BD00BF5CE4000015050000E0
:1007300099050000710500006105000059050000E1
:100740002906000070B5104D104E0FCD86B06C46D6
:100750000FC495E8030084E8030001210C4804F06D
:100760004DF830460B4B0293694606F0CBFE0A2348
:100770007367B36F23F0072343F0407343F4C06300
:100780000020B36706B070BD74E4000000040140AF
:1007900000820400E0673500E9B170B5114E0546EE
:1007A0000C46012C304601D0EB070CD5013C15F866
:1007B000011B06F00DFF002CF3D10A4A13699906BC
:1007C000FCD5002070BD35F8021B023C06F006FF88
:1007D000002CE6D1F1E7034A13699B06FCD5002003
:1007E000704700BF0004014008B500F047FD00203D
:1007F00008BD00BF08B500F017FE002008BD00BF0F
:1008000008B50121024803F0F9FF002008BD00BF30
:1008100000550A003AB910B5C0B21446042206F0D9
:1008200033F8204610BD0148704700BF0100138017
:1008300038B5C4B2082C0D460ED940F20C41094817
:1008400003F05EFF04EB4404074B24012344012121
:10085000A9401960002038BD4FF6FF730B41DB073C
:10086000F0D4EAE7A0E400000C80084638B5C4B232
:10087000082C0D460ED940F2DD31094803F040FF47
:1008800004EB4404074B240123440121A9401960CF
:10089000002038BD4FF6FF730B41DB07F0D4EAE7C9
:1008A000A0E400000C8008442DE9F041044686B025
:1008B0000F462E482E4EDFF8CC800121154603F05E
:1008C0009DFF02224FF400610B2006F0F9FA294B3C
:1008D0009A6922F040729A619A6842F4006239463D
:1008E000E0B29A600023042205F0CEFF06F118035F
:1008F00093E8070003AB03C3002401211E481A80BC
:100900008DF8104003F07AFF03211C4805F072F9BE
:100910004046012103F072FF012703A824368DF819
:100920000C408DF80D408DF80F7006F017FB96E81F
:1009300003000B0C0190ADF80810384601A98DF8A2
:100940000A308DF8057006F0D5FA404604F040FAFA
:100950000B4BB0FBF5F5013D38465D659C6006F03C
:10096000F7FA204606B0BDE8F08100BF00650A0036
:1009700074E4000000600E4000050A000500240039
:1009800000200640A00914002DE9F043054685B07B
:10099000002800F086800121454803F02FFF2B68D6
:1009A000444A934200F0828002F58062934276D0FE
:1009B00002F58062934253D13F48404E012103F03B
:1009C0001DFF01230A226979287905F05DFF0123C3
:1009D0000A22E979A87905F057FF09274FF00108A5
:1009E0001DE003F08DFE04EB4403354A2C791B0116
:1009F0001A4408FA09F31360082C95F8059028D9D1
:100A000040F2DD31304603F07BFE04EB44042D4B15
:100A10002401234408FA09F2013F1A6027D02C79F7
:100A200095F805904FF6FF73082C40F20C413046C4
:100A300043FA09F2D5D804EB4403DFF884C01B0164
:100A4000D2079C4408FA09F3CBD5CCF8003095F8CE
:100A500005904FF6FF7343FA09F3DB07D5D4CFE7D0
:100A60005421194803F04CFE05B0BDE8F083286816
:100A70002E7D8DF800800323D5E9032443642B8960
:100A80008DF801805BBA9BB283646946CDE901248D
:100A90008DF80C6006F04CF805B0BDE8F0830B480B
:100AA0008BE73E21084803F02BFE74E7084884E7F3
:100AB000404105000090084000320900A0E4000019
:100AC0000C8008460C80084404E500000022090060
:100AD0000012090038B5054606F084F9012808D14E
:100AE000044C01E0013C04D0284606F051F80128EE
:100AF000F8D038BDE093040000207047FEE700BF47
:100B00004FF400534B600020704700BF0120704736
:100B10000020704770B57AB10D461646002404E0F7
:100B20000134A64205F8010B04D000F04DF8431C37
:100B3000F6D10CB1204670BD4FF0FF34FAE700BF8C
:100B4000044A05491368002B08BF0B46184410607F
:100B500018467047C8040020189A002070B5161E69
:100B600007DD0C468D1914F8010B00F031F8A54291
:100B7000F9D1304670BD00BF10B58EB003A900207A
:100B8000FFF768FC044610B120460EB010BD0123EB
:100B900001900B498DF8084001A88DF8093000F04C
:100BA000AFFA04460028EFD1064B1A6821460346E7
:100BB000906802220BF020FD20460EB010BD00BF51
:100BC000CC040020200100204FF0FF30704700BF10
:100BD000064B1B683BB110B504462146184600F091
:100BE000F7FA204610BD4FF0FF307047CC040020CC
:100BF00070B588B008ACADF80C1004F81C3D0421A9
:100C0000012602AB0494ADF80E10022403A9154688
:100C1000ADF814600693ADF81C40FFF75BFF18B108
:100C200000232B6008B070BD9DF809309DF80820A6
:100C300003F0FC0303EB022320462B6008B070BDD9
:100C4000F8B51C46E52306460F461546FFF7D0FFCC
:100C500002281DD12A6843F6095303FB02F35B0BFC
:100C6000A3F5BB53103B2B6039463046E0232246A8
:100C7000FFF7BEFF02280BD1226845F2CD5303FBDC
:100C800002F35B13A3F53743023B23600020F8BD5A
:100C90004FF0FF30F8BD00BF2DE9F04F85B006469C
:100CA000C46B006B03918F004FF000080125327D6B
:100CB0000346002871D0574B4FF0060C4FF0000E42
:100CC00003EB0809736CDB5913F80E3019F80300B5
:100CD0001AB1022A5DD8C043C0B2ACF10601CA10F5
:100CE00001F0070314F902A005FA03F310F0010F55
:100CF0005BB243EA0A0B01F101010ABF2AEA0303CE
:100D000004F802B0A35461454FEA5000E7D1306BBC
:100D1000327D0EF1010E704501F1060CD2D8013A78
:100D2000012A1ED80EEB4E0E4FEA4E03D91013F0D7
:100D3000070C04EB01000AD0605C05FA0CF2524289
:100D400002430833A3EB0C03625404EBE300B268E4
:100D5000D21AD208FF210BF02EFC337D022B21D0BA
:100D6000306BF36808F16408B8F5487F04EBD304EE
:100D70009DD1039BF16B746ADA0000EB40000825FB
:100D80004300CDE90025301D0022A04705B0BDE895
:100D9000F08F214805B0BDE8F08F013A012AE0D874
:100DA0002046D4E796F849C096F84A3096F848208D
:100DB0004FEAAC1C5B1103F004030CF0020C4CEA8C
:100DC000030CB368DB084CEAD21CC9D004EB030A5D
:100DD0000AEB430900231AF801ED18464EFA03F214
:100DE00012F0010F0CBF6246072203EB43010133EF
:100DF0008A40082B40EA0200F0D1020A030C544555
:100E000009F8030C09F8022C09F8013CA9F10309BF
:100E1000E0D1A5E718E50000040012802DE9F041BB
:100E200090F85430012B82B0044640D009D3022BF5
:100E300003D12D4802B0BDE8F081002002B0BDE82A
:100E4000F081457D002DF4D1436B002B40D0294625
:100E50002046FFF721FF636B0135AB42F7D82269CB
:100E6000B2EBC30F23D9237D012B35D029D3022B1D
:100E7000DFD1A268E06B02EB4202D208FF210BF047
:100E80009AFB656B2369ED009D4210D204F10408C2
:100E90000127A368E16BCDE900570022666A40464E
:100EA000B04701350028C5D12369AB42F1D8637D35
:100EB000002BBED1216D204602B0BDE8F041FFF706
:100EC000EBBEA268E06BD20800210BF074FBD8E700
:100ED0000369002BC7D1EDE7A268E06BD208FF21C0
:100EE0000BF069FBCDE700BF04001280436B012BC0
:100EF00070B504460DD00025616C226BAB00CE1896
:100F0000C85871680BF04CFB636B01355A1E954253
:100F1000F2D303F18043013B616C226B51F8230053
:100F200000210BF048FB636B0022013BC4E9132353
:100F300084F8542070BD00BFD0E90C2310B502FB2B
:100F400003F204460021006C0BF035FB0023C4E9DA
:100F5000133384F8543010BD2DE9F0470A2982B0CC
:100F600004463DD00D290D4635D0082927D01B2930
:100F700065D0DFF8848198F800301B2B44D00BF04B
:100F8000EFFA2844E16C4378226B13F097061CBFFC
:100F9000203DEEB29142236D03D301330022C4E918
:100FA0001323626B9A4252D9626C52F82320E36C8D
:100FB000D654E36C0133E36402B0BDE8F087037DEF
:100FC000012BD6D9FF220023A0F8482080F84A3010
:100FD00002B0BDE8F0870023C36402B0BDE8F0872B
:100FE000036D426B013300219342C0E91313F4D324
:100FF00090F83830002B3ED1436C002BEDD002B07E
:10100000BDE8F047FFF798BF424612F8016F002E87
:10101000FBD13948157081460BF08DFC374F824665
:101020005246394648460BF08EFC50B30136062E28
:1010300007F10407F4D10023C8F800309FE72E4BD6
:1010400000210322196080F854201D70C5E794F830
:10105000382042B9626C002AA7D02046FFF76CFF07
:10106000626C236DA1E72046FFF740FF636B626C63
:10107000013B236599E7FFF739FF636B013B23656C
:10108000ABE70322019084F8542038460BF053FC60
:10109000824506D0BAF1030F019B9ED1C8F80030FB
:1010A0009BE7B31E032B1CD8DFE803F0150D021FCE
:1010B000226BE36C013A934201D20133E3640023D3
:1010C000C8F8003089E7626B236D013A9342F6D28B
:1010D00001332365F3E7236D002BF0D0013B23653B
:1010E000EDE70023C4E91333E9E7E36C002BE6D016
:1010F000013BE364E3E700BFD004002038E80000D0
:101100002DE9F0412D4C94F855301BB12C4D28465B
:10111000BDE8F08188460646211D0068FFF79AF970
:1011200005460028F3D1637D002B45D1E769A1680E
:1011300004F13C030822201DB847002834D1A76AD7
:10114000A268E16B0823201DB84768BB23697F2B89
:101150002ED9A3687D2B2BD910273168194B1A4A39
:10116000676315272763377976796264236403F50B
:10117000A870043A216084F8387084F8396042F825
:10118000043F15338342FAD100230C48A4F84830B9
:1011900084F84A30FFF7D0FE012384F85530284602
:1011A000C8F80040BDE8F08105462846BDE8F0815A
:1011B000064D2846BDE8F081E063C7E7D40400206F
:1011C000050012800C6800205C690020020012807B
:1011D00038B590F85530002B40D0437DF3B190F8EE
:1011E0003820022380F85430C36CFAB1002B39D078
:1011F0000C290D46044625D090F839300BB10A2948
:1012000036D029462046FFF7A7FE94F85430032B2A
:1012100026D02046BDE83840FFF700BE90F83820C1
:10122000012380F85430C36C002ADFD1002BDFD1BA
:10123000036D002BDCD100230C2980F854300D46BF
:101240000446D9D1436C0BB1FFF776FE002384F836
:1012500054302046BDE83840FFF7E0BD064838BDB1
:10126000002038BD436B026D013B9A42C0D1E2E7DA
:101270000D21FFF771FEC4E7060012802DE9F04F43
:10128000614B624C93E8070087B003AB03C3D4F80B
:10129000B0101A80CA0740F1B0804FF000085C48D7
:1012A0005A4C03F02BFC032107465948D4F89050C0
:1012B00004F0A0FC574803F01BFCD4F8F030DB0727
:1012C00005F04005824640F191804FF0000904F09E
:1012D00025FF514B1C6814F0010483467DD01A6829
:1012E000019200225C6A4D491A605A6240F2FF7214
:1012F0001A624FF00043C1F8803101260023082212
:1013000003A88DF80E308DF80F308DF8102005F001
:1013100025FE4349404A4FF480530B600B685B0045
:101320000B6053B1906893689842FCD090680B684A
:10133000013BFDD893689842F0D00B68364A5B08B1
:101340000B60D1F800C04FF0080E5FEA5C0C15D0BE
:101350000B6843EA0C030B60906893689842FCD0DA
:1013600090680B68013BFDD89368984203D00B68E6
:1013700023EA0C030B60BEF1010EE6D1584604F0DF
:10138000D1FEBEB15146234804F0DEFA224B019A49
:101390001A605C62B9F1000F12D1032F16D1FDB1B2
:1013A000B8F1000F03D000211E4803F027FA07B060
:1013B000BDE8F08F304605F0CBFDB9F1000FECD061
:1013C0000021144803F01AFA032FE8D039461048D8
:1013D00004F010FC002DE3D102E0019426468DE7D5
:1013E0002A462946012004F04BFBD9E70121094890
:1013F00003F004FA4FF0010969E70121094803F0FD
:10140000FDF94FF001084AE750E8000000400E40A7
:1014100005002400A00914000020064000E100E0BF
:101420001C00002000050A0003460849002B0CD0D0
:10143000013B88221202003253430A68D80AD20ABA
:101440005043800901D00138FDD870471C000020AE
:101450001249134B134A086830B4C3F8070092E8E6
:101460000300114A114DDA614FF480621A625D6621
:10147000102220250E4C18609A66032000229980C5
:101480009D719A629C611C665A62DA621A67DA661A
:101490005A67C3E9040030BC704700BF68E8000029
:1014A0009C6900206CE800003C0500202C05002011
:1014B0005CE800002DE9F04FDFF8A89099F80030C3
:1014C00083B080468B469246002B47D04FEA4807B0
:1014D00007EB080609EBC606356FF36E9D421FD871
:1014E0005C1B544528BF54461CB9204603B0BDE8D8
:1014F000F08F002607EB080309EBC3032246596E61
:10150000584629440BF04CF825443444002CECD0C8
:10151000474409EBC70720463D6703B0BDE8F08F9D
:10152000D6E91914641B544528BF54462246294461
:10153000584601930BF034F8B26E019B2544AA4241
:10154000AAEB040A14BF5B1B0025534528BF534672
:10155000002BDBD0A34426461C46CBE7FFF778FFE1
:10156000B4E700BF9C6900202DE9F843DFF89090B4
:1015700000EB400409EBC4041646A36A656AAB425B
:1015800021D8276A7F1B07F1FF3E724530D973448B
:101590009A421CD8013000EB400009EBC009974289
:1015A000D9F8040028441CD8D61B88463A460AF0CD
:1015B000F7FF08EB0701D9F8040032460AF0F0FF04
:1015C0006662012004E0013B5B1B934202D20020D3
:1015D000BDE8F883013000EB400009EBC000406833
:1015E000284435440AF0DCFF65620120BDE8F88339
:1015F000013000EB400009EBC00CDCF80400EFE721
:101600009C6900200B781BB330B400230C4614F8FF
:10161000015F0133002DFAD1934228BF1346FE2B00
:10162000DCB210D9FF251A0A4470057082700330AD
:10163000441ECA1811F8015B04F8015F8A42F9D10F
:10164000184430BC704704700130002BF0D1F8E72B
:1016500003700130704700BF024B1B69C01A80083D
:10166000704700BF4009002010B504F04FFD0B4B40
:101670001B787F2B04460ED909490B7105310123D4
:10168000084801F8013B1B2200F06AF82046BDE83B
:10169000104004F03FBD0349F2E700BF3C090020C1
:1016A000680900206C09002070B52A4C237803B12A
:1016B00070BD0125257004F029FD0A222649064641
:1016C0002846FFF751FF304604F024FD0A2000F0C1
:1016D0003BF904F01BFD6268204B7F2A054606D9C2
:1016E00062F07F01D2097F2A03F8011BF8D8A168B4
:1016F0001A707F2903F1010306D961F07F02C9093D
:101700007F2903F8012BF8D8226919707F2A03F189
:10171000010306D962F07F01D2097F2A03F8011B79
:10172000F8D8022019181A70587018220B4800F0C7
:1017300017F8284604F0EEFC636A03B1984700F0FE
:101740005DF9236A13B15B6803B19847BDE8704047
:10175000FFF78ABF4009002074E800006C090020F0
:101760002DE9F041744D2B78012B84B006460C46D0
:1017700017460FD063B9714BD3F88420D3F8883063
:101780009A4202D0AB78002B40D004B0BDE8F08183
:10179000022B64D01F2F17D9FBB2A21B7F2AD1B214
:1017A00059D9D20961F07F0106F8012C06F8021C14
:1017B000023E7F2F0FD9FF0963F07F0306F8017CFB
:1017C00006F8023CB21E09E0EB69FB40DA07D2D40E
:1017D000172FFBB2E1D806F8013C721E5849EB689E
:1017E0000E68F31A7F2B06D963F07F01DB097F2B8C
:1017F00004F8011BF8D804F8013B11460120A21A95
:10180000FFF7B2FE00285DD0EE60B4E70124224667
:10181000204601A9AC70FFF74DFE002816DD9DF8AB
:101820000430042B75D051D9062B6FD060D3072B11
:1018300061D0802B75D101A922462046FFF73AFEE0
:10184000002803DD9DF8040000F0C2FA0023AB700D
:1018500004B0BDE8F08106F8011C013EA9E76A6901
:1018600001237F2A8DF804300DF1050306D962F0BB
:101870007F01D2097F2A03F8011BF8D830491A707A
:10188000D1F80080E968A8EB01017F2903F101028A
:1018900006D961F07F03C9097F2902F8013BF8D816
:1018A000134601AA03F8011B012011469A1AFFF7FB
:1018B0005BFE98B96A692B7801326A61012B7FF46B
:1018C0005AAF67E72B7801332B7054E7022B0CD00B
:1018D0002FD8A34225D1FFF7E7FEB7E72B78C5F84D
:1018E0000C80013BDBB22B70E8E700F0A1F8ADE71C
:1018F00000F0B6F8AAE7134B1C68002CA6D0E368EA
:1019000003B198472469002CF9D19FE7FFF7ACFE9B
:101910009CE72B6A002B99D05B68002B96D09847E8
:1019200094E71B0692D5012201A91046FFF7C2FDDC
:101930008CE700F063F889E7400900209C690020EB
:10194000041000E04C0A002038B5054604F0DEFB28
:10195000054904462A460846FFF702FF2046BDE82F
:10196000384004F0D7BB00BF6C09002070B50C46AE
:10197000064604F0CBFB7F2C05460A4906D964F0E5
:101980007F03E4097F2C01F8013BF8D8054801F8F2
:10199000014B3246FFF7E4FE2846BDE8704004F0F4
:1019A000B9BB00BF6C090020F8B50D4607461446C8
:1019B00004F0ACFB7F2D06460F4906D965F07F0287
:1019C000ED097F2D01F8012BF8D87F2C0D7001F166
:1019D000010106D964F07F03E4097F2C01F8013B83
:1019E000F8D83A4601F8014B0348FFF7B9FE3046F4
:1019F000BDE8F84004F08EBB6C09002008B50A4B26
:101A00001B6A4BB11B683BB19847BDE808400A46CA
:101A100001460D20FFF7C8BF044B0C201968BDE834
:101A20000840FFF7A3BF00BF40090020041000E0FA
:101A300038B5094C04F06AFB2378054633B10749F1
:101A40000B220846FFF78CFE002323702846BDE8D2
:101A5000384004F05FBB00BF400900206C09002043
:101A600070B51D4C04F052FB62681C4B7F2A054682
:101A700006D962F07F01D2097F2A03F8011BF8D84A
:101A8000A1681A707F2903F1010306D961F07F0272
:101A9000C9097F2903F8012BF8D8226919707F2A18
:101AA00003F1010306D962F07F01D2097F2A03F80E
:101AB000011BF8D8022019181A705870182207480C
:101AC000FFF74EFE284604F025FB636A13B1BDE81C
:101AD0007040184770BD00BF400900206C0900200D
:101AE000F8B506462F4F304C04F010FB33683A69C6
:101AF0009B1A9B087F2B0546204606D963F07F0280
:101B0000DB097F2B00F8012BF8D80370B3687F2B1B
:101B100000F1010006D963F07F02DB097F2B00F89A
:101B2000012BF8D800F8013B20227168FFF76AFD0D
:101B3000092201461C48FFF713FE3B693268D21A9E
:101B400092087F2A234606D962F07F01D2097F2AB4
:101B500003F8011BF8D81A70F2687F2A03F1010319
:101B600006D962F07F01D2097F2A03F8011BF8D859
:101B70001A7030697F2803F1010306D960F07F02F3
:101B8000C0097F2803F8012BF8D800241870991C8D
:101B900005485C701522FFF7E3FD2846BDE8F840D4
:101BA00004F0B8BA400900206C09002010B504F018
:101BB000ADFA0D4B1B68C3F308037F2B044610D905
:101BC0000A4963F07F020A71DB090531084801F810
:101BD000013B0222FFF7C4FD2046BDE8104004F09F
:101BE00099BA0349F2E700BF04ED00E0680900205C
:101BF0006C09002010B504F089FA05490446032257
:101C00000846FFF7ADFD2046BDE8104004F082BA5B
:101C10006C09002010B504F079FA05490446122237
:101C20000846FFF79DFD2046BDE8104004F072BA5B
:101C30006C09002010B504F069FA05490446112228
:101C40000846FFF78DFD2046BDE8104004F062BA5B
:101C50006C09002038B5044604F058FA0C4B0D49C5
:101C60001B69E31A9B087F2B054606D963F07F02A8
:101C7000DB097F2B01F8012BF8D8064801F8013B5E
:101C80000822FFF76DFD2846BDE8384004F042BA4F
:101C9000400900206C09002038B5044604F036FAEB
:101CA0000C4B0D491B69E31A9B087F2B054606D98F
:101CB00063F07F02DB097F2B01F8012BF8D806487F
:101CC00001F8013B0422FFF74BFD2846BDE83840F0
:101CD00004F020BA400900206C09002038B5044601
:101CE00004F014FA0C4B0D491B69E31A9B087F2B77
:101CF000054606D963F07F02DB097F2B01F8012B33
:101D0000F8D8064801F8013B0622FFF729FD2846CE
:101D1000BDE8384004F0FEB9400900206C090020FD
:101D200070B504460D4604F0F1F9134B06461869E8
:101D3000124B201A80087F2806D960F07F02C00964
:101D40007F2803F8012BF8D87F2D187003F10103C9
:101D500006D965F07F02ED097F2D03F8012BF8D835
:101D60001946064801F8015B0722FFF7F9FC3046E7
:101D7000BDE8704004F0CEB9400900206C09002095
:101D800070B504460E4604F0C1F90F4B1B69E31A07
:101D90009B087F2B05460D4806D963F07F02DB09BF
:101DA0007F2B00F8012BF8D8314600F8013B802248
:101DB000FFF728FC192201460448FFF7D1FC28460A
:101DC000BDE8704004F0A6B9400900206C0900206D
:101DD000F8B51E4B1C6884B3064678B3246964B317
:101DE000002501E0246944B30135B542FAD104F07D
:101DF0008DF97F2D074626D9154801260571053036
:101E00000670A3687F2B00F1010006D963F07F0202
:101E1000DB097F2B00F8012BF8D800F8013B80226A
:101E20002168FFF7EFFB162201460A48FFF798FCEE
:101E30003846BDE8F84004F06DB9F8BD04F066F925
:101E400007460448DCE7EEB20248D9E74C0A002016
:101E5000680900206C09002070B5064604F056F9A8
:101E60000A4C0546314620468022FFF7CBFB01464F
:101E70000122002320460A704B701A220231FFF71C
:101E80006FFC2846BDE8704004F044B96C0900209E
:101E9000F0B5124F3C681F2C87B019D8104D019037
:101EA00004EB8406B60001343C60AC19844604930C
:101EB0000C98E3600C9B0590616001A8227223617D
:101EC000CDE9021245F806C0FFF70AFE07B0F0BDE3
:101ED0000448FFF7C1FF07B0F0BD00BF540A00205F
:101EE0005816002080E80000024B834201D0FFF723
:101EF000F5BE7047E890002010B504210446FFF7B6
:101F00000FFF2046BDE81040FFF7E8BE034B8342B9
:101F100001D0FFF7C1BEFFF78DBE00BFE8900020E3
:101F2000034B834202D00421FFF7FABE704700BF83
:101F3000E890002010B4054C844203D05DF8044BB7
:101F4000FFF7A6BF5DF8044B704700BFE890002084
:101F500070B50C460646114620461546FFF710FFA1
:101F60002046FFF779FB01463046FFF7FFFC0A4A9F
:101F70001368FF2B0BD803EB4300800007490133A4
:101F80000C50014400201360C1E9015070BD0448A9
:101F9000BDE87040FFF760BF500A0020580A0020DB
:101FA000D0E8000000BA704740BA80B2704700BF66
:101FB00083891B0706D18169138B090703D423F09A
:101FC00004031383704743F004031383704700BF77
:101FD00083891B0707D183692BB9138B590703D555
:101FE00043F003031383704743F0010313837047E7
:101FF00082B2B2F5007F10D20012A821084B01FB7B
:1020000000F100EB4000595CC0EBC000D2B203EB22
:10201000C000914218BF002070470020704700BFE9
:10202000446A002030B484B2B4F5007F0ED2A823F5
:10203000001203FB00F0074B1D5CE4B2A542034411
:1020400004D1C3E92412002030BC70476FF01500A2
:10205000FAE700BF446A0020F0B484B2B4F5007F10
:1020600027D20012A82606FB00F3134DEF5CE4B262
:10207000A7422B441DD171B15C8908684968C3F837
:102080009E1044F00101C3F89A005981A3F8A220E0
:102090000020F0BC70479A2210FB062250195151C3
:1020A000416001815A8922F0010208465A81F0BC40
:1020B00070476FF01500ECE7446A00200B0C1B041E
:1020C00010B5044633B911F47F4F0AD101700123D2
:1020D000184610BD0846FFF765FF04232060184628
:1020E00010BD88B2FFF760FF02232080184610BDA4
:1020F000F8B583B2B3F5007F13D20012A82505FB13
:1021000000F2094EB75CDBB29F4206EB020408D135
:1021100020460C30FFF7D2FF002384F88C001846CD
:10212000F8BD6FF01503FAE7446A0020802A1DD835
:10213000F8B584B2B4F5007F15D20012A82707FBCA
:1021400000F50C4E16F805C0E4B2A44535440AD19A
:1021500085F88C200AB91046F8BD28460C300AF0E4
:102160001FFA0020F8BD6FF01500F8BD6FF0790080
:10217000704700BF446A002038B5054608460C4643
:102180000AF0D9FB802806D8C2B221462846BDE80D
:102190003840FFF7CBBF6FF0790038BDF0B582B2A1
:1021A000B2F5007F87B072D20512A82404FB05F4B3
:1021B000384E335DD2B29342344468D1D4F89000A3
:1021C00010B1606800F036FE84F89800A82404FB83
:1021D00005646389DA072BD413F0020FB4F8A43036
:1021E000ADF80A300CBF082309238DF809008DF8DB
:1021F00008300422A82303FB05F7F419234694F8BA
:102200008C1060680091002101910C3302A900F04C
:1022100051FE054648B994F8983053BB63895B0773
:1022200003D4F35D60600133F355284607B0F0BD79
:102230002346172253F89A1F8DF809005B68B4F8FB
:10224000A200CDF80E308DF80820CDF80A10FFF767
:10225000ABFE6389B4F8A420ADF8152013F0020F8B
:102260000CBF02230023ADF812008DF814300F22AA
:10227000C0E701F0BFF8638913F0010F0CBF022320
:10228000B42313FA80F02081284607B0F0BD6FF028
:102290001505CAE7446A0020F8B50A60F024002258
:1022A0004B600C724A810D46069F00F027F906B27A
:1022B000002E1CDB044627B13A8939463046FFF729
:1022C000CBFEA4B2B4F5007F13D2A823321203FBD5
:1022D00002F2094B995CE4B2A142134409D1074AC6
:1022E0003046C3E92425BDE8F840FFF757BF304624
:1022F000F8BD6FF01500F8BD446A00204D260000BF
:1023000038B310B5038F82B0044629B913F0200307
:102310000AD0002002B010BD43F01003038713F071
:1023200020034FF00901F4D10B4A009301EB410166
:1023300002EB8102234609492046FFF7ADFF002842
:10234000E8D1238F23F01C0343F02203238702B03C
:1023500010BD6FF01500704724E90000946B002059
:102360002DE9F04188B001F045F8284B1A78C5B244
:10237000AA4241D0002168462022254C1D700E46FD
:102380000AF019F948F20F0304F5A877ADF80C30FC
:10239000B0460225636833B301F02CF82389C31AD1
:1023A0001A046846C5F102051DD42378D4F89010AC
:1023B000626843EA05250136ADF8085061B1D4F8EA
:1023C00094300092B4F8A4200193ADF80A20884715
:1023D000012808D062682378C4F804800133237090
:1023E000138FDB060DD4A834BC424FF00105D1D1C8
:1023F000304608B0BDE8F0810026304608B0BDE8A0
:10240000F08110460121FFF77BFFECE7D91800208F
:10241000446A002030B108B5FFF7A2FF034B93F9DF
:10242000080008BD6FF01500704700BF946B0020D6
:1024300060B1018FCA0705D441F0010211F0020119
:10244000028701D000207047FFF75ABF6FF01500D8
:10245000704700BFF8B5002848D0002946D0254D68
:102460000F4629780446C1B1238FDB071FD5224BC5
:102470005E6806B3D3F8AC2082B32B78022B32D03F
:1024800002232B70FFF76CFF39462046FFF7E2FF6F
:10249000012306462B703046F8BD01234FF4A87285
:1024A00015482B700AF087F8238FDB07DFD420460E
:1024B000FFF7BEFFDBE71D462846A02210F8083BC9
:1024C00000211E430AF077F86C6000F093FF0230A1
:1024D00028813B88A5F8A4303046F8BD03F1A80553
:1024E0004FF48076E8E76FF01B06D4E76FF015062F
:1024F000D1E700BFD8180020446A00204B892DE99D
:10250000F04703EB4303D1F800809C000E4608EB34
:102510000407002A41D0B2F9085071687E89FB781F
:10252000A8B2B0F5007F01EB060C13D245F30F29DA
:10253000A82202FB09F2DFF8B0E01EF802A0C0B248
:102540008245724430D0043B032B3FD8DFE803F0D0
:102550001F1A0915043B032B0CD8DFE803F01813EE
:10256000020E3B7A022B3CD0042B38D0895D2846E2
:10257000FFF7BEFD2846BDE8F087397A2846FFF709
:10258000B7FDF7E761462846FFF7F6FDF2E73A7A2E
:1025900061462846FFF7CAFDECE74146FFF75AFFC0
:1025A00000280546B9DAE6E738F80440A2F8A44066
:1025B000043B032B0AD801A252F823F08F25000018
:1025C00085250000632500007B2500008245D1D1D0
:1025D000A82303FB09EE00238EF88C30CAE7895943
:1025E000C5E7895BC3E700BF446A002010B4148FBD
:1025F00024F020039BB2138771B1B0F90C100029AD
:102600000ADB43F004032007138708D404F0100406
:102610008CB95DF8044B704743F008031387118BA6
:10262000C90704D5908A4FF6FE71884209D003F09D
:102630001004002CEDD0104601215DF8044BFFF78B
:102640005FBE43F010031387F5E700BF82892DE9D1
:10265000F041446813040546216848D463894789DA
:1026600003EB43039B00CE18CB5ABB4209D07368DF
:10267000FB22227213B16268002198470020BDE856
:10268000F08112F00F01076812D172896068F37847
:1026900000EB020863B1022B5ED9032B08D1337A19
:1026A000022B6FD0042B6AD0012B01D1AB6983546C
:1026B00073681BB131466268284698476389216870
:1026C00001339BB203EB4302920063818B5A01EB0F
:1026D0000208EBB9D8F8043000262672002BCDD0C2
:1026E00028466268414698473046BDE8F0810B882D
:1026F0008C2222721BB131F80C3F002BFBD14B68AE
:10270000002BBBD02846626898470020BDE8F081C6
:1027100038462A462146FFF7F1FE07B206463846FC
:10272000FFF73CFD98F80330082B01D00120A6E705
:10273000B6B2B6F5007FCDD2A8233F1203FB07F750
:10274000124BDA5DF6B2B24203EB0701C2D101329D
:10275000DA5500234B60BDE7327A404609F02BFF83
:10276000337A2A69F1789A4228BF1A4601291CBF98
:102770009B1A98444046696909F012FF98E7AB69D3
:10278000835095E7AB69835292E700BF446A00200B
:10279000002900F0AA802DE9F0430B78882B8DB03A
:1027A0001CD0972B15D1524CB1F80CE063688E7B8E
:1027B0009842A2F10F0501F10F074FF0000C4A7883
:1027C0001AD0D4F8AC30984227D000200DB0BDE824
:1027D000F0836FF015000DB0BDE8F083444CB1F804
:1027E00002E063680E799842A2F1050501F1050740
:1027F0004FF0010C4A78E4D194F898309342E0D13C
:102800006389DB4303F001036345DAD1B4F8A430F4
:102810007345D6D14FF0000811E094F8403193424F
:10282000D3D1B4F8B230DB4303F001036345CCD11C
:10283000B4F84C317345C8D12E4C4FF00108D4F890
:10284000902002B30B468146BCF1000F2DD000232F
:102850000B932378D4F89410B4F8A420CDF81090FA
:1028600043EA0823ADF81C60CDE90857ADF81830ED
:102870000591ADF81A2075B90A95D4F8903004A8DE
:10288000984701281ED02378002001332370606010
:102890000DB0BDE8F083022D22D0042D1BD0012DF8
:1028A00016D04FF0FF330A93E7E751F8020F49685B
:1028B00001AA03C25889FFF777FB01ABADF80C0002
:1028C0000B93C6E700F096FD05302081002082E7DB
:1028D0003B780A93D1E73868FFF764FB0A90CCE7AE
:1028E0003888FFF761FB0A90C7E76FF01500704763
:1028F000446A0020EC6A002071B108B54B78102BB7
:1029000005D003F0FB03022B01D0002008BD0121FC
:10291000FFF7F6FC002008BD6FF01500704700BF00
:10292000F8B548B341B300F12006044608460D4609
:102930000AF001F80746304600F04AFEBB1C83420D
:1029400017DA02220E49304600F0C8FD3A46294601
:10295000304600F0C3FD01220A49304600F0BEFDBA
:10296000082384F83B3000F025FD0023E06318467F
:10297000F8BD6FF01B03FAE76FF01503F7E700BF30
:10298000B4E90000B8E90000002800F08C800029BC
:1029900000F089802DE9F84F90F83B40073C012C6E
:1029A00076D881469A4617460E46002B46D0D3F875
:1029B000008008F10104A24201EB08056BDD09F17A
:1029C000200B06E00D2826D0A74205F8010BB046E3
:1029D00043DD584600F0D4FD0028264604F10104EA
:1029E000F0DA00F0E7FCD9F83C30C01AB0F5FA6F25
:1029F0003DD900232B70BAF1000F46D099F83B3037
:102A0000CAF80080072B6FF0730010D1032389F8F8
:102A10003B30BDE8F88F00232B70BAF1000F01D0D6
:102A2000CAF80080002099F83B30072BEED0082B25
:102A3000EFD1062389F83B30BDE8F88F084609F04E
:102A40007AFF441CA742804606EB0005B7DC06F877
:102A500000A06FF01B00BDE8F88F00232B70BAF1C7
:102A6000000FF6D0CAF800806FF01B00F3E70023D8
:102A70002B70BAF1000F05D0CAF800806FF00A0081
:102A8000BDE8F88F6FF00A00C3E76FF07300CAE784
:102A90004FF0FF30BDE7002301F808306FF01B0056
:102AA000CAF80080B5E76FF01500704778B10229C9
:102AB0000DD94B1C0B400AD18160037143718371A6
:102AC000C371037043708370C370184670476FF012
:102AD000150070474368C21801331173826801689A
:102AE000134099421ABF436001200020704700BF85
:102AF000036841689942024606D091681844013340
:102B00000B40007B136070474FF0FF30704700BFF1
:102B10004368026880689B1A1840704703684268DF
:102B20008068013B9B1A1840704700BF43680360F0
:102B3000704700BF2DE9F0410746064657F80C4B99
:102B40004068B568013C241A2C40944205F1010507
:102B5000A5EB000528BF1446A542384488460AD391
:102B600000254146224609F01BFD73682344601985
:102B70007360BDE8F0812A4609F012FD0023A844E5
:102B8000641B384633717371B371F371E9E700BFA9
:102B9000F8B50B46446801688568641A2C40944275
:102BA00005F10105A5EB010528BF144600F10C074E
:102BB000A5420646394409D300251846224609F0A5
:102BC000EFFC3368234460193360F8BD2A46184689
:102BD00009F0E6FC00220346641B2B4439463270A0
:102BE0007270B270F270E8E7F0B583B002AC002307
:102BF00044F8043D0D46074616460B702346324600
:102C000029463846FFF7C0FE10F10B0FF6D000281A
:102C1000A8BF019803B0F0BD2DE9F04700F1200AEC
:102C200005460E465046012100F042FD00F0C2FB71
:102C300041F28737044600F0BDFB001BB842FAD9C9
:102C4000504600F0EFFC504600F0DAFC4FF416510D
:102C5000504600F0F9FC00F0ADFBDFF87480082767
:102C600081460AE009F081FE48BB00F0A3FB40F674
:102C7000B733A0EB090098421AD800F09BFB31460D
:102C8000E86385F83B706C222846FFF7ADFF0446E9
:102C9000012CA0F1020041463044E3DC00F08AFB45
:102CA00040F6B733A0EB090098426FF07304E4D903
:102CB0005046002100F0FCFC2046BDE8F0870024CF
:102CC0005046002100F0F4FC2046BDE8F08700BF2C
:102CD0004CEA000010B50C46FFF786FF002807DB22
:102CE0002046044909F015FE002818BF6FF00400C3
:102CF00010BD00BF4CEA000038B50C4605460D4932
:102D0000FFF70EFE214628466C22FFF7E3FF041E64
:102D100009DB00F04FFB044600F04CFB001BB0F554
:102D20007A7FF9D3002405F1200000F07BFC2046D7
:102D300038BD00BF50EA00002DE9F041CEB00028B8
:102D400067D000F120050446284600F0BFFB074687
:102D500000285ED133A92046D4F82080FFF75CFF1D
:102D6000061E0BDA33A92046FFF7C6FF4146284668
:102D700000F06AFC30464EB0BDE8F081264920469E
:102D8000FFF7CEFD6C2233A92046FFF72DFF061E6C
:102D9000E8DB224933AA01A809F010FD01A809F0D7
:102DA00071FB1F4933A809F0B4FD08B90126D9E722
:102DB0001C492046FFF7B4FD6C2233A92046FFF7DB
:102DC00089FF061ECEDBDFF868C0BCE80F0001AE4D
:102DD0000FC6BCE80F000FC69CE8030046F8040BC2
:102DE00001A8317009F04EFB0F492046FFF798FD0E
:102DF0006C2233A92046FFF76DFF061EB2DB1AA82E
:102E000033AA0A4909F0DAFC1AA83E4609F03AFB4F
:102E1000A8E76FF01506ADE7BCE90000C0E90000C7
:102E2000DCE90000F4E9000034EA000038EA0000C0
:102E30000CEA0000024660B190F83A30013313F01A
:102E4000FF0009BF012382F83A0082F83A301846A1
:102E50007047704748B3F8B5044617461D460E46FE
:102E600000F0B8FA40F23C620021204609F0A3FBD2
:102E7000A7621DB1656200212046A8472546336838
:102E800045F8203F3168284600F01AFD40B14FF464
:102E90000043074A23872B23226484F84430F8BD7B
:102EA0002846012100F020FDF1E76FF01500704782
:102EB000E80364002DE9F04FA1B0FF248DF81B401A
:102EC000BDF8A870002877D000F1200504462846F8
:102ED00089461646984600F0F9FA00286CD1B4F9F4
:102EE0003830002B61DB0123B9F1000F3BD0B8F182
:102EF000000F33D07EBB002F38D00022059216463B
:102F000004972846039300F063FB8246284600F0AE
:102F10006BFBDDE904239C18039B834604340BB14F
:102F2000A24528DA3B4809F04FFB224653463A496E
:102F3000CDF800B007A809F041FCA4EB0A0407A8EB
:102F400009F0A0FA5C45D4BF6FF00F006FF0790074
:102F500021B0BDE8F08FCDE90476D2E736B1CDE9F6
:102F600004864746CDE7B8F1000FC4D16FF03C00AE
:102F700021B0BDE8F08FB8197E2380B28DF81C30E7
:102F8000FFF712F80322ADF81D0007A9284600F04C
:102F9000A5FA46BB9FB9284601220DF11B0100F09E
:102FA0009DFA002021B0BDE8F08F284600F0BCFC5F
:102FB00010F1160F034697D16FF01500C8E7049A79
:102FC0004146284600F08AFA7B1E9BB201339DF8E9
:102FD0001B20434418F8011B521A4345D2B2F9D1C1
:102FE0008DF81B20D7E7059A4946284600F076FA67
:102FF000731E9BB201339DF81B204B4419F8011B33
:10300000521A4B45D2B2F9D18DF81B20002FC2D0F5
:10301000D5E700BF54EA000060EA0000038B1029E6
:1030200010D8DFE801F0090913090F0F170F0F0F70
:103030000F0F0F0F0F0F110023F003034FF6FE7257
:103040009BB282820383704743F0020343F0010383
:1030500003837047002243F0030382820383704797
:1030600000283DD000293BD0002A39D02DE9F84F67
:1030700091F800A091F801B0BAF18A0F814690460C
:103080000E4623D0184C2378FF2B26D0002505E0D0
:103090009A450AD014F80C3FFF2B11D005F1010C12
:1030A000424631464846002BF2D163785BB9D4E9F9
:1030B00001735FFA8CF5B84714F80C3FFF2BEDD184
:1030C0002846BDE8F88F9B45E4D1F0E7064C594609
:1030D000FFF7A4FF2378FF2BD8D10020BDE8F88F9D
:1030E0006FF01500704700BF101D01002DE9F0437F
:1030F00083B0002800F09F8000F120050446284698
:1031000000F0E4F9002840F0968094F84630064636
:103110000746032B03D8DFE803F00483471684F83F
:1031200046700DF1070803E09DF807307E2B5FD055
:1031300001224146284600F0F7F90128F4D0304634
:1031400003B0BDE8F083B4F84A80B4F84830414693
:10315000A3EB080303F1010804F14C09424649447A
:10316000284600F0E1F980455DD1B4F8482084F8A4
:1031700046704FF6FF739A42D3D002F1010CCC4453
:103180004946FF2311F8010B1B1A8C45DBB2F9D11C
:10319000002BC6D1013649462046FFF761FF052EB8
:1031A000CDD094F84630B4E70DF10708012241462E
:1031B000284600F0B9F90028C1D0B4F848309DF88D
:1031C00007100B449BB29A1E92B240F2EC5082421E
:1031D000A4F8483004D97E291ED084F84670A7E7A9
:1031E00003220021A4F84A7084F846208846AFE7FD
:1031F00084F8460001224146284600F095F900284F
:103200009DD09DF807307E2BCBD01B020222A4F864
:10321000483084F84620C9E7012384F84630E9E7BE
:103220000DF10708E6E7002889DDB4F84A301844B4
:10323000A4F84A0083E76FF0150680E788B1038F92
:103240001A0610B5044609D443F080030387FFF73C
:103250004DFF238F23F08003238710BD6FF00F00F5
:1032600010BD6FF01500704770B5ADF50A7D0028F0
:1032700000F095800468002C00F09180828A40F272
:10328000DC539A4200F288800546202320468DF8C0
:103290000830FFF7CFFD6B688DF809006889CDF81D
:1032A0000A30FEF781FEADF80E002889FEF77CFE9D
:1032B000AA8A297BEB89ADF81000FF2A8DF812103D
:1032C0008DF8133051D92D690022691E12AB11F807
:1032D000010F98540132EE2AF9D1002183F8EE1043
:1032E00095F8EE0058B1EE35A2F1EE018AAE314408
:1032F000013201F8F00C15F8010F0028F4D1294D26
:103300008AA90A442978002602F8F06CB9B9EE239C
:103310000191204602A900930C224EABFFF7CAFD93
:1033200021490246044605A809F048FA05A809F013
:10333000A9F801232B7020460DF50A7D70BDEE2201
:1033400002A90092019620460C22FFF7B3FD17490F
:103350000246044605A809F031FA05A809F092F8DA
:1033600020462E700DF50A7D70BD2B69009200225B
:10337000019202A920460C22FFF79CFD044600BEE4
:103380000B49224605A809F019FA05A809F07AF8B0
:1033900020460DF50A7D70BD6FF00604CBE76FF097
:1033A0001504C8E704010020BCEA000088EA000018
:1033B000F0EA000000B589B002A807F0AFFB9DF865
:1033C00008301BB1019001F093F9019809B05DF844
:1033D00004FB00BF00B587B0684600F0C7FA9DF84F
:1033E00000301BB1152B01D001F082F907B05DF858
:1033F00004FB00BF00F032BB10B50D4C2068FFF796
:1034000087FB552803D80B4B4FF400521A602068F5
:10341000FFF784FB042803D8074B4FF400521A60CF
:10342000064B1A68536E43F004035366002010BD28
:10343000F41A0020CC800844CC80084624000020E8
:103440000D4838B5C36C026C1340836403691B06D6
:1034500000D438BD094C256804F0B4F8014628466C
:10346000FFF738FB2068FFF759FB0428F1D8044B1D
:103470004FF400521A6038BD00000140F41A0020D9
:10348000CC80084610B50E4CE36C226C1340A3644C
:1034900023695A0606D50B4B1B7823B1E36C23F046
:1034A0000203E36410BD084B1868FFF721FB431CBF
:1034B000F4D0C1B22046BDE8104004F089B800BF86
:1034C00000000140F81A0020FC1A002020B100681A
:1034D000B0FA80F04009704701207047B8B108B5D4
:1034E00003688BB1002A15DB0C4B1B7893B90C4B8E
:1034F000FF2AA8BFFF221868FFF71CFB094AD36CFC
:1035000043F00203D36408BD6FF0150008BD6FF0EF
:10351000150070476FF0040008BD00BFF81A0020C6
:10352000FC1A00200000014038B580B1036873B177
:10353000002A1BDB0F4DFF2AA8BFFF222868FFF7D8
:1035400027FB0D4B1B7804462BB9204638BD6FF086
:103550001504204638BD2868FFF7DAFA5528F4D854
:10356000064B4FF400521A60204638BD6FF0040439
:10357000EBE700BFF41A002020000020CC800844B4
:1035800038B568B103685BB10E4D2868FFF7B0FA33
:10359000431C044613D00C4B1B782BB9204638BD76
:1035A0006FF01504204638BD2868FFF7B1FA55289A
:1035B000F4D8064B4FF400521A60204638BD6FF025
:1035C0003C04EBE7F41A002020000020CC800844E3
:1035D00008B1036813B96FF015007047014B186804
:1035E000FFF79CBAFC1A002008B1036813B96FF00A
:1035F00015007047014B1868FFF78ABAFC1A0020C3
:1036000058B108B5036813B96FF0150008BD044B35
:103610001868FFF78BFA002008BD6FF0150070479F
:10362000FC1A002058B108B5036813B96FF01500F3
:1036300008BD044B1868FFF779FA002008BD6FF049
:1036400015007047F41A002040B308B5036813B39F
:10365000B1F5614F0AD012D9B1F5613F06D020D93A
:10366000B1F5E12F02D0B1F5612F11D100230A4647
:10367000016019460D4803F09DFD002008BDB1F51D
:10368000964FF3D0B1F5164FF0D0B1F5165FEDD0EF
:103690006FF0040008BD6FF0150008BD6FF0150055
:1036A0007047B1F5E13FE1D0F2E700BF0000014013
:1036B00000283AD038B50368D3B10C46D9B90422F2
:1036C000104601230A2103F0DFF819491948096857
:1036D000194B1A4A4FF4806505601C704B6F43F01C
:1036E00002034B67D36C43F002032046D36438BD1A
:1036F0006FF0150038BD104B104901221A70CB6CC9
:10370000042223F00203CB64104600230A2103F0B5
:10371000BBF8074B0A491A68536F4FF4806423F0D3
:103720000203536700200C6038BD6FF0150070472E
:1037300024000020CC800846F81A00200000014038
:10374000CC8008442DE9F0414F4F3B78012B8EB0DF
:10375000064600F08D804D4B4D481860FF21FFF765
:10376000A5F94C4B4C4A4D4D13601846FF21FFF70D
:103770009DF90121112002F0E7F801214848DFF806
:103780003C8101F03BF80121464801F037F8012166
:10379000454801F033F80422104600230D2103F0C0
:1037A00073F8424B01224FF4005119601046002378
:1037B0000B2103F069F8012302220B21042003F0FE
:1037C00063F80FCD07AC0FC495E807000EAB0025DA
:1037D00003F81C5D84E807001946D8F8000003F0E0
:1037E0002FFED8F80000324A324911234367836F15
:1037F00023F4E06323F007038367C36F23F0070319
:103800004FF0040E4FF0400C43F005038024C367D3
:10381000C1F848E0C2F880C1C2F88041CB6C43EAED
:103820000E03CB640521C2F800C0146003F072FDE2
:1038300029463046FFF73CFF0EB1336843B91D4BB4
:1038400002225A643B78012B08D00EB0BDE8F0810B
:10385000194B01221A70FFF7CFFDF0E701A804F021
:103860000BF89DF80430002BEFD000F041FFECE79F
:1038700001A803F099FF9DF80430002B3FF46BAFD3
:1038800000F036FF67E700BFD58B0020F41A002058
:10389000DC180020E8190020FC1A002024EB0000AE
:1038A0004041050000550A0000720400CC80084425
:1038B00000E100E000000140200000202400002082
:1038C00078B1026838B5044612B96FF0150038BDFA
:1038D0000D46FFF737FF29462046BDE83840FFF781
:1038E000B3BE6FF01500704790B1036883B10B4B06
:1038F000197081B90A4B30B41A680A4C536E4FF4F0
:10390000005503F00B0308465366256030BC704732
:103910006FF015007047FFF76FBD00BF200000205B
:1039200024000020CC80084408B1036813B96FF06C
:1039300015007047024B1868B0FA80F040097047D4
:10394000AC09104310B5084C00F098FA002100F0C3
:1039500079FA02F0DBFB22681368591C1CBF0133A3
:10396000136002F0D7FBEFE70C1B00202DE9F041BC
:10397000054682B008B900F0BBFEDFF8DC802A48BB
:10398000D8F80810294F2B460C2200F09BFC2C780D
:10399000386014B102B0BDE8F0812549254A264BB4
:1039A000264E046084600C702046214614801C6002
:1039B000348000F023F921460646102000F01EF95D
:1039C00021460640112000F019F9F6B206402146C2
:1039D000122000F013F9304001280FD0184A19497D
:1039E0009269194B6A604FF4BA72C5E903129C6977
:1039F000164BAC60062028706B61FEE700952346ED
:103A0000D8E9002112483C6800F0FEF82A7860608E
:103A1000002ABFD13B680F49CDE90025586818231B
:103A200000F068F9B6E700BF40EB00000C1B002077
:103A3000001B0020041B0020081B0020021B00208C
:103A400008F000004CEB0000BCED000078EB00003B
:103A500068EB0000453900002800002010B502F096
:103A600055FB034B1B681C6802F054FB204610BD3D
:103A70000C1B002000230360704700BF38B50F4BBC
:103A800001221A700446B0B10D4A0E4B12680E495D
:103A90001D6862600D4B63610020B7222070C4E98D
:103AA0000312A56000F0FEFB00F0EEF92046BDE831
:103AB000384000F095BD00F01BFEE5E7141B002028
:103AC00008F00000BCED000084EB0000A8EB000053
:103AD000014B1868704700BF101B00202DE9F04112
:103AE000044684B0002870D0394A3A4B12683A49EB
:103AF0001D686260394B6361002040F6B50220709A
:103B0000A560C4E90312204603F04EFE237813B9E2
:103B1000334D2B682BB1204604B0BDE8F04103F0D3
:103B2000ABBEFFF7D5FF234601460646B4222D481B
:103B300000F0C8FB23782860002BECD14FF0FF3851
:103B400004270193014638230394CDF80880009799
:103B50003246254800F0F0FB2378002BDBD12968A2
:103B60002248CDE90073CDE902842C23243132466A
:103B700000F0E2FB2378002BCDD129681C48CDE969
:103B80000073CDE9028438236C31324600F0D4FB57
:103B90002378002BBFD129681648CDE90073CDE901
:103BA000028401239031324600F0C6FB2378002BBB
:103BB000B1D1296810480394CDE901384831009704
:103BC0003246242300F0B8FBA5E700F091FD8BE717
:103BD00008F00000BCED0000B4EB00007CEC00003D
:103BE000181B0020D8EB0000ECEB0000FCEB000001
:103BF0000CEC00001CEC000030EC000016288CBF20
:103C000000200120704700BF2DE9F04182B0074637
:103C1000089C0D461646984624B33F2E0FD82E4AD0
:103C20002E49126A2E4B62604FF4C172C4E903122E
:103C30001D6A2C4BA560082020706361FEE7B8F177
:103C4000000F12D0244A2549D269254B626040F208
:103C50008512C4E90312DD69224BA560072020709C
:103C60006361FEE700F044FDD7E71F4B1B68EBB133
:103C7000FFF72EFFB300804605B315F0070118BF0C
:103C8000082125F007022B4455185B1B9E0823468C
:103C90004146F422154800F015FB237863B9C0E9CA
:103CA0003A56C0F8F07002B0BDE8F0812046FFF748
:103CB00015FF2378002BDBD00020F4E7CDE900547A
:103CC0001A46014608230A4800F018FB23780546E7
:103CD000002BDCD0F0E700BF08F00000B4EB0000E0
:103CE000BCED00005CEC0000181B002050EC000054
:103CF00040EC00002DE9F0438BB0DDE9126405468D
:103D00000F4690469946002C33D017B38DB1002E44
:103D100032D0284A2849D269284B626040F2E11229
:103D2000C4E90312DD69264BA5600720207063619A
:103D3000FEE7204A2049926A204B62604FF4EF72FE
:103D4000C4E903129D6A1E4BA5600A2020706361BE
:103D5000FEE7184A1849926A184B62604FF4EE72F7
:103D6000C4E903129D6A164BA5600A2020706361A6
:103D7000FEE700F0BDFCC8E7D5F8EC100391CDE9F3
:103D8000056603220A2007920894049600FB01F0BE
:103D90006423B0FBF3F00290D5F8E830CDE900934E
:103DA0003A464346D5F8F010284606F06DF80BB0B9
:103DB000BDE8F08308F00000B4EB0000BCED0000AB
:103DC0006CEC00002DE9F041804686B00F461446A9
:103DD00022B31B4E3068C8B1214600F0E9FA2378BF
:103DE00005461BB1002006B0BDE8F08141462246E1
:103DF00004F04EFC2378A3B917B13F7807F0010710
:103E000085F83470284606B0BDE8F0812046FFF7FB
:103E100065FE2378002BE5D13068DDE700F068FC13
:103E2000D7E7294630686A4600F06AFB9DF8003003
:103E300013B900252846E6E700F05AFCF9E700BF71
:103E4000181B002078B100B511F0010187B00BD12B
:103E50006A4606F0C9FD9DF800300BB100F048FC41
:103E600007B05DF804FB70476A46082106F0BCFD08
:103E70009DF80030002BF3D0FEE700BF014B18681F
:103E8000704700BF981B002008B502F03FF9034BB4
:103E900001221A60BDE8084002F03CB91C1B00205A
:103EA0002DE9F843DDE9086479B9434A4349126AC8
:103EB000434B626040F2C662C4E903121D6A414B83
:103EC000A560082020706361FEE707461546994605
:103ED00088463AB1531E13425ED102F017F9D7F863
:103EE00004C004E002F012F9D7F804C004254D45DF
:103EF00038BF4D46B9686B1E6A420B4202EA0102A6
:103F000018BF5219904409F1FF3313EA0805C9F1AB
:103F1000000318BF4D4603EA08032B44C1F1010515
:103F2000AC44591A8C4515D3234D25492D68BB60E7
:103F3000096865600023214DA160237040F226715D
:103F4000214B6361C4E90351144602F0E3F82046B3
:103F5000BDE8F88316B1A1EB0C013160164A184B8D
:103F6000164DD2F858809F6D174B63614FF4E46291
:103F70001626C4E90352C4F80480A760267002F034
:103F8000C9F840F2D5620F4B2670C4E90187C4E935
:103F9000035263610024DAE7074A0849126A084BB2
:103FA000626040F2CA62C4E903121D6A054BA56053
:103FB000082020706361FEE708F0000088EC000034
:103FC000BCED0000F0EC000008ED00002DE9F04F22
:103FD00087B00391DDF840A0129C7AB9814A8249EA
:103FE000126A824B626040F29172C4E903121D6A48
:103FF0007F4BA560082020706361FEE79846119B07
:104000000746581C934611D053450FD2754A76493E
:10401000126A764B626040F29572C4E903121D6A1F
:10402000734BA560082020706361FEE7B8F1000FB4
:1040300017D008F1FF3313EA080F02D1B8F1030FCC
:1040400011D8684A6849126A684B626040F29A72F5
:10405000C4E903121D6A664BA560082020706361E5
:10406000FEE74FF004083A78910740F1A7801BF073
:1040700003032BF0030606F1040618BF04231E44B5
:10408000BAF1000F76D0D20740F19D80039B1869EA
:104090004045024638BF4246531E5542334205EA68
:1040A000060500D0154405FB0A63411E5B1B19423F
:1040B000C0F1000101EA030108BF00200144002310
:1040C000CDE9003403980123FFF7EAFE2378814607
:1040D000002B4CD13B7838619B0765D48346BAF1FD
:1040E000010F29D90123CDE904364E46A14602E04D
:1040F000049B9A451DD032462E44CBF80060049BA9
:10410000FC690399013338460493AB44002CEFD08B
:104110003B6AA0470128EBD0324A344B926E9D6E29
:10412000C9F804204C463049314B1A2040F2D7726E
:1041300018E04C46B146059E0023CBF80030FD69DF
:10414000D5B14A463B6A03993846A847012813D09F
:10415000264B244A9D6E926E2349254B62601A209D
:1041600040F2E772C4E90312A5602070636107B0F2
:10417000BDE8F08FC7F810A01C4B1A4A1968039BC2
:104180001068119A7A61C7E90136194A164EC7F8C4
:104190000C80002340F2FA75BB6160602370C4E9B3
:1041A0000216C4E90452E2E71BF003022BF00303FA
:1041B00018BF0422134400EB030B90E75E46042E65
:1041C00038BF04265CE708F1FF33C8F1000533422D
:1041D00005EA060500D0454405FB0A61491B424635
:1041E0006DE700BF08F0000088EC0000BCED0000A7
:1041F00020ED000038B505460C46002944D00DB32B
:1042000001F084FF22490B6843B19D422AD01A462F
:1042100001E0954226D0D268002AFAD1EB600D6009
:1042200001F078FF1B4A1C4B12681C491D68626034
:104230001B4BA560002040F2C9222070C4E9031284
:10424000636138BD134A1549926A134B626040F2AC
:10425000B722C4E903129D6A114BA5600A202070A1
:104260006361FEE701F056FF0A4A0B4B526D0B49A2
:104270005D6D62600A4BA560152040F2BE22207081
:10428000C4E90312636138BD00F032FAB7E700BF3A
:10429000A06B002008F00000BCED000088EC0000DE
:1042A000A8EC000000B587B069460548FFF7A2FFFB
:1042B0009DF800300BB100F01BFA07B05DF804FB6D
:1042C0003400002010B50C4684B06BB10A4801934D
:1042D000002311469C4218BF20460093042201236C
:1042E000FFF7DEFD04B010BDCDE9022300F000FAB7
:1042F000DDE90223EAE700BF3400002070B582B098
:10430000DDE906650C46114665B10A481A46002CDF
:1043100018BF20460123CDE9066502B0BDE8704014
:10432000FFF7BEBDCDE9002300F0E2F9DDE900139F
:10433000EBE700BF340000202DE9F0470B9CDDF8CF
:1043400028A0DDE908890D4616461F4694B1ADB197
:10435000002012490A94CDE9089A2870864218BFB5
:104360003146C5E9070043463A462846BDE8F047CE
:10437000FFF72CBE00F0BCF9002DE9D1084A09492D
:10438000926A094B626040F21242C4E903129D6ACC
:10439000064BA5600A2020706361FEE73400002010
:1043A00008F0000088EC0000BCED0000B4EC000058
:1043B0002DE9F041054682B00C4600293FD0002D82
:1043C0002DD001F0A3FED5E905134E1C024601D005
:1043D000994270D92E690133AB61002E32D02B780F
:1043E00099074ABFAB6833689B19104648BF53F81A
:1043F000043C2B6101F08EFE3D4A3E4B10683E4965
:104400001A68A26040F2EF42C4E903123B4B6060BD
:10441000002020706361304602B0BDE8F081344A6C
:104420003549926A334B626040F2D542C4E90312C7
:104430009D6A324BA5600A2020706361FEE700F0A0
:1044400057F9BCE7104601F065FE2B78EA68D5E91C
:104450000101DB074FF000084CBF03690123CDE9E0
:104460000084FFF71DFD27780646002F36D1D5F8CA
:104470001C80B8F1000FCED002462B6A696828462E
:10448000C0470128C7D001F041FEAB69013BAB61D9
:1044900001F040FE164A174B906E17499A6E606005
:1044A000164BA2601A2040F219523E462070C4E911
:1044B00003126361AFE701F02DFE0D4A0D4B126E42
:1044C0000D491D6E62600D4BA56018204FF49C6273
:1044D0002070C4E90312636100269CE701F016FE18
:1044E000AB69013BAB61464601F014FE93E700BFA8
:1044F00008F00000BCED000088EC0000C8EC0000F3
:10450000F8B505460F461446002A2AD0002D2CD0B7
:10451000002F4CD001F0FAFDAB69002B35D0013BE8
:10452000AB6101F0F7FD2B789B0743BFAB68043B01
:10453000FE183E4601F0EAFD2B6933602F6101F061
:10454000E9FD234A234B126823491D686260234B0F
:10455000A560002040F255522070C4E90312636147
:10456000F8BD00F0C5F8002DD2D1194A1A49926A57
:10457000184B626040F23B52C4E903129D6A174B2C
:10458000A5600A2020706361FEE701F0C3FD104AB8
:10459000104BD26D1049DD6D6260104BA560172085
:1045A00040F245522070C4E903126361F8BD084A25
:1045B0000949926A074B626040F23C52C4E9031217
:1045C0009D6A064BA5600A2020706361FEE700BF6C
:1045D00008F00000BCED000088EC0000DCEC0000FE
:1045E0002DE9F04F044685B008B900F081F8334E4C
:1045F000DFF8E090DFF8E0A0D9F80020DFF8DC80F9
:104600007368DAF800102E4FA2604FF0000BC4223E
:10461000616084F800B0C4E90382676113B905B032
:10462000BDE8F08F59460220FFF7E8FA59460546E3
:104630000320FFF7E3FA594605400420FFF7DEFAAE
:10464000EDB2284001280CD0D9F81810DAF818304B
:104650006360C4E902180622CA23676122702361DD
:10466000FEE7FFF735FA2346014607462C22154898
:10467000154DFFF727FE23782860002BCFD17368F4
:104680000293366803940423C118CDE900363A46F4
:1046900008230E48FFF750FE21780029BFD122469B
:1046A0000B482E68FFF78EFB2378B062002BB6D143
:1046B000286805B0BDE8F04FFFF7DCB948000020DE
:1046C000ACED00003CED0000201B002050ED000090
:1046D00068ED0000BCED000008F000007CED00007B
:1046E000024B00221A60FBF7C1BD00BFA48B002063
:1046F000FEE700BF014B1860704700BFA48B00208D
:10470000FEE700BF4FF0804310B500245B68134BF9
:10471000C9B2224606E00132072A03F1080314D089
:1047200013F8084C8C42F6D153F80C4C8442F2D367
:104730000B4B03EBC20253791A064FF080414B68D2
:1047400023F0407313434B6010BD40F6D831054849
:10475000FFF7D6FF4FF04072EFE700BF28160100C9
:104760001C1601000816010038B54FF0804441F6D0
:104770007133256C2364FBF7F3FD0021FFF7C2FFC3
:104780000DB10023236438BD4FF0804341F67132F0
:1047900070B51E6C1A6405460C46FFF7B3FF114B4B
:1047A000114A022C08BF13469D4211D90F4B104AE3
:1047B000104911609D420ED96CB94FF08C434FF4F3
:1047C00080521A601EB14FF0804300221A6470BDFF
:1047D000094B084A1A604FF088434FF480521A6020
:1047E000F0E700BF80D543020024F40080F0FA0215
:1047F000000100460202020000010044C0F303234E
:10480000013B30B40E2B55D8DFE803F04C20545454
:104810005047420832383C28542E2400C0F3043359
:1048200027484FF48075274AD2F84441E40704D55D
:104830001844800030BC01607047D2F840412C42DF
:10484000F6D0D2F840412C42F7D1F1E7C0F304335F
:104850001D48EDE7C0F304331C48E9E7C0F3043317
:1048600081F001011A48E3E7C0F304331948DFE798
:10487000C0F304334FF480351748D4E7C0F3043352
:104880001648D5E7C0F3043381F001011448CFE79F
:10489000C0F3043310251348C5E7C0F304330125E2
:1048A0001148C0E7C0F304331048C1E7C0F3043334
:1048B0000F48BDE741F23C110E4830BCFFF720BF66
:1048C0006007F21000400E400006F210800FF21058
:1048D000200BF2102006F2108007F210800AF2106E
:1048E000000BF2104007F2100007F2100000F21067
:1048F0008005F2100816010008B5C0F30313013B50
:104900000B2B74D8DFE803F00C12181E242A303663
:104910004D5E67066B4BD3F80401C0F3082008BD59
:10492000684BD3F80001C0F3042008BD654BD3F8F1
:104930001401C0F3042008BD624BD3F80001C0F39A
:10494000016008BD5F4BD3F80C01C0F3082008BD1F
:104950005C4BD3F81801C0F3082008BD594BD3F8BD
:104960001C01C0F3082008BD564BD3F80801C0F362
:10497000082008BD544B984200F089803ED8A3F52A
:10498000BA23984200F0958003F5703398423ED1E7
:104990004C4BD3F82031012003F00F03984001382D
:1049A00008BD4A4B984257D003F5A11398423CD01A
:1049B000474B984259D041F2F9214648FFF7A0FEF3
:1049C000002008BD444B98423FD13E4BD3F8300104
:1049D00000F0030008BD414B984230D0404B984254
:1049E0001CD1384BD3F85C01C0F3014008BD41F243
:1049F0002D313848FFF784FE002008BD394B98421E
:104A00004ED0394B984239D0384B984248D041F279
:104A1000D5213048FFF774FE002008BD4FF49951AE
:104A20002C48FFF76DFE002008BD264BD3F8280167
:104A3000C0F30130031D01209840013808BD214B0F
:104A4000D3F85C0100F0030008BD41F208312148B1
:104A5000FFF756FE002008BD1A4BD3F8283101207D
:104A6000C3F301139840013808BD164BD3F8283121
:104A7000012003F003039840013808BD114BD3F81F
:104A800020310120C3F301239840013808BD0D4BAC
:104A9000D3F820310120C3F303139840013808BD37
:104AA000084BD3F820310120C3F30233984001387A
:104AB00008BD044BD3F820310120C3F303439840D1
:104AC000013808BD00400E408016180090171C00E9
:104AD00090071A0008160100A0091400B80032005F
:104AE000B900340000362C0080262E0080002A00F9
:104AF00008B5FFF701FF013008BD00BF00F00F004F
:104B0000013808B50B2800F28D80DFE800F0132192
:104B10002F3B434B8B557A637106524BD3F8F031E0
:104B200003F00703052B00F29A80DFE803F0868488
:104B300096908C884B4BD3F8943003F00703023BDC
:104B4000052B00F28480DFE803F0767A7E86788495
:104B5000444BD3F8800000F00700022805D0042859
:104B600067D001280CBF0320012008BD3D4BD3F8BE
:104B7000843003F00703013B032B70D8DFE803F018
:104B80005F636559374BD3F88C0000F007000228AB
:104B9000E5D108BD334BD3F8880000F007000228A8
:104BA000DDD108BD2F4B1B6F13F0030327D0012B62
:104BB0000CBF0920012008BD2A4BD3F85C3103F05B
:104BC0003003202B37D0302B3BD0102B0CBF0720CD
:104BD000012008BD234BD3F8603103F00303022BFF
:104BE0000DD0032B29D0012B0CBF0420052008BDBC
:104BF0001C4BD3F8643103F00303022BF1D10720DF
:104C000008BD184BD3F85C3103F44013B3F5001F13
:104C100011D0B3F5401F14D0B3F5801F0CBF07208F
:104C2000012008BD41F276610F48FFF769FD0020C1
:104C300008BD0C2008BD042008BD0A2008BD0320C3
:104C400008BD082008BD022008BD062008BD0520BB
:104C500008BD0E2008BD0D2008BD0B2008BD012099
:104C600008BD00BF00400E400816010038B5384BA3
:104C70009842054606D02DD9364B984202D0364B85
:104C800098422AD12846FFF739FF314B9D4204460E
:104C90002FD034D92F4B9D4216D02F4B9D4237D168
:104CA0002E4BD3F8884004F00704042C04D8DFE826
:104CB00004F0094B4739350040F64A512848FFF7C0
:104CC0001FFD0024204638BD244BD3F88C4004F04F
:104CD0000704EAE7234B9842D4D040F6C941204864
:104CE000FFF70EFD2846FFF709FF194B9D420446CA
:104CF000CFD11A4BD3F8844004F00704D5E7194B01
:104D00009D4205D1154BD3F8804004F00704CCE751
:104D100040F6F8411248FFF7F3FCC6E7BDE838401B
:104D2000FBF774BBFBF748FB0C4BD3F80041C4F313
:104D30000164631C01249C40B0FBF4F4204638BDA0
:104D4000BDE83840FBF766BBBDE83840FBF75ABB0F
:104D500003002000040022000500240000400E4053
:104D60000816010002001E00012808B514BF1348F0
:104D70001348FFF7C3FE0138072818D8DFE800F012
:104D80000417170617170A0D002008BDBDE80840D4
:104D9000FBF724BB0B4B186808BDFBF7E5FA0A4B81
:104DA000D3F80031C3F3042303FB000008BD40F631
:104DB000D1210648FFF7A4FC002008BDB80032004E
:104DC000B90034005000002000400E4008160100D9
:104DD00000F47810B0F5D01F08B500F09D811FD801
:104DE000B0F5402F00F0A58134D8B0F5802F00F049
:104DF000DE806AD9B0F5002F00F03A81B0F5202F9F
:104E000000F00981B0F5C02F4FD1FBF7ADFACE4BC2
:104E1000D3F81831C3F308230133B0FBF3F008BD16
:104E2000B0F5381F00F0AA812ED8B0F5001F00F0B1
:104E3000C9806BD9B0F5201F00F01581B0F5281F8F
:104E400000F0DC80B0F5101F2FD1C048BDE808404D
:104E5000FFF70CBFB0F5901F00F0B9802CD9B0F56A
:104E6000B01F00F04C81B0F5C01F00F08780B0F596
:104E7000A01F1AD1B548FFF7F9FEB34BD3F8303174
:104E800003F00303D84008BDB0F5501F00F0838045
:104E90002AD9B0F5601F00F01481B0F5681F00F04A
:104EA000A080B0F5581F00F0EE8041F26221A848C2
:104EB000FFF726FC002008BDB0F5602F35D0B0F517
:104EC000801FF2D1A34B186808BD50B3B0F5003F66
:104ED000EBD1FBF749FA9C4BD3F80831C3F3082315
:104EE0000133B0FBF3F008BDB0F5401F38D0B0F58A
:104EF000481FDAD10020FFF737FF934BD3F85C311E
:104F000003F003030133B0FBF3F008BDB0F5E01F7D
:104F100019D0B0F5F01FC8D18F48BDE80840FFF7A1
:104F2000A5BEBDE80840FBF71FBA8C48FFF7E6FDB9
:104F30000728C7D00928F4D040F69A218448FFF703
:104F4000DFFB002008BD8648FFF790FE7E4BD3F8BC
:104F500028210123C2F301129340B0FBF3F008BDF6
:104F60007F48FFF783FE784BD3F82831C3F3013332
:104F70001A1D01239340B0FBF3F008BD7648FFF7FC
:104F800075FE714BD3F820210123C2F30312934025
:104F9000B0FBF3F008BD0120FFF7E6FE6A4BD3F843
:104FA0005C31C3F301430133B0FBF3F008BDFBF701
:104FB000DBF9654BD3F80C31C3F308230133B0FBA5
:104FC000F3F008BD6648BDE80840FFF74FBE6248F1
:104FD000FFF74CFE5C4BD3F82031C3F30343D840BA
:104FE00008BD6048FFF78AFD0238092834D8DFE899
:104FF00000F02B272320333333331D2F5648FFF780
:1050000035FE514BD3F820210123C2F302329340E5
:10501000B0FBF3F008BDFBF7A7F94B4BD3F8043115
:10502000C3F308230133B0FBF3F008BD4E4B1868FF
:1050300008BD4E4B186808BDBDE80840FBF7CEB967
:10504000BDE80840FBF7DEB9BDE80840FBF7E2B970
:10505000FBF7C4F9400008BD40F684313C48FFF737
:105060004FFB002008BD4248BDE80840FFF7FEBDE9
:10507000FBF77AF9344BD3F81C31C3F3082301331F
:10508000B0FBF3F008BD3B48FFF738FD04380628B5
:1050900010D801A353F820F039500000335000001D
:1050A000B5500000C54E0000B5500000B5500000DE
:1050B0002D50000040F6FB212548FFF721FB002082
:1050C00008BD2D48FFF71AFD0438062810D801A3A3
:1050D00053F820F03950000033500000F150000028
:1050E000C54E0000F1500000F15000002D500000AE
:1050F00040F62D311648FFF703FB002008BD164887
:10510000FFF7B4FD104BD3F82021012302F00F026A
:105110009340B0FBF3F008BD1148FFF7A7FD0A4B21
:10512000D3F82821012302F003029340B0FBF3F0EF
:1051300008BDFBF719F9044BD3F81431C3F304236A
:105140000133B0FBF3F008BD00400E400500240021
:10515000081601005000002002001E0006000E008C
:10516000030020000C7F3A005400002008000020BB
:10517000040022000A7B36000B7C38000448FFF74D
:1051800075FD044BD3F82031C3F30123D84008BD8B
:1051900002001E0000400E40C0F30313013B70B537
:1051A0000C460B2B00F24E81DFE813F02000640068
:1051B0004C01750089009D00B100F20038010B011F
:1051C00020010C00B1F5007F04D341F27741C648BD
:1051D000FFF796FAC54AD2F8043123F4FF3323F4DB
:1051E000807343EA0424C2F8044170BD1F2900F211
:1051F000EA81FFF7B9FABE4BBC4D01221A60D5F81F
:10520000003123F0407343F08073C5F8003100F0A3
:105210009FFBD5F8003123F4F85343EA0424C5F882
:105220000041FBF7C9F8B34B1C68002CFCD1B24B12
:105230005968C1F30141FFF7A7FAB048FFF7C8FD6D
:10524000AF4B984240F20E81AE4B012498428CBF86
:105250004FF000734FF08073A549A44A0C60D2F858
:10526000000120F040701843C2F80001BDE8704012
:1052700000F084BB1F2904D941F26B319A48FFF733
:105280003FFA9A4AD2F8143123F4F85343EA04243B
:10529000C2F8144170BDB1F5007F04D341F2723100
:1052A0009148FFF72DFA914AD2F80C3123F4FF33DD
:1052B00023F4807343EA0424C2F80C4170BDB1F5B5
:1052C000007F04D341F279318748FFF719FA874A02
:1052D000D2F8183123F4FF3323F4807343EA042413
:1052E000C2F8184170BDB1F5007F04D341F281319D
:1052F0007D48FFF705FA7D4AD2F81C3123F4FF33CD
:1053000023F4807343EA0424C2F81C4170BDB1F554
:10531000007F80F05281FFF727FA754B734A012115
:105320001960D2F8003123F0407343F08073C2F863
:105330000031D2F8083123F4FF3323F4807343EAB9
:105340000424C2F80841FBF737F86A4B1C68002CAC
:10535000FCD1694B5968C1F30141FFF715FA674861
:10536000FFF736FD664B98427ED9664B0124984282
:105370008CBF4FF000734FF080735D495B4A0C6047
:10538000D2F8000120F040701843C2F8000170BD4F
:105390005D4B984200F0A18168D85C4B984200F0C8
:1053A0001C825B4B984200F0ED81A3F5703398426C
:1053B00000F0678141F206414B48BDE87040FFF7BD
:1053C0009FB9524B984240F00481022900F2DF80DD
:1053D000464BD3F84421D1073BD5444AD2F830316B
:1053E00023F003031C43C2F8304170BD494B98427F
:1053F00000F0D380484B984269D1032904D941F287
:1054000069413948FFF77CF9384AD2F85C3123F416
:10541000403343EA0444C2F85C4170BD3F4B9842BC
:1054200000F0068103F5A113984200F083803C4B05
:10543000984200F0D58041F23C412B48BDE87040D5
:10544000FFF75EB941F27E412748BDE87040FFF7A3
:1054500057B9D3F840215203BFD5D3F840215203A6
:10546000F7D4BAE72346F7E6234686E72D4B984262
:1054700006D02D4B984200F05C812C4B984299D17C
:10548000B4F5004F00F2088200F00B82651CB5FAFB
:1054900085F5C5F11F051F2D00F2F1810123AB40F9
:1054A000013B9C4204D040F669212148FFF728F9CE
:1054B0000E4BD3F84421D60710D50C4AD2F8203130
:1054C00023F4E04343EA0535C2F8205170BD41F2B0
:1054D0006F410548BDE87040FFF712B9D3F840218D
:1054E0005407FBD4E9E700BF0816010000400E4056
:1054F0004000C843C800C64300300E4000050A0003
:105500000048E8010090D00380161800A00914009C
:1055100080061600B8003200B900340090171C0055
:1055200090071A0000362C0080262E0080002A00EA
:10553000A4150100A1F10F03702B00F28B81651CF3
:10554000B5FA85F5C5F11F061F2E00F27D810123F6
:10555000B340013B9C4204D040F66921CB48FFF7A1
:10556000CFF8CB4BD3F84421D407C5F11B0509D59F
:10557000C74AD2F8283123F4405343EA0535C2F82C
:10558000285170BDD3F840215006FBD4F0E741F21A
:105590004641C048FFF7B4F81AE7032904D941F29D
:1055A0006141BC48FFF7ACF8B94AD2F85C3123F04E
:1055B00003031C43C2F85C4170BD41F28831B54819
:1055C000FFF79EF8A7E641F25531B248FFF798F889
:1055D0000FE641F25641AF48BDE87040FFF790B882
:1055E000082900F22281651CB5FA85F5C5F11F0571
:1055F0001F2D00F2FF800123AB40013B9C4204D0F1
:1056000040F66921A148FFF77BF8A14BD3F844216C
:10561000D00708D59E4AD2F8283123F003031D4352
:10562000C2F8285170BDD3F840215106FBD4F1E7F0
:10563000082900F2EB80651CB5FA85F5C5F11F0558
:105640001F2D00F2DD800123AB40013B9C4204D0C2
:1056500040F669218D48FFF753F88D4BD3F844216C
:10566000D20709D58A4AD2F8283123F0300343EA19
:105670000515C2F8285170BDD3F840215606FBD459
:10568000F0E7B1F5004F00F2498100F04C81651C54
:10569000B5FA85F5C5F11F051F2D00F24A810123DA
:1056A000AB40013B9C4204D040F669217748FFF7AC
:1056B00027F8774BD3F84421D60709D5744AD2F896
:1056C000203123F4702343EA0545C2F8205170BD10
:1056D000D3F840215407FBD4F0E7B1F5004F00F2B6
:1056E000F88000F0FB80651CB5FA85F5C5F11F0553
:1056F0001F2D00F2E8800123AB40013B9C4204D007
:1057000040F669216148FEF7FBFF614BD3F8442165
:10571000D40709D55E4AD2F8203123F0F00343EADA
:105720000515C2F8205170BDD3F840215007FBD4B5
:10573000F0E7082900F2E380651CB5FA85F5C5F1AC
:105740001F051F2D00F2B9800123AB40013B9C4295
:1057500004D040F669214D48FEF7D2FF4C4BD3F8F8
:105760004421D10709D54A4AD2F8203123F44073A5
:1057700043EA0525C2F8205170BDD3F840215207F5
:10578000FBD4F0E7B1F5004F00F2AE8000F0B1803D
:10579000651CB5FA85F5C5F11F051F2D00F2878040
:1057A0000123AB40013B9C4204D040F669213748BD
:1057B000FEF7A6FF364BD3F84421D20708D5344A6A
:1057C000D2F8203123F00F031D43C2F8205170BDE1
:1057D000D3F840215607FBD4F1E7022949D82C4BD6
:1057E000D3F84421D0073FF5F8ADD3F84021510359
:1057F000FBD4F2E540F64E212448FEF781FFFAE69D
:1058000040F64E212148FEF77BFF1CE741F21E4186
:105810002048FEF775FFB4F5004FFFF40CAF40F6DB
:1058200063211A48FEF76CFF05E741F20F41194862
:10583000FEF766FFB4F5004FFFF4D5AE40F66321E6
:105840001248FEF75DFFCEE640F64E210F48FEF708
:1058500057FF7CE641F22D410E48FEF751FFB4F5AB
:10586000004FFFF46CAE40F663210848FEF748FF96
:1058700065E641F2AD310748FEF742FFAFE740F67B
:105880004E210248FEF73CFF08E600BFA4150100C8
:1058900000400E400816010041F2F8312848FEF79A
:1058A0002FFF40F663212748FEF72AFFEEE540F67A
:1058B0004E212448FEF724FF72E740F64E2121488E
:1058C000FEF71EFF40E740F64E211E48FEF718FF88
:1058D00011E741F2D9311A48FEF712FF40F6632171
:1058E0001848FEF70DFFFEE641F2CA311448FEF7F4
:1058F00007FF40F663211348FEF702FF48E741F235
:10590000E8310F48FEF7FCFEB4F5004FFFF414AF8A
:1059100040F663210B48FEF7F3FE0DE741F29C31A0
:105920000748FEF7EDFE40F663210648FEF7E8FE65
:10593000ADE640F64E210348FEF7E2FEAFE600BFBB
:1059400008160100A41501000139FFF725BC00BFAE
:1059500008B503210648FFF71FFC03210548FFF7A0
:105960001BFC03210448BDE80840FFF715BC00BF3D
:1059700040410500504107006041090038B5FAF781
:10598000F3FC204A05461368002BFCD11E4B5B68D4
:10599000C3F30143022B1ED01C4B1D4C1D482B444E
:1059A000A4FB03231C0E18BF04F1FF342146FFF7AC
:1059B000F3FB21461848FFF7EFFB1849184B19482D
:1059C0002944A3FB0131890E18BF01F1FF31BDE865
:1059D0003840FFF7E1BB144C144B0E482C44A3FB9A
:1059E0000434E40D18BF04F1FF342146FFF7D4FB63
:1059F00021460C48FFF7D0FB21460748BDE8384058
:105A0000FFF7CABBC800C64300300E407FF0FA0261
:105A1000893BE6554041050060410900FFA14A0469
:105A2000B5FA9BEE50410700FF2C31016BCA5F6B4A
:105A3000022810B50C4604D04FF4F4510D48FEF77F
:105A40005FFE0D4B5B6AC3F30113012B00D04CB911
:105A50004FF48001084AD2F8903031EA0303FAD1BA
:105A6000012010BD41F69B610248FEF749FE034943
:105A7000F0E700BF0816010000400E40FF3F473A24
:105A8000F0B5044683B00E4605287BD8DFE800F069
:105A9000031E2A676C724FF400754FF48077082359
:105AA0004FF0090CCEB94E4901200D669840D1F84F
:105AB00090300342FBD13AB10122494902FA0CF27B
:105AC000D1F890301342FBD103B0F0BD80254027C0
:105AD00006234FF0070C002EE5D0424919448900F7
