:100000007005002061390100713B0100753B010062
:10001000793B01007D3B0100813B010000000000B5
:10002000000000000000000000000000853B01000F
:10003000893B010000000000117600001F4700000E
:100040008D3B0100913B0100953B0100993B010074
:100050009D3B0100A13B0100919F0000CD9F00004E
:10006000A53B0100A93B0100AD3B0100B13B0100F4
:10007000B53B0100B93B0100BD3B0100C13B0100A4
:10008000C53B0100C93B0100CD3B0100D13B010054
:10009000D53B0100D93B0100DD3B0100E13B010004
:1000A000E53B0100E93B0100ED3B0100F13B0100B4
:1000B000F53B0100F93B0100FD3B0100013C010063
:1000C000053C0100093C01000D3C0100113C010010
:1000D000153C0100193C01001D3C0100213C0100C0
:1000E000253C0100293C01002D3C0100313C010070
:1000F000353C0100393C01003D3C0100413C010020
:10010000453C0100493C0100F1DB0000FFDB000041
:100110004D3C0100513C0100553C0100593C01009F
:100120005D3C0100613C0100653C0100693C01004F
:100130006D3C0100713C0100753C0100793C0100FF
:100140007D3C0100813C0100853C0100893C0100AF
:100150008B0013EB401313F184431A6070470200C5
:10016000880010EB421010F184400068704710F1D5
:10017000C0621160704710F180621160704710B565
:100180000400202C05D340F64E21DFF8300701F0A3
:10019000F5FE0120A04010BD38B50400B4F5004FB5
:1001A00005D340F66321DFF8140701F0E7FE601C79
:1001B000B0FA80F0D0F11F0005002800FFF7DFFF44
:1001C000401E844205D040F66921DFF8F00601F0B8
:1001D000D5FE280032BD80B51221DFF8E406FFF716
:1001E000BEFF0028F8D101BD80B5FFF7F4FFDFF8AE
:1001F000D0060068000C10F0030002BD70B50400CA
:1002000001200500DFF8BC06844204D2002005006E
:100210000020060008E0DFF8B006844202D2012088
:10022000060001E0022006002A001021DFF89C06EB
:10023000FFF78EFFDFF89806006830F0407050EA54
:100240000660DFF88C16086070BDDFF8AC1909682D
:100250000800704710B501F0B3FE0400DFF8700627
:100260000068C0F30420401C00FB04F010BD38B54A
:10027000DFF8600601F0A6F80500EDB228000728B7
:1002800005D0092807D101F09BFE04000BE0FFF721
:10029000DCFF040007E00020040040F69A21DFF8AC
:1002A0005C0901F06BFE200032BD70B50400002C2B
:1002B00002D0012C06D00BE0DFF81C0601F082F81A
:1002C00006000DE0DFF8140601F07CF8060007E0F8
:1002D00040F6BA21DFF8240901F050FE002022E0A8
:1002E000F6B23000012806D004280BD0072805D02C
:1002F00008280BD00EE00020050013E0FFF7A5FF53
:1003000005000FE001F07EFE05000BE0FFF7A2FF05
:10031000050007E00020050040F6D121DFF8DC08E9
:1003200001F02CFE280070BD38B5DFF8B40501F0EF
:1003300049F80500EDB2280004280BD0052804D0A8
:1003400007280BD00A280DD011E0DFF898050068C7
:10035000040014E001F056FE040010E0FFF775FF02
:1003600004000CE0DFF880050068040007E00020CE
:10037000040040F6FB21DFF8840801F0FFFD2000B7
:1003800032BD70B50400002C0FD1DFF8600501F01C
:1003900019F80600F6B23000042813D005280CD056
:1003A000072813D00A2815D019E040F61631DFF8D7
:1003B0004C0801F0E3FD00201AE0DFF82805006892
:1003C000050014E001F01EFE050010E0FFF73DFF00
:1003D00005000CE0DFF810050068050007E00020CC
:1003E000050040F62D31DFF8140801F0C7FD2800A4
:1003F00070BD38B5DFF8080800F0E4FF0500EDB285
:10040000280002281DD003281FD004280BD005285F
:1004100012D00A2802D00B2809D01AE0DFF8C8044D
:10042000006804001DE001F0EDFD040019E001F09A
:10043000E9FD4000040014E0DFF8A80400680400AF
:100440000FE001F0F2FD04000BE001F0E8FD040014
:1004500007E00020040040F68431DFF8A00701F037
:100460008DFD200032BDF8B504000D00DFF89407C3
:10047000006810F04070060000200700072F10D21F
:10048000DFF8840700EBC70000792900C9B2884271
:1004900005D1DFF8740750F83700A04201D27F1C65
:1004A000ECE7072F08D10320060040F6D831DFF82B
:1004B0004C0701F063FD05E0DFF84C0700EBC700D7
:1004C000407906003606DFF83C07006830F04070DF
:1004D0003043DFF830170860F1BD10B5DFF82C07A6
:1004E0000068002801D0012400E0002441F67130AA
:1004F000DFF81817086001F061FD0021FFF7B3FF76
:10050000E4B2002C03D00020DFF80017086010BD13
:1005100070B504000D00DFF8F866022D02D1DFF897
:10052000F4060600A64206D2DFF8EC16DFF85409FE
:10053000FFF71DFE05E0DFF8E016DFF84809FFF7DA
:100540001AFE70BD38B504000D00DFF83C09844286
:1005500008D3002D06D14FF480515FF08040FFF7A3
:1005600006FE05E04FF480515FF08040FFF703FE88
:1005700031BD70B504000D00DFF89006006800285A
:1005800001D0012600E0002641F67130DFF87C162C
:10059000086029002000FFF766FF29002000FFF710
:1005A000B7FF29002000FFF7CDFFF6B2002E03D0E1
:1005B0000020DFF85816086070BDDFF8D00800682A
:1005C000C0F301107047DFF8C418096831F030013A
:1005D00051EA0011DFF8B42811607047F8B5040043
:1005E00000262000DFF8A81888420BD0DFF8A418F6
:1005F000884207D0DFF8A018884203D0DFF89C18A3
:10060000884200D105E040F6C941DFF8F00501F06D
:10061000B5FC200000F0D6FE05002000DFF87018C1
:1006200088420CD0DFF86C1888420FD0DFF86818C9
:10063000884212D0DFF86418884215D01BE0DFF83A
:10064000DC05006810F0070005001AE0DFF8D005AF
:10065000006810F00700050013E0DFF8C805006827
:1006600010F0070005000CE0DFF83408006810F017
:100670000700050005E040F6F841DFF8800501F0CD
:100680007DFC002D21D0022D08D003D3042D09D0EC
:100690000CD31DE001F0C3FC060021E001F0C5FC15
:1006A00006001DE001F0BEFC060019E001F076FC3A
:1006B0000700DFF81C020068C0F30160401CFFF770
:1006C0005EFDB7FBF0F006000AE00020060007E040
:1006D0000020060040F64A51DFF8200501F04EFCEC
:1006E0003000F2BDDFF8BC170968C90704D4DFF891
:1006F000B81709680142FAD1704780B50321DFF8C5
:10070000AC0700F0E7FB0321DFF8A40700F0E2FBF1
:100710000321DFF8A00700F0DDFB01BD38B501F0D3
:100720004FFC0400FFF760FD02281AD1DFF88807AC
:100730000019DFF88817B0FBF1F00500002D00D09C
:100740006D1E2900DFF8640700F0C4FB2900DFF804
:10075000600700F0BFFB2900DFF8580700F0BAFB84
:1007600024E0DFF85C070019DFF85817B0FBF1F060
:100770000500002D00D06D1E2900DFF8300700F0C5
:10078000A9FB2900DFF82C0700F0A4FBDFF83807ED
:100790000019DFF83817B0FBF1F00500002D00D08C
:1007A0006D1E2900DFF8080700F094FB31BD10B57D
:1007B0000400200000F038FA401C10BD38B50400D9
:1007C0000D00691E200000F085FB31BD2DE9F041D0
:1007D00004000D005FF00008200A10F00F0001284F
:1007E00016D002281BD0052815D006281FD00728B0
:1007F00023D0082827D009282CD00A2841D00B283C
:100800002FD00C2833D00E280DD00F2835D03CE047
:100810002E4806003FE0DFF8600B06003BE0DFF803
:100820005C0B060037E0DFF8580B060033E0DFF81A
:10083000540B0600012080462DE0DFF84C0B06002B
:100840001020804627E0DFF8440B06004FF480704C
:10085000804620E0DFF8380B06005FF480308046E9
:1008600019E0DFF8300B060095F0010513E0DFF822
:10087000280B060095F001050DE0DFF8200B0600BF
:1008800009E0DFF81C0B060005E041F23C11DB48F3
:1008900001F074FB0EE0C4F304300700B8F1000F60
:1008A00002D04046FFF71EFFEDB22A0039003000AB
:1008B000FFF74EFCBDE8F081000000006C0601006F
:1008C00004300E400148E8010190D00300400E4082
:1008D00000410E4006000E00B8003200B90034009E
:1008E0000A7B360028010020CC0000200B7C380059
:1008F00038B5040014F47810002863D0B0F5003F38
:1009000000F09480B0F5802F60D0B0F5C02F69D092
:10091000B0F5002F72D0B0F5202F7BD0B0F5402F6E
:1009200000F09080B0F5602F00F02D81B0F5801FB1
:1009300000F02D81B0F5901F00F09680B0F5A01F5B
:1009400000F09F80B0F5B01F00F0A780B0F5C01F89
:1009500000F0B280B0F5D01F00F0DF80B0F5E01FEE
:1009600000F0EA80B0F5F01F78D0B0F5001F00F07D
:10097000CE80B0F5101F00F00181B0F5201F00F00F
:10098000F880B0F5281F00F0A680B0F5381F00F001
:10099000B180B0F5401F00F0DD80B0F5481F00F0D9
:1009A000FA80B0F5501F00F00381B0F5581F00F039
:1009B0000C81B0F5601F00F00C81B0F5681F00F0ED
:1009C0000D810FE101F0FCFA050012E101F0F8FAE7
:1009D0000500DFF8D0090068C0F30820401CB5FB13
:1009E000F0F506E101F0ECFA0500DFF8BC0900685B
:1009F000C0F30820401CB5FBF0F5FAE001F0E0FA86
:100A00000500DFF8A8090068C0F30820401CB5FB0A
:100A1000F0F5EEE001F0D4FA0500DFF89409006883
:100A2000C0F30820401CB5FBF0F5E2E001F0C8FA85
:100A30000500DFF880090068C0F30820401CB5FB02
:100A4000F0F5D6E001F0BCFA0500DFF86C090068AB
:100A5000C0F30420401CB5FBF0F5CAE0DFF8300419
:100A6000FFF7BCFD0500C4E0DFF82404FFF7B6FD86
:100A70000500DFF848090068000C10F00F00C540C1
:100A8000B7E0DFF81804FFF7A9FD0500DFF830092B
:100A9000006810F00300C540ABE0DFF8F403FFF797
:100AA0009DFD0500DFF81409006810F00F00FFF746
:100AB00066FBB5FBF0F59CE0DFF8D403FFF78EFD95
:100AC0000500DFF8F8080068C0F30310FFF757FBD4
:100AD000B5FBF0F58DE0DFF8B803FFF77FFD05000B
:100AE000DFF8D8080068C0F30230FFF748FBB5FB19
:100AF000F0F57EE0DFF89803FFF770FD0500DFF802
:100B0000BC080068000A10F00300C54071E0DFF87F
:100B10008403FFF763FD05006BE0DFF87803FFF760
:100B20005DFD0500DFF84C0B006810F00300FFF7D7
:100B300026FBB5FBF0F55CE0D648FFF74FFD05005E
:100B4000DFF8300B0068C0F30110FFF718FBB5FBAE
:100B5000F0F54EE0CF48FFF741FD0500DFF8140B3C
:100B60000068C0F30130001DFFF709FBB5FBF0F58D
:100B70003FE0C948FFF732FD05003AE0C748FFF7FC
:100B80002DFD050035E0FFF772FB050031E0FFF7B2
:100B90005CFB05002DE00020FFF787FB0500DFF878
:100BA000D80A006810F00300401CB5FBF0F520E007
:100BB0000120FFF77AFB0500DFF8BC0A0068C0F3EC
:100BC0000140401CB5FBF0F513E0FFF7ADFB05005D
:100BD0000FE00020FFF7D5FB05000AE0FFF709FC56
:100BE000050006E00020050041F26221034801F003
:100BF000C5F9280032BD0000C800002030320100D5
:100C00000C7F3A0004000040640D010040000040E9
:100C100080D543020024F4000202020080400E400E
:100C200084400E408C400E4070B50400C4F30310A5
:100C30000500012D17D0C0F01B81032D20D018D343
:100C4000052D2AD022D3072D35D02DD3092D00F024
:100C5000988037D30B2D00F0E380C0F0CD800C2DB1
:100C600000F0FF8004E19A480068C0F30420060009
:100C700006E1DFF844070068C0F304200600FFE047
:100C800093480068C0F301600600F9E0DFF814073C
:100C90000068C0F308200600F2E0DFF80C070068E7
:100CA000C0F308200600EBE0DFF800070068C0F39F
:100CB00008200600E4E0DFF8FC060068C0F3082026
:100CC0000600DDE02000DFF8B419884244D0DFF8E8
:100CD000B019884210D0DFF8AC19884224D0DFF870
:100CE000A81988422CD0DFF8A419884228D0DFF850
:100CF000A01988420CD03BE0DFF8C006006810F075
:100D00000F0006003000FFF73AFA401E060037E0F9
:100D1000DFF8A8060068C0F3012006003000FFF7E6
:100D20002EFA401E06002BE0DFF890060068C0F3A4
:100D3000031006003000FFF722FA401E06001FE0F5
:100D4000DFF878060068C0F3023006003000FFF7D5
:100D500016FA401E060013E0DFF860060068C0F3D4
:100D6000034006003000FFF70AFA401E060007E0C5
:100D70000020060041F2D521DFF8180901F0FEF845
:100D80007EE02000DFF81019884208D0DFF80C1947
:100D9000884210D0DFF80819884218D023E0DFF825
:100DA000D408006810F0030006003000FFF7E7F9F0
:100DB000401E06001FE0DFF8BC080068C0F3011009
:100DC00006003000FFF7DBF9401E060013E0DFF8F5
:100DD000A4080068C0F301300600301DFFF7CFF90A
:100DE000401E060007E00020060041F2F921DFF86E
:100DF000A40801F0C3F843E0DFF8A808844206D154
:100E0000DFF8BC05006810F00300060007E00020D2
:100E1000060041F20831DFF87C0801F0AFF82FE05E
:100E20002000DFF88418884204D0DFF88018884258
:100E300007D00DE0DFF84008006810F0030006005E
:100E40000EE0DFF834080068C0F30140060007E058
:100E5000002006004FF49951DFF8380801F08EF8B1
:100E60000EE0DFF84C050068C0F30820060007E03C
:100E70000020060041F22D31DFF8180801F07EF85D
:100E8000300070BD0001004081F0FA0224400E40A5
:100E900002001E00030020000400220005002400C0
:100EA00088400E4044410E4040410E404041050004
:100EB0005041070060410900FF2C3101002D310134
:100EC0007FF0FA0280F0FA02FFA14A0400A24A046D
:100ED00000410E40F8B504000D00C4F303100700F4
:100EE000380001281AD0022845D0042856D00528F9
:100EF00068D006287AD0072800F08C80082800F0F7
:100F0000B380092800F065810A2800F0C7810B280A
:100F100000F0E3810C2800F0168226E2202D05D394
:100F200041F25531DFF86C0701F028F8FFF7D5FAE8
:100F3000DFF87C07FFF762F9FFF7DFFBDFF87407E4
:100F4000006830F4F85050EA0520DFF868170860B0
:100F500001F024F80600FFF747F9C0B201003000A5
:100F6000FFF707FBDFF85007FFF7C2FCFFF746F972
:100F7000FFF7D4FBFFE1202D05D341F26B31DFF801
:100F8000140700F0FBFFDFF83004006830F4F8507D
:100F900050EA0520DFF820140860ECE1B5F5007F89
:100FA00005D341F27231DFF8EC0600F0E7FFDFF81D
:100FB000F40300686FF3102050EA0520DFF8E41313
:100FC0000860D8E1B5F5007F05D341F27931DFF84B
:100FD000C40600F0D3FFDFF8D00300686FF31020E1
:100FE00050EA0520DFF8C0130860C4E1B5F5007FC2
:100FF00005D341F28131DFF89C0600F0BFFFDFF836
:10100000AC0300686FF3102050EA0520DFF89C1352
:101010000860B0E1B5F5007F05D341F28831DFF813
:10102000740600F0ABFFFFF758FADFF88406FFF70D
:10103000E5F8DFF8800300686FF3102050EA052020
:10104000DFF87013086000F0A9FF0600FFF7CCF886
:101050000100C9B23000FFF78CFADFF85C06FFF739
:1010600047FCFFF7CBF886E12000DFF81016884236
:1010700019D0DFF8301688422ED0DFF804168842E7
:101080003ED0DFF80016884252D0DFF8FC158842C7
:1010900000F07F80DFF8F41588427AD0DFF8F01591
:1010A00088425ED08EE0B5F5004F05D941F29C3103
:1010B000DFF8E00500F062FF2800FFF76DF805009B
:1010C0000420FFF70FFBBD48006830F4702050EAA1
:1010D0000540BA4908607BE0032D05D341F2AD31EC
:1010E000DFF8B00500F04AFF5FF48020FFF7FAFA5E
:1010F000B3480068800880002843B149086067E071
:10110000B5F5004F05D941F2CA31DFF8880500F086
:1011100035FF2800FFF740F805000420FFF7E2FA4A
:10112000A6480068000900012843A44908604FE070
:10113000B5F5004F05D941F2D931DFF8580500F077
:101140001DFF2800FFF728F805000420FFF7CAFA62
:101150009A48006830F0F00050EA0510974908609E
:1011600036E0092D05D341F2E831DFF8280500F01B
:1011700005FF2800FFF710F805000420FFF7B2FA7A
:101180008E48006830F4407050EA05208B490860B2
:101190001EE0B5F5004F05D941F2F831DFF8F4044F
:1011A00000F0ECFE2800FEF7F7FF05000420FFF733
:1011B00099FA8248006830F4E04050EA05307F49EF
:1011C000086005E041F20641DFF8C80400F0D6FEF1
:1011D000D1E02000DFF8C014884208D0DFF8BC144A
:1011E00088421DD0DFF8B814884233D04FE0092D73
:1011F00005D341F20F41DFF89C0400F0BFFE280048
:10120000FEF7CAFF05004020FFF76CFADFF8640420
:101210000068800880002843DFF8581408603CE02C
:10122000092D05D341F21E41DFF8680400F0A6FE47
:101230002800FEF7B1FF05004020FFF753FADFF862
:101240003404006830F0300050EA0510DFF8241450
:10125000086022E0802D01D20F2D05D241F22D41F0
:10126000DFF8300400F08AFE2800FEF795FF001F2B
:1012700005004020FFF736FADFF8F803006830F485
:10128000405050EA0530DFF8EC13086005E041F209
:101290003C41DFF8000400F071FE6CE0DFF804046C
:1012A000844213D1032D05D341F24641DFF8E40314
:1012B00000F064FE5FF48020FFF714FA40480068F5
:1012C0008008800028433E49086005E041F256410D
:1012D000DFF8C00300F052FE4DE02000DFF8C81335
:1012E000884204D0DFF8C413884212D024E0042DD1
:1012F00005D341F26141DFF89C0300F03FFEDFF8C7
:1013000078030068800880002843DFF86C130860C9
:1013100018E0042D05D341F26941DFF8780300F0AD
:101320002DFEDFF85403006830F4403050EA0540E9
:10133000DFF84413086005E041F26F41DFF8540321
:1013400000F01CFE17E0B5F5007F05D341F27741B0
:10135000DFF8400300F012FE154800686FF310201C
:1013600050EA05201249086005E041F27E41DFF8AD
:10137000240300F003FEF1BDB0400E40C0400E401B
:10138000C4400E40E0400E40E8400E40EC400E40AD
:10139000F0400E4060410E4064410E40F0410E406E
:1013A00050410E400C410E4018410E401C410E4071
:1013B00004410E4008410E4014410E4020410E40B1
:1013C00030410E4070B50400012514F00F000600F6
:1013D000300001281BD002283FD0032855D0042814
:1013E00000F0888005286DD0062800F09B80082832
:1013F00000F0AA80092800F0C3800A2800F0DC80F1
:101400000B2800F0F2800C2800F0088128E1DFF8BA
:10141000D807006810F0070002280FD01AD304285C
:1014200006D008D3062812D00BD307280CD011E021
:101430000220050010E0032005000DE00420050057
:101440000AE00D20050007E00E20050004E00A2058
:10145000050001E00520050009E1DFF89C070068B0
:1014600010F00700012804D0022805D0042806D077
:1014700008E00320050007E00220050004E00C203E
:10148000050001E001200500F1E0DFF870070068C9
:1014900010F00700012806D011D303280CD005D383
:1014A000042806D00BE0032005000AE00220050016
:1014B00007E00C20050004E00620050001E0012003
:1014C0000500D4E0DFF83807006810F007000128B5
:1014D00004D0022805D0042806D008E00320050027
:1014E00007E00220050004E00C20050001E00120D7
:1014F0000500BCE0DFF80C07006810F007000128C9
:1015000004D0022805D0042806D008E003200500F6
:1015100007E00220050004E00C20050001E00120A6
:101520000500A4E0DFF8E006006810F003000028E2
:1015300004D0012805D10920050004E0072005009A
:1015400001E00120050092E04B48006810F03000F7
:10155000002806D0102807D0202808D0302809D02D
:101560000BE0012005000AE00720050007E0042049
:10157000050004E00820050001E00120050076E0F8
:101580003D48006810F44010002809D0B0F5801FD5
:1015900009D0B0F5001F09D0B0F5401F09D00AE00E
:1015A0000120050007E00720050004E004200500F5
:1015B00001E0082005005AE0DFF85006006810F04E
:1015C0000300002805D0022809D005D3032809D03C
:1015D0000AE00520050007E00420050004E00720DC
:1015E000050001E00A20050041E0DFF8240600685C
:1015F00010F00300002805D0022809D005D30328E5
:1016000009D00AE00520050007E00420050004E0F9
:101610000720050001E00A20050028E0DFF8F405B6
:10162000006810F00700002808D002280CD008D36A
:1016300004280FD00BD305280FD010E00A20050096
:101640000DE0042005000AE00B20050007E005205E
:10165000050004E00220050001E00320050006E08B
:101660000020050041F276610A4800F087FC28005E
:10167000C0B270BD28410E405C410E408046120051
:10168000800616008016180080002A0000362C0004
:1016900080262E003032010090071A0090171C009F
:1016A00090373000A0091400B8003200B9003400AF
:1016B0000148E80100410E4000050A002DE9F84FFD
:1016C00004000D00032603275FF0000B5FF0000A03
:1016D000112C19D1EDB2042D03D100F093FC8246F8
:1016E0000BE0EDB2052D08D100F080FADFF82815E7
:1016F000884202D300F07AFA8246BAF1000F03D092
:101700000021504600F0DAFC14F00F0081464846F4
:1017100001281ED0022800F09780032800F0BE8028
:10172000042800F09D80052800F0A980062800F01C
:10173000F580082800F00B81092800F03B810A2879
:1017400000F06B810B2800F0A5810C2800F0DF81F0
:1017500042E2EDB2280002280ED0032811D004285E
:1017600014D005281BD00A282CD00C282FD00D28E7
:101770001ED00E2821D031E00420060000200700F2
:1017800033E003200600012007002EE002200600BF
:1017900002200700DFF88404FEF730FD25E0012079
:1017A000060003200700DFF87404FEF727FD1CE0A5
:1017B000052006000320070017E007200600072089
:1017C000070012E006200600052007000DE041F2A8
:1017D0003471DFF8D80500F0D1FB03E241F2397132
:1017E000DFF8C80500F0CAFBFCE1FFB2072F05D007
:1017F000012201213800C0B200F018FAFEF76DFE98
:10180000FEF77BFFBAF1000F01D0FEF7E4FCDFF832
:1018100010040660DFF80C04FFF76AF8FEF7EEFC30
:1018200000F0BCFB0090FEF7DFFC0100C9B200989D
:10183000FEF79FFEBAF1000F03D10121002000F056
:101840003DFCFEF76BFFCDE1DFF8AC038346EDB264
:10185000062D05D141F27571DFF8500500F08EFBC1
:10186000BBF1000F02D1DFF89CB3FFE7EDB2062D0C
:1018700005D141F27F71DFF8340500F07FFBBBF149
:10188000000F02D1DFF878B3FFE7EDB2062D05D1E6
:1018900041F28971DFF8140500F070FBBBF1000F15
:1018A00002D1DFF858B3FFE7EDB22800012808D0D5
:1018B000022809D003280FD0062815D00C2820D0E4
:1018C00022E00020804626E001220121002000F0D5
:1018D000ADF9022080461EE001220121012000F026
:1018E000A5F90120804616E000F058FBFEF786FCC3
:1018F00001220021DFF83003FEF72AFC0320804696
:1019000009E00420804606E041F2AE71DFF89C0455
:1019100000F034FB66E1CBF8008063E1EDB2280013
:10192000072802D0092805D009E00020DFF8D812E6
:1019300008600BE00120DFF8D012086006E041F6F5
:101940003801DFF8680400F019FB4BE14AE1EDB221
:101950002800012806D004280FD0072805D0082821
:1019600013D015E00020804619E001220121042057
:1019700000F05CF90120804611E0012201210220E3
:1019800000F054F90220804609E00320804606E07A
:1019900041F69601DFF8140400F0F0FA22E1DFF8D6
:1019A0001004006830F0300050EA0810DFF800142E
:1019B000086017E1EDB22800012806D004280FD0F6
:1019C000072805D0082813D015E00020804619E02C
:1019D00001220121042000F029F90120804611E0B4
:1019E00001220121022000F021F90220804609E0B5
:1019F0000320804606E041F6B901DFF8B00300F0AD
:101A0000BDFAEFE0DFF8A803006830F4401050EAB8
:101A10000850DFF89C130860E4E0EDB228000428C9
:101A20000ED0052804D0072812D00A2818D01FE0AD
:101A300001220121032000F0F9F8002080461EE079
:101A400001220121022000F0F1F80120804616E079
:101A500001220121042000F0E9F8022080460EE076
:101A600001220121052000F0E1F80320804606E074
:101A70004FF4C751DFF8340300F080FAB2E0DFF82A
:101A80008C0100688008800058EA0000DFF87C11B3
:101A90000860A7E0EDB2280004280ED0052804D085
:101AA000072812D00A2818D01FE0012201210320A4
:101AB00000F0BCF8002080461EE001220121022037
:101AC00000F0B4F80120804616E001220121042034
:101AD00000F0ACF8022080460EE001220121052032
:101AE00000F0A4F80320804606E041F60711DFF875
:101AF000BC0200F043FA75E0DFF8140100688008CA
:101B0000800058EA0000DFF8081108606AE0EDB2D2
:101B1000280002283ED0032844D004280ED00528EF
:101B200030D00A2802D00B2810D043E00122012136
:101B3000052000F07BF80020804642E001220121D0
:101B4000022000F073F8012080463AE000F05AFAD3
:101B5000DFF8A013884205D341F62211DFF84C02CA
:101B600000F00CFADFF89003006850F00800DFF88E
:101B70008813086001220121022000F057F802209A
:101B800080461EE001220121032000F04FF80320CF
:101B9000804616E001220121002000F047F80420D1
:101BA00080460EE001220121012000F03FF80520CF
:101BB000804606E041F64111DFF8F00100F0DEF961
:101BC00010E0DFF850000068C008C00058EA0000CC
:101BD000DFF84010086005E041F66D11DFF8CC0138
:101BE00000F0CCF9BDE8F18F94400E40DFF86003BF
:101BF000006870470000000080400E4084400E40A6
:101C000088400E408C400E4070400E4060410E40B7
:101C100064410E40F0410E40012D31010148E801C0
:101C200074400E4000050A00B0400E402DE9F84F08
:101C300004000D001600E4B2002C2CD0022C0FD0B2
:101C400020D3042C15D002D3052C2FD039E001204D
:101C5000814602208246012007000020804636E0AF
:101C60000420814608208246032007000220804687
:101C70002DE0102081462020824605200700042008
:101C8000804624E0402081468020824607200700CD
:101C9000062080461BE04FF4807081464FF40070B0
:101CA0008246092007000820804610E04FF480603B
:101CB00081464FF4006082460B2007000A208046D0
:101CC00005E041F66551394800F058F96CE0EDB295
:101CD000002D58D05FF0000BE4B2022C18D1FEF7B3
:101CE0006CFC012814D1DFF880020068400504D4A0
:101CF00041F674512D4800F041F9012083467E4899
:101D0000006810F00300032802D10220FEF75BFCFC
:101D10009048C0F8009041468F48FEF720FA00280E
:101D2000F9D0F6B2002E3FD039008B48FEF717FAF3
:101D30000028F9D0E4B2022C36D15FFA8BFBBBF15C
:101D4000000F31D06C48006810F00300032803D066
:101D50000021022000F0D2F8022000F02BF80090C1
:101D6000012200210220FFF761FF0099022000F00C
:101D70004FF87848C0F8009039007748FEF7EFF93F
:101D8000002811D1F8E77348C0F800A07248006835
:101D900030FA08F0C007F9D4F6B2002E04D06E482D
:101DA0000068F840C007FAD4BDE8F18F3032010076
:101DB0005C410E4038B50400E4B22000012806D092
:101DC00003280AD0042814D005280CD017E067484F
:101DD0000068C005C00D050018E06048006810F0FC
:101DE0007F00050012E05F48006810F07F000500EA
:101DF0000CE05F48006810F07F00050006E000205E
:101E0000050041F6F1515B4800F0B8F8280032BDFA
:101E100038B504000D00E4B22000012806D00328E4
:101E20001CD0042848D005282FD05CE0B5F5007FF1
:101E300004D341F617614F4800F0A0F8ED05ED0D11
:101E40001A214748FEF78BF90028F9D14748006866
:101E5000400A400228434549086049E0802D04D3E8
:101E600041F62461434800F089F815F07F051821F8
:101E70003B48FEF774F90028F9D138480068C009DA
:101E8000C00128433549086032E0802D04D341F673
:101E90003261384800F072F815F07F051E21304895
:101EA000FEF75DF90028F9D12E480068C009C0018D
:101EB00028432C4908601BE0802D04D341F63F6184
:101EC0002C4800F05BF815F07F0519212448FEF737
:101ED00046F90028F9D126480068C009C001284306
:101EE0002349086004E041F66861224800F046F8A2
:101EF00031BD000041787D0124400E4070B50400E2
:101F00000D00E4B2022C04D04FF4F4510F4800F05D
:101F100035F8FEF752FB012803D15FF4800006007C
:101F20000DE0EDB2002D03D15FF48000060006E065
:101F30001148060041F69B61044800F01FF806486E
:101F400000683040B042FAD1012070BD303201004B
:101F50002801002060400E4090400E4010400E408E
:101F600040410E4008400E403C300E4020400E40A4
:101F700018400E4030320100FF3F473AFEE7036849
:101F80001AB95A1E026008467047197811B94FF005
:101F9000FF307047591C01601878704738B500F061
:101FA0000FF8040022480068C0F308200500681CF0
:101FB000B4FBF0F41F480460200032BD1E48704797
:101FC0001E49096811F0070102290CD00FD304291A
:101FD00001D004D30BE01A49096808000AE04FF465
:101FE0000041080006E017490968080002E01649A8
:101FF0000968080015490968C1F30421491CB0FBB0
:10200000F1F070470F4800687047114811490860A7
:102010001148006850F470000F49086070474FF491
:10202000004070474FF47A70704705480068704769
:1020300008410E402401002000A24A0494400E40B2
:10204000200100201C0100202801002000410E403A
:102050000000000008ED00E088ED00E08B0013EBCD
:10206000401313F184431A6070470200880010EB9C
:10207000421010F184400068704780B51221DFF8EB
:10208000D804FFF7F2FF0028F8D101BD80B5FFF7B3
:10209000F4FFDFF8C4040068000C10F0030002BD78
:1020A000DFF8B81408607047DFF81C060068704756
:1020B0001021D0F1020011FA00F07047F8B50400C9
:1020C0000D00DFF86C090068C0F30420471C002CE9
:1020D00004D1FFF775FF7843060000E02600DFF823
:1020E00054090078002809D0DFF84C09864205D24F
:1020F0002900C9B2022000F007F804E02900C9B2A3
:10210000002000F001F8F1BD2DE9F84304000D00B6
:10211000DFF81C090068C0F30420471CFFF750FFDC
:102120008046FFF7B3FF814648462100C0B2C9B2DE
:10213000884226D007FB08F00600E4B2022C0DD13D
:10214000DFF8F808864205D340F2B341DFF8DC0837
:10215000FFF714FF02214046FEF70BFA2000C0B241
:10216000FFF7A6FFDFF8F8130860EDB2002D01D0ED
:10217000FFF783FFE4B2002C03D100214046FEF7B5
:10218000F8F9BDE8F1830120704710B5DFF8B00819
:10219000006850F08070DFF8A81808600021DFF8B0
:1021A000AC08FFF762FF0400002C03D0042000F00D
:1021B00019FC02E0002000F015FC10BD2DE9F843E9
:1021C0005FF001085FEA0859DFF880080068C0F393
:1021D00003200600DFF86C080088DFF8681809881B
:1021E0002831490808182830711C05225143B0FBDA
:1021F000F1F0401E0400072C00D30724240634F01D
:10220000E060002805D040F2CE61DFF82008FFF73B
:10221000B5FE39F4E000002805D040F2CF61DFF8C8
:102220000C08FFF7ABFEDFF82408006830F0EE6022
:10223000204359EA0000DFF814180860DFF80808A6
:10224000B0F90000002829D4DFF8FC070088070057
:10225000BFB217F12800400810FA87F02830711C2F
:10226000721C520812EB4101B0FBF1F00500072D82
:1022700000D307252D0135F07000002805D040F26D
:10228000E761DFF8A807FFF779FEDFF8D4070068F9
:1022900030F070002843DFF8C8170860BDE8F1830C
:1022A000DFF8A0271080DFF8A0271180704710B555
:1022B0000400E4B2002C02D0012C06D00BE0DFF8C1
:1022C0009007DFF8901708600BE0DFF88C07DFF865
:1022D0008417086005E040F21371DFF85007FFF73C
:1022E0004DFE10BDF8B504000D001600DFF86C07B8
:1022F00000680700EDB2002D05D0022D09D005D3EE
:10230000032D09D00AE007F0FF070FE0C7F3072706
:102310000CE0C7F3074709E03F0E07E040F25771B2
:10232000DFF80807FFF72AFE002032E0F6B2002EA1
:1023300015D13F0337F47040002807D040F2627196
:10234000DFF8E806FFF71AFE002022E0DFF8F006CB
:10235000006830F470403843DFF8E4160860F6B2E5
:10236000012E15D13F0337F47040002807D040F20A
:102370006E71DFF8B806FFF701FE002009E0DFF814
:10238000F006006830F470403843DFF8E416086067
:102390000120F2BD2DE9F04704000D0016001F00DA
:1023A0005FF000085FF00009FFB2F6B256EA072AB4
:1023B0005046002836D0401E0CD0FF383CD0401E7E
:1023C00012D0FF3842D0401E18D0FF3848D0401EEF
:1023D0001ED04FE0DFF88C0600688046C8F3072067
:1023E000814608F0FF084BE0DFF878060068804679
:1023F0005FEA18608146C8F3074841E0DFF86806E5
:1024000000688046C8F30720814608F0FF0837E0DF
:10241000DFF85406006880465FEA18608146C8F31A
:1024200007482DE0DFF8440600688046C8F307201F
:10243000814608F0FF0823E0DFF830060068804698
:102440005FEA18608146C8F3074819E0DFF8240600
:1024500000688046C8F30720814608F0FF080FE0B7
:10246000DFF81006006880465FEA18608146C8F30E
:10247000074805E040F2D371DFF8B005FFF77EFDB5
:10248000C4F80080C5F80090BDE8F08738B50400B6
:10249000DFF8E4050068C007FAD4DFF8E00500685B
:1024A00010F003000500002D05D001220D21DFF8FA
:1024B000D005FFF7D3FD28002100C0B2C9B2884281
:1024C00009D1E4B2002C05D100220D21DFF8B005BE
:1024D000FFF7C4FD3FE0032D01D0002D1CD1E4B275
:1024E000022C02D0E4B2012C16D15FF40020FFF7D9
:1024F000D7FDDFF884050068C007FAD4DFF87C0553
:1025000000688008800050F00100DFF87015086056
:10251000FFF7CAFD0003FBD5DFF85C050068C007C4
:10252000FAD4DFF85805006880088000E4B2204340
:10253000DFF848150860DFF840050068C007FAD4E6
:10254000E4B2002C01D1002200E001220D21DFF8CD
:102550003005FFF783FD31BD04300E402C300E40B6
:1025600010300E4038B50400FFF70DFE2089C92851
:1025700005D340F67701DFF8B404FFF7FFFC2089AC
:10258000A188884205D240F67801DFF8A004FFF761
:10259000F5FCB4F90C00C92805DB40F67901DFF839
:1025A0008C04FFF7EBFC6078012809D1A088C928CA
:1025B00012D340F67D01DFF87404FFF7DFFC0BE077
:1025C0006078022808D1A0880B2805D340F6820144
:1025D000DFF85804FFF7D2FCE08842F2117188421C
:1025E00005D340F68A01DFF84404FFF7C7FCE08812
:1025F0004B2802D20020050013E0E088B0F5FA7FF6
:1026000003D25FF0805005000BE0E08840F6C41173
:10261000884203D25FF00050050002E05FF04050B6
:102620000500DFF828040068B4F90C10002901D473
:10263000012100E00021DFF8542410402843084322
:10264000DFF808140860DFF82804006850F44070D0
:10265000DFF81C140860FFF798FDB4F90C1020890E
:10266000FFF71EFEA088DFF820140880A08800F085
:1026700061F9A07BFFF71BFE01220121608800F0B9
:1026800025F8002807D140F6C101DFF8A003FFF7C5
:1026900075FC002016E0DFF8F803006850F4806055
:1026A000DFF8EC1308606078FFF7F0FEA07A2028CE
:1026B00001D1012200E000220521DFF8D403FFF759
:1026C000CDFC012032BD000024300E402DE9F04F3A
:1026D0008BB004000D00160000275FF0000868466C
:1026E0000021002200230EC00C3804A80021002283
:1026F00000230EC00C3807A80021002200230EC0C2
:102700000C3803A800210160B4F5E16F06D340F650
:10271000B930844202D25FF0010A01E05FF0000AA2
:102720005FFA8AFABAF1000F06D140F60611BF48E7
:10273000FFF724FC0020F9E0B4F5E16F02D95FF067
:10274000010B01E05FF0000B5FFA8BFBBBF1000FA8
:1027500009D04FF4E160070040F6B8308046B8EB8E
:102760000700814608E04FF4966007004FF4E160EF
:102770008046B8EB070081465FFA8BFBBBF1000F88
:102780000BD0DFF81003006806900698000E099041
:102790000698C0F3074006900CE0DFF8F8020068E6
:1027A00006900698C0F3072009909DF8180000F0E5
:1027B000FF000690DFF894020068000F10F003009D
:1027C0008DF80C009DF80C305A46D2B207A904A827
:1027D000FFF7E0FDDFF898020068000A10F0030040
:1027E0008DF80D009DF80D305A46D2B208A905A803
:1027F000FFF7D0FDE01B0999069A891A4843B0FB00
:10280000F9F002900298069908180290E01B0799C7
:10281000049A891A4843B0FBF9F000900098049993
:1028200008180090E01B0899059A891A4843B0FBE4
:10283000F9F00190019805990818019009980299FA
:10284000884213D30298069988420FD308980199B9
:1028500088420BD301980599884207D307980099BD
:10286000884203D300980499884206D240F6541156
:102870006E48FFF783FB002058E0F6B2002E14D01C
:10288000DFF8140200685FFA8BFBBBF1000F01D088
:10289000022100E00021DFF804221040029A50EAF1
:1028A00002200843DFF8F0110860EDB2002D3CD0A3
:1028B00000229DF80C105846C0B2FFF713FD002807
:1028C00006D140F663115948FFF758FB00202DE070
:1028D00001229DF80D105846C0B2FFF703FD0028F5
:1028E00006D140F66B115148FFF748FB00201DE070
:1028F00001980099884201D2009800E00198009068
:102900000098E72801D2009800E0E7200090DFF867
:1029100090010068400A40025FFA8BFB00995BEA75
:1029200041010843DFF87811086001200BB0BDE8D1
:10293000F08F000070B504000025DFF84801006842
:1029400010F00706DFF804010068C00710D5022E5A
:102950000ED3142C02D20420050033E0142C04D32F
:10296000282C02D2082005002CE01020050029E0C8
:10297000DFF8D8000068C00710D4022E0ED20A2C4F
:1029800002D2042005001DE00A2C04D3142C02D22C
:102990000820050016E01020050013E0DFF8AC0069
:1029A0000068C00709D5022E07D2282C02D20820C1
:1029B000050007E01020050004E040F6A9111B48BF
:1029C000FFF7DCFA6D1E280350EA0525DFF87C00CE
:1029D000006830F47F402843DFF870100860FFF78C
:1029E000EDFB70BD38B504000021DFF86000FFF793
:1029F0003CFB0500002D02D1E4B2022C06DB002DC9
:102A000004D140F6C8110948FFF7B8FADFF874009E
:102A10000068C008C000E4B22043DFF86810086016
:102A2000DFF864000088FFF785FF31BD4432010004
:102A300000410E4004950020002D3101012D31018F
:102A40006C300E405E950020629500204C300E40A8
:102A50007740205758300E40372110B73083E00FB1
:102A600050300E402483E00F2883E00F1C83E00FDA
:102A7000EC300E402083E00F78300E4040300E40A6
:102A800054300E4070300E4060950020FEFFFFCFA6
:102A90003C300E401883E00F5C300E40FD80FFFF9D
:102AA00064300E4070B50400002C01D101F054F8E0
:102AB000DFF8F408406800283AD0DFF8EC08006836
:102AC000002812D12300DFF8E00840688200DFF818
:102AD000D808816CDFF8CC0801F0BAF8DFF8CC1820
:102AE00008602078002806D054E2DFF8BC080068AF
:102AF000DFF8B8180860DFF8B4080068DFF8CC1910
:102B00000860DFF8A4084068DFF8C4190860DFF83F
:102B1000980840688000DFF898180860DFF8A0097E
:102B20000068DFF88C1809680818DFF89419086045
:102B3000DFF87408008900282FD02300DFF8680828
:102B400000890201DFF86008816CDFF8680801F095
:102B50007FF8DFF8641808602078002840F01A82B7
:102B6000DFF854080068DFF854180860DFF8380808
:102B70000089DFF898190880DFF82C080089000127
:102B8000DFF83C180860DFF838090068DFF8301813
:102B900009680818DFF828190860DFF80C08406990
:102BA000002847D0DFF800080069002812D1230070
:102BB000DFF8F40740698200DFF8EC07816CDFF88A
:102BC000040801F045F8DFF80018086020780028B4
:102BD00006D0DFE1DFF8D0070069DFF8EC17086006
:102BE000DFF8E4070068DFF8E4170860DFF8B807EB
:102BF0004069DFF8B417C96848436421B0FBF1F0BD
:102C0000DFF8CC170860DFF8A0074069DFF8B418D8
:102C10000860DFF8940740698000DFF8AC180860AE
:102C2000DFF89C080068DFF8A01809680818DFF8CA
:102C300090180860DFF87007C06A002854D0DFF8E9
:102C40006807806A002812D12300DFF85C07C06A99
:102C50008200DFF85407816CDFF8780800F0F8FF95
:102C6000DFF8741808602078002806D092E1DFF8B9
:102C70003807806ADFF860180860DFF82C07406BBF
:102C8000DFF8F4180860DFF8200790F83000DFF86C
:102C900080180870DFF840080068DFF878180860CE
:102CA000DFF80407C06ADFF80017C96848436421E9
:102CB000B0FBF1F0DFF860180860DFF8EC06C06ADE
:102CC000DFF858180860DFF8E006C06A8000DFF817
:102CD00050180860DFF8E8070068DFF84418096852
:102CE0000818DFF8DC170860DFF8BC06C0690028A8
:102CF00054D0DFF8B4068069002812D12300DFF831
:102D0000A806C0698200DFF8A006816CDFF86C08B5
:102D100000F09EFFDFF8681808602078002806D0D1
:102D200038E1DFF884068069DFF854180860DFF8BE
:102D3000780690F82000DFF84C180870DFF8680675
:102D4000406ADFF844180860DFF834080068DFF8EC
:102D500090180860DFF85006C069DFF84C16C968A3
:102D600048436421B0FBF1F0DFF878180860DFF821
:102D70003806C069DFF870180860DFF82C06C069F3
:102D80008000DFF868180860DFF834070068DFF8B3
:102D90005C1809680818DFF828170860DFF80806CB
:102DA000C06B002854D0DFF80006806B002812D1D9
:102DB0002300DFF8F405C06B8200DFF8EC05816CBE
:102DC000DFF82C0800F044FFDFF8281808602078AE
:102DD000002806D0DEE0DFF8D005806BDFF814189D
:102DE0000860DFF8C40590F84000DFF80C180870A0
:102DF000DFF8B405406CDFF804180860DFF8F4076A
:102E00000068DFF8FC170860DFF89C05C06BDFF88E
:102E10009815C96848436421B0FBF1F0DFF8301819
:102E20000860DFF88405C06BDFF828180860DFF859
:102E30007805C06B8000DFF848180860DFF880066E
:102E40000068DFF83C1809680818DFF87416086095
:102E500001F054FB0020DFF82C1808700020DFF888
:102E6000281808700020DFF8241808700020DFF808
:102E7000201808600020DFF81C1808600020DFF828
:102E8000181808700020DFF8141808700020DFF808
:102E900010180870DFF8E00600680A21B0FBF1F0B6
:102EA000DFF800180860DFF828060068002818D04E
:102EB000DFF8180600680500002D0AD0DFF81006BC
:102EC00000680600002E04D0761E002028602D1D0C
:102ED000F8E7DFF8FC050168DFF8F005006802F0AC
:102EE000F3FB0020DFF8C017087002F0ADFC00F023
:102EF000D5FC0020DFF8B41708600020DFF8B01719
:102F00000880DFF808060088002805D0200002F0BD
:102F1000EBFC207800283DD10020DFF898170860EE
:102F20000020DFF8941708800020DFF89017086071
:102F30000020DFF88C1708800020DFF88817086071
:102F40000020DFF884170880200002F0EBFA2078D8
:102F500000281FD1200000F0E5FA2078002819D1C0
:102F6000200002F07BFD2078002813D1200003F020
:102F7000E1F9207800280DD1200003F089FA2078AB
:102F8000002807D103F0C8FB03F0F0FC0120DFF8B4
:102F90001014087070BD10B504F0BFF8DFF8E80633
:102FA0000078012811D104F0D7FA0400DFF8D40624
:102FB0000078FA2806D2DFF8CC060078401CDFF84B
:102FC000C4160870200004F0CBFA10BD38B5DFF845
:102FD000B8060078012802D004F0CAF881E004F0B5
:102FE000BBFA0500DFF89C060078002805D104F044
:102FF000BFF8280004F0B4FA73E0DFF88806007820
:10300000401EDFF880160870DFF878060078002888
:1030100005D004F0ADF8280004F0A2FA61E0DFF872
:103020006C060078002805D004F0A2F8280004F00F
:1030300097FA56E0DFF89804006800280ED0DFF811
:1030400090040168DFF88404006802F02AFB0400A1
:10305000E4B2012C02D0002001F068FA02F0FFFB7C
:10306000DFF838160870DFF81009DFF83016097835
:103070000C2251434058DFF81C160860DFF8140694
:103080000068DFF80C160968884211D1002002F0B0
:10309000E6F90400E4B2012C04D0DFF8F40500687E
:1030A00001F044FA04F064F8280004F059FA18E03A
:1030B000DFF8E0050068D0F8B400401CDFF8D41554
:1030C0000968C1F8B400DFF8240A0068401CDFF882
:1030D0001C1A086004F05EF804F096FA280004F068
:1030E0003FFA31BD10B5DFF8A0050078012800D007
:1030F000FEE7DFF890050078002848D1DFF88C055E
:103100000078002843D104F027FA040002F0A7FB5E
:10311000DFF888150870DFF86008DFF88015097897
:103120000C2251434058DFF86C150860DFF8640545
:103130000068DFF85C150968884203D1200004F0BC
:103140000FFA24E0DFF84805006890F83E000028F8
:1031500004D1DFF83C05006804F093FADFF8340589
:103160000068D0F8B400401CDFF828150968C1F8E1
:10317000B400DFF878090068401CDFF870190860B7
:1031800004F03EFA200004F0EBF9BFF36F8F10BD9E
:1031900038B50400002C01D100F0DEFCDFF8E404B7
:1031A0000078002815D020202070DFF84409D0F8DE
:1031B00080006060DFF83C09D0F88000A060DFF894
:1031C0003809E0604FF462702061DFF83009606117
:1031D000FEE7DFF8B4040078012813D00220207045
:1031E000DFF80C0980686060DFF808098068A0607B
:1031F000DFF80409E06040F28B302061DFF8FC0862
:103200006061FEE7DFF884040078FA2813D31E20FB
:103210002070DFF8DC08806F6060DFF8D808806F0E
:10322000A060DFF8D408E06040F28E302061DFF863
:10323000CC0860611FE004F08FF90500DFF84C0452
:103240000078401CDFF844140870280004F088F966
:1032500000202070DFF8980800686060DFF89408AC
:103260000068A060DFF89008E06040F299302061CB
:10327000DFF88808606131BD38B50400002C01D149
:1032800000F06AFCDFF8FC030078002815D020204D
:103290002070DFF85C08D0F880006060DFF8540828
:1032A000D0F88000A060DFF85008E06040F2B13054
:1032B0002061DFF84C086061FEE7DFF8CC0300789E
:1032C000012813D002202070DFF824088068606095
:1032D000DFF820088068A060DFF81C08E0604FF489
:1032E0006D702061DFF818086061FEE7DFF89C036D
:1032F0000078002813D11F202070DFF8F407C06F7A
:103300006060DFF8F007C06FA060DFF8EC07E060F6
:1033100040F2B7302061DFF8E80760613FE004F079
:103320001BF90500DFF864030078401EDFF85C132A
:103330000870DFF858030078002818D0280004F03F
:103340000FF92D202070DFF8A807D0F8B4006060D6
:10335000DFF8A007D0F8B400A060DFF89C07E060B9
:1033600040F2BF302061DFF89807606117E0280065
:1033700004F0F6F8FFF7B6FE00202070DFF87007C3
:1033800000686060DFF86C070068A060DFF868071D
:10339000E06040F2C9302061DFF86407606131BD50
:1033A00071950020B8310100700000203494002095
:1033B00060940020CC3101003894002064940020F7
:1033C00068940020142401003094002048940020C8
:1033D0004C94002038B50400002C01D100F0BCFB57
:1033E000DFF820070078012813D013202070DFF8C1
:1033F0000007C06C6060DFF8FC06C06CA060DFF8FE
:10340000F806E06040F24B402061DFF8FC066061A6
:10341000FEE7002005006D1C6D1C6D1C6D1C280056
:10342000DFF8E816098880B2884213D3092020709B
:10343000DFF8BC06406A6060DFF8B806406AA0604A
:10344000DFF8B406E06040F25C402061DFF8B806C7
:103450006061FEE78C480078002813D01F202070A0
:10346000DFF88C06C06F6060DFF88806C06FA06070
:10347000DFF88406E06040F25F402061DFF88806F4
:103480006061FEE702F0EBF9844908708348007838
:1034900081490870DFF8E004804909780C22514323
:1034A00040587C4908607B480068794908600120E1
:1034B0007549087004F067F800F04EFB31BD00005C
:1034C000A894002050940020549400205894002088
:1034D0005C940020302401004094002038B50400A2
:1034E00004F03AF80500DFF828060068401CDFF811
:1034F00020160860DFF81C060068401CDFF8141670
:103500000860280004F02CF8EAE700004C95002041
:103510006A95002084940020889400208C940020D8
:103520009094002010B58AB004000020DFF8E01568
:10353000086008940B20079000200690002005905A
:1035400000200490DFF8D00500680390DFF8CC0578
:1035500000680290DFF8C805006801903F200090E5
:103560000023DFF8C025DFF8C015DFF8C00501F043
:1035700045F90AB010BD0000809400204C240100E1
:103580003C940020699500206C940020F8B504005C
:103590000D0016003E48006880F83C5000203C4971
:1035A000096881F83D0031003948006800F088FA68
:1035B000002C0BD014F10800070035480068846324
:1035C00033480168380000F09CF803E000203049DF
:1035D000096888632E480168200000F013F8F1BDE7
:1035E0007094002074940020789400207C94002033
:1035F00068240100449400206B95002094940020DE
:103600009894002010B400280AD04468C1F8E04023
:1036100010F10804220014682300DC68C46113E080
:1036200091F83C40022C02D0072C05D009E0DFF8CD
:103630000045C1F8E04007E0DFF8F844C1F8E04099
:1036400002E0CCA4C1F8E04010BC704700000000CC
:103650009C940020A094002010B4C6A4C1F8E040BF
:1036600000280BD010F10804220014682300002B5E
:1036700002D0DC68C46101E0BEA4C46110BC704724
:10368000A49400206F950020709500207495002070
:10369000FC94002000950020729500207395002076
:1036A00075950020BC94002078950020B0940020EF
:1036B0004E950020B494002050950020B89400202E
:1036C00052950020C09400205495002070B504004D
:1036D000A06B060016F1080005002868006B0028A2
:1036E00007D0200000F047F8A6632100280000F072
:1036F00008F870BD002101600021416000210181B6
:10370000704730B491F83F4022000468002C08D183
:103710000124048100240C6300244C630160416097
:1037200027E00489641C048104682300002B07D06F
:10373000140093F83F50E4B2AC4201D31B6BF5E7A1
:10374000002B07D100240C6344684C634C6B21634D
:1037500041600EE05C6B002C05D10B6300244C63D0
:103760005963016005E00B635C6B4C634C6B216338
:10377000596330BC704710B4846B002C2CD0846B20
:10378000083421000C68246B002C04D100240C6048
:1037900000244C6017E0446B002C05D1046B220020
:1037A000002454630A600EE0046B002C05D1446BC6
:1037B000230000241C634B6005E0446B2300046B72
:1037C00022001A6353630C89641E0C810024046375
:1037D000002444630024846310BC70472DE9F04149
:1037E00004000D0016001F00DDF8188095F83E005B
:1037F000002801280BD9801E012809D9801E012824
:1038000005D9801E012825D9F93842D042E043E08D
:10381000EE66A5F87070C5F85080002C02D0280024
:10382000FFF7A9FF29002000FFF716FF95F83E00DB
:10383000032802D1280002F065FA280000F041F8C0
:10384000002085F83E00002085F83D00002085F826
:103850003C0021E0EE66A5F87070C5F85080002CA1
:1038600002D02800FFF787FF29002000FFF7F4FEB1
:1038700095F83E00072802D1280002F043FA042000
:1038800085F83E00002085F83D00002085F83C00CA
:1038900002E001E000F060F9BDE8F08100221000D4
:1038A00040280DD2344A0C2303FB00F31A441100C4
:1038B00000220A8100220A6000224A60401CEFE7D1
:1038C000704710B5040094F83F0001F0DAFF94F857
:1038D0003F0099490978884203D1200000F029F877
:1038E00002E0200000F004F8200003F0C1FE10BD4B
:1038F00030B4214B90F83F400C256C432344190011
:103900000B68002B08D101230B81002303610023E6
:103910004361086048600AE00B895B1C0B810B68FF
:103920000361002343610B681A005061086030BCDA
:10393000704730B4104B90F83F400C256C43234443
:1039400019000B68002B08D101230B8100230361B0
:10395000002343610860486009E00B895B1C0B8110
:10396000002303614B681A0042611061486030BC5B
:103970007047000020000000AC7B002030B40468D9
:103980004568AC421FD0046824694568AC420CD13C
:1039900004682100446822004A6100240C6100246C
:1039A00054611161026041600DE0046821004468C7
:1039B00022000C69230000245C6100240C614A6130
:1039C00011610360416030BC7047F8B504005B488A
:1039D00094F83F100C22514308440500606906002A
:1039E00020690700002E13D1002F0AD10020288162
:1039F000002028600020686094F83F0001F059FF23
:103A00000FE02889401E2881002078612F6008E09F
:103A10002889401E28813761002F01D16E6000E0A7
:103A20007E610020606100202061200003F03FFEE5
:103A3000F1BD70B504004248007801283FD103F081
:103A40008BFD060020680500002D03D1300003F037
:103A500087FD34E03548854203D1300003F080FD16
:103A60002DE0A86E002802D0A86E401EA866A86EA1
:103A7000002803D0300003F073FD20E02068616867
:103A8000884203D1300003F06BFD18E02D48007828
:103A9000002803D0300003F063FD10E02000FFF7A2
:103AA0006DFF20680500686E002803D12648006875
:103AB000A86601E0686EA866300003F051FD70BD95
:103AC00038B504000D00002D08D02A0021001F4841
:103AD00002F052F8032084F83E0002E0022084F84D
:103AE0003E002000FFF771FF31BD0000D49400209C
:103AF00074000100C002010084240100A03901000B
:103B00001037010071950020203B01005A950020DC
:103B1000AC940020C4940020509400204C940020C9
:103B200048940020DD340000E03101001C8A0020B0
:103B3000283B0100AC39010072950020AC7B0020CD
:103B40007595002074950020BC94002014940020EA
:103B500080B500F005F801BDFEE705490860704733
:103B600080B500200249086003F052FE01BD00004C
:103B70000895002000B587B06946DFF8A00400F082
:103B800008F89DF80000002801D0FFF7E5FF07B016
:103B900000BDF8B504000D00002D01D1FFF7DCFFDA
:103BA000002C13D10A202870DFF85406806A686060
:103BB000DFF85006806AA860DFF84C06E86040F243
:103BC000B7202861DFF844066861FEE703F0C4FC13
:103BD0000700DFF83C0600680600002E1AD0A64257
:103BE00016D1380003F0BCFC15202870DFF8100651
:103BF000406D6860DFF80C06406DA860DFF80806CD
:103C0000E86040F2BE202861DFF8000668611EE02F
:103C1000F668E2E7DFF8F8050068E060DFF8F00535
:103C20000460380003F09CFC00202870DFF8D00509
:103C300000686860DFF8CC050068A860DFF8C80598
:103C4000E86040F2C9202861DFF8C0056861F1BD75
:103C50002DE9FE4304000D0016001F00A946002FA9
:103C600001D1FFF779FFB9F1000F02D1DFF8640845
:103C70008146029700200190012000900423320029
:103C80004946200000F0CCF980464046BDE8FE835E
:103C90002DE9FE4F04000D0016001F00DDF83080F6
:103CA000DDF83490AB46B9F1000F01D1FFF754FFB6
:103CB000BBF1000F02D1DFF81C088346CDF8089055
:103CC000CDF80480012000903B00320059462000CE
:103CD00000F0A6F982465046BDE8FE8F2DE9F04F70
:103CE00085B004000D0016001F00DDF83880DDF8F7
:103CF0003C90DDF840A0DDF844B00496BBF1000F25
:103D000001D1FFF729FF002D19D10A208BF80000FF
:103D1000DFF8EC04806ACBF80400DFF8E804806A7E
:103D2000CBF80800DFF8E004CBF80C0040F21240BA
:103D3000CBF81000DFF8A007CBF81400FEE70498DA
:103D4000002802D1DFF88C070490002028700020A2
:103D5000E86100202862CDF80CB0CDF808A0CDF8BD
:103D60000490CDF800803B00049A2900200000F068
:103D700051FA05B0BDE8F08F2DE9FE4304000D00B7
:103D8000002D01D1FFF7E8FE002C13D10A20287086
:103D9000DFF86C04806A6860DFF86804806AA860F5
:103DA000DFF86404E86040F2D5402861DFF82C07B2
:103DB0006861FEE703F0D0FB8046606910F1010FF7
:103DC0001BD0A0696169884217D3404603F0C8FB45
:103DD00018202870DFF82804006E6860DFF82404DB
:103DE000006EA860DFF82004E8604FF49C60286152
:103DF000DFF8E8066861002089E0A069401CA06146
:103E0000206900282AD0206906002078C0B2400826
:103E100010F0010090F00100C0B2012801D130681B
:103E200003E0A068304450F8040C2061404603F0E1
:103E300097FB00202870DFF8C80300686860DFF88F
:103E4000C4030068A860DFF8C003E86040F2EF40F8
:103E50002861DFF888066861300058E0404603F0CA
:103E60007FFB00200700207810F0010090F0010097
:103E7000C0B2012801D1012001E06068006902950B
:103E8000002101910090E368A2686168380000F0A9
:103E9000C7F80600287800280AD003F05DFB8046AA
:103EA000A069401EA061404603F05AFB00202EE0AE
:103EB000E06900282AD0236A320061682000D4F823
:103EC0001CC0E04781465FFA89F9B9F1010F1DD0A6
:103ED00003F042FB8046A069401EA061404603F00B
:103EE0003FFB1A202870DFF81803806E6860DFF847
:103EF0001403806EA860DFF81003E86040F21950E8
:103F00002861DFF8D8056861002000E03000BDE8D6
:103F1000FE832DE9F04104000D001600002E01D1B2
:103F2000FFF71AFE002C13D10A203070DFF8D00200
:103F3000806A7060DFF8CC02806AB060DFF8C80287
:103F4000F06040F23B503061DFF894057061FEE7AD
:103F5000002D13D10A203070DFF8A402806A70604F
:103F6000DFF8A002806AB060DFF89C02F06040F2E7
:103F70003C503061DFF868057061FEE703F0ECFA51
:103F80008046A069002816D1404603F0E9FA1720C0
:103F90003070DFF86C02C06D7060DFF86802C06DD1
:103FA000B060DFF86402F06040F245503061DFF845
:103FB0003005706130E0A069401EA061404603F00A
:103FC000CFFA2078C0B2400810F0010090F0010054
:103FD000C0B2012801D12F0002E0A0682844071FC9
:103FE00003F0BAFA8046206938602561404603F044
:103FF000B7FA00203070DFF8080200687060DFF860
:1040000004020068B060DFF80002F06040F2555032
:104010003061DFF8CC047061BDE8F081D800002089
:104020002DE9FE4F04000D0016001F00DDF8308062
:10403000DDF83490DDF838A0002E16D108208AF87B
:1040400000006F48006ACAF804006E48006ACAF8A7
:1040500008006D48CAF80C0040F2C660CAF81000AB
:10406000DFF88004CAF81400FEE7002F04D0781EA1
:10407000074201D1012000E00020012801D0002FDB
:1040800001D1012000E00020C0B2002816D1082094
:104090008AF800005A48006ACAF804005948006AC1
:1040A000CAF808005848CAF80C0040F2CA60CAF8BA
:1040B0001000DFF83004CAF81400FEE703F04CFAF1
:1040C0000290CDF804A0CDF8009043463A003100AC
:1040D000280000F026F883469AF8000000281AD03D
:1040E000029803F03DFA16208AF800004448806DDB
:1040F000CAF804004348806DCAF808004248CAF86C
:104100000C0040F2D560CAF81000DFF8D803CAF8F6
:104110001400002003E0029803F022FA5846BDE89C
:10412000FE8F2DE9F0470400089D099E002A01D169
:10413000042000E01000834206D2002A02D15FF082
:10414000040902E0914600E09946A068B9F1010A2D
:1041500010EA0A0F01D1002000E04846D4F808E038
:10416000B9F1010A3EEA0A0E10EB0E0E11EB0E0039
:10417000B3F1010A10EA0A0F01D1002000E0180093
:1041800011EB0E08B3F1010A38EA0A0810EB08082F
:104190006068D4F808A0B0EB0A00401C0700A068D3
:1041A000B8EB00008446674515D2002D02D0BCEB69
:1041B00007002860162030701148806D706011482B
:1041C000806DB0601048F0604FF4E4603061C64824
:1041D0007061002011E0C4F80880002030700848A9
:1041E0000068706007480068B0600748F06040F2FF
:1041F00026703061BC4870617046BDE8F0870000F1
:1042000074000100C0020100BC230100783A0100E3
:10421000149500202DE9F94F87B00C001500159E6C
:10422000089800280FD108203070B048006A7060EC
:10423000AF48006AB060AF48F06040F29170306102
:10424000AD487061FEE7149810F1010F03D0149887
:104250001399884201D3012000E00020C0B2002859
:104260000FD108203070A148006A7060A048006A31
:10427000B060A048F06040F2957030619E48706177
:10428000FEE71298002806D012981299491E08429B
:1042900001D1012000E00020012802D11298042859
:1042A00002D21298002801D1012000E00020C0B203
:1042B00000280FD1082030708C48006A70608C484C
:1042C000006AB0608B48F06040F29A7030618A48B2
:1042D0007061FEE71298002802D10420059001E0E9
:1042E000129805902078400810F0010000280ED0A8
:1042F000089810F0030F01D1002000E00420089975
:104300008908890010EB010818F1040807E00898F3
:10431000052802D3DDF8208001E05FF0040813983F
:10432000002800F0BA80207810F0010090F0010021
:10433000C0B2012802D10598039008E028690599C8
:10434000884202D20598039001E0286903900398FF
:10435000401E18EA000F01D1002000E003980399E5
:10436000491E38EA01014018049004981399484303
:1043700082460498BAEB000018EB000A2078C007C8
:104380000DD52869401E1AEA000F01D1002000E077
:1043900028692969491E3AEA010110EB010A0296CF
:1043A0000020019001200090039B524629000798AD
:1043B000FFF736FE07003078002840F0888027613C
:1043C0002078C0B2400810F0010090F00100C0B2A7
:1043D000012801D1BB460CE0089810F0030F01D171
:1043E000002000E00420089989088900401807EBA4
:1043F000000B01208146139881452BD20498384444
:10440000CBF80000E06900281CD0236A3A0029009C
:104410002000D4F81CC0E0478DF800009DF8000093
:1044200001280FD01A2030703048806E70603048FC
:10443000806EB0602F48F06040F2D77030612E4837
:10444000706144E0049810EB0B0B0498074419F1D9
:104450000109D0E70020CBF80000E06900281ED059
:10446000236A3A0029002000D4F81CC0E0478DF8E8
:1044700000009DF80000012811D01A2030701B4860
:10448000806E70601A48806EB0601A48F06040F22A
:10449000E77030611848706119E0002020616560A4
:1044A000C4F808800598E060149860610020A0615D
:1044B000002030700D48006870600D480068B060E2
:1044C0000C48F06040F2FA7030610B48706109B03E
:1044D000BDE8F08FD8000020183601002C3601000E
:1044E00040360100B0300100C83001007400010006
:1044F000C0020100BC230100A82901009B490968F2
:104500009B4A126801EB82019A4A11609949096835
:10451000C908C900974A116097490968080010F056
:104520004041B1F1404F00D0FEE7704710B50400A4
:10453000FFF712FB10BD704770477047704770B4AB
:104540000400039D02EB85063000C008C000001F78
:10455000001F5FF000760660001F884E0660001F97
:10456000874E0660001F874E0660001F864E06605D
:10457000001F864E0660001F854E0660001F854E98
:104580000660001F5FF082460660001F824E0660D4
:10459000001F824E0660001F814E0660001F5FF004
:1045A00081460660001F7F4E0660001F5FF0804658
:1045B0000660001F5FF07E560660001F0026066042
:1045C000001F5FF080760660001F0460001F764EBB
:1045D0000660001F5FF012360660001F5FF00336B2
:1045E0000660001F5FF002360660001F0360001FB8
:1045F0000160001F7FF012060660001F5FF0113699
:104600000660001F5FF010360660001F5FF009367D
:104610000660001F5FF008360660001F5FF0073677
:104620000660001F5FF006360660001F5FF005366B
:104630000660001F5FF004360660001F5B4E0660D8
:10464000001F5B4E0660001F5A4E0660001F5A4E48
:104650000660001F594E0660001F594E0660001F7D
:10466000584E0660001F584E0660001F574E0660E9
:10467000001F574E0660001F564E0660001F564E24
:104680000660001F554E0660001F554E0660001F55
:10469000544E0660001F5FF08346066070BC704792
:1046A00038B551480068006802F05EFF4F48006866
:1046B00002F0F1FF03F0C3F804004B4800684B49D7
:1046C0000968884215D048480068D0F8BC00201A14
:1046D00045490968C1F8B80043480068D0F8C000EF
:1046E00041490968D1F8B81008183F490968C1F86C
:1046F000C0003E480068C0F8BC40002000F0AFFE9B
:104700000500EDB2012D03D037480068FFF70EFF1A
:1047100036480068006802F030FF31BD704710B5C0
:1047200002F01AFF0400FEF736FC200002F018FF2A
:1047300003F072FBFEF74AFC10BD421E2C4B1A60C0
:104740002C4A1268110021F07F412A4A11602A4A3E
:10475000126852F00502284B1A60274A126852F07C
:104760000202254B1A607047000000005894002098
:104770005C9400202C94002034EF00E00000704195
:104780000000604100005041000040410000304105
:1047900000002041000010410000E0400000C04047
:1047A0000000A040000040408B5600000000F8418F
:1047B0000000F0410000E8410000E0410000D84165
:1047C0000000D0410000C8410000C0410000B841D5
:1047D0000000B0410000A8410000A0410000984145
:1047E0000000904100008841FC94002000950020CA
:1047F00014E000E020ED00E010E000E02DE9FE4FC5
:1048000084B00400DDF844B0129D139E189F002F61
:1048100001D1FFF7A1F9DFF890050078002814D046
:1048200020203870DFF87405D0F880007860DFF859
:104830007005D0F88000B860DFF86805F860E42003
:104840003861DFF870057861FEE7002C12D10A208C
:104850003870DFF84805806A7860DFF84405806AC0
:10486000B860DFF84005F860E7203861DFF84405FC
:104870007861FEE70598002812D10A203870DFF829
:104880001C05806A7860DFF81805806AB860DFF878
:104890001405F860EA203861DFF818057861FEE752
:1048A000BBF1000F12D10A203870DFF8F004806AE3
:1048B0007860DFF8EC04806AB860DFF8E804F8603C
:1048C000ED203861DFF8EC047861FEE7DFF8E804FA
:1048D0000068864212D208203870DFF8C004006AEF
:1048E0007860DFF8BC04006AB860DFF8B804F860EC
:1048F000F0203861DFF8BC047861FEE7B54212D3DE
:1049000008203870DFF89404006A7860DFF89004BB
:10491000006AB860DFF88C04F860F3203861DFF8D3
:1049200094047861FEE79DF84000402812D30820E7
:104930003870DFF86804006A7860DFF86404006AA1
:10494000B860DFF86004F860F6203861DFF86404CE
:104950007861FEE7DFF86404844216D09DF84000D9
:104960003F2812D108203870DFF83004006A7860E0
:10497000DFF82C04006AB860DFF82804F860FC2037
:104980003861DFF830047861FEE7200000F0E3FDD5
:1049900000203870DFF8040400687860DFF8000455
:1049A0000068B860DFF8FC03F86040F2031038617B
:1049B000DFF800047861BDF85C000321084210D0E4
:1049C000BDF85C0080070CD5DA4600208046B04573
:1049D00007D20020CAF800001AF1040A18F10108F1
:1049E000F5E7ED08ED000BEB85000390BDF85C00EA
:1049F00001900096039B5A4606990598FFF79FFD84
:104A00008246DA4516D232203870DFF89003D0F8AB
:104A1000C8007860DFF88803D0F8C800B860DFF815
:104A20008403F86040F21F103861DFF88803786172
:104A3000FFF792F83100584600F046FE0598A06254
:104A40000698E0620498E0609DF8400084F83F001A
:104A50009DF8400084F84000C4F800A00398A060CE
:104A6000159860661598002804D1DFF85403006893
:104A7000A06601E01598A06616986060C4F824B09E
:104A8000A664BDF85C00A4F84C00002081465FFAE3
:104A900089F9B9F1030F09D200205FFA89F904EB13
:104AA0008901C1F88C0019F10109F0E7BDF8501037
:104AB00014F1740000F083FF2000FFF73DFD002C8F
:104AC0000BD0200002F08AFBA06C0090636A94F87F
:104AD0003F20E168200002F0F4FD049A2100262026
:104AE00002F055FE049A14F17401232002F04FFEE7
:104AF00002F032FD029094F83F0000F0C2FE200068
:104B0000FEF717FF200000F0C9FCDFF8B8020088AC
:104B1000401CDFF8B0120880DFF89002007801280E
:104B200003D0029802F01CFD04E0029802F018FD88
:104B3000FEF7D8FA07B0BDE8F08F2DE9F041040088
:104B40000D00002D01D1FFF707F8DFF85C020078B7
:104B5000002815D020202870DFF84002D0F880000F
:104B60006860DFF83C02D0F88000A860DFF834020B
:104B7000E8604FF4D5702861DFF84C026861FEE709
:104B8000DFF828020078012813D002202870DFF80F
:104B90000C0280686860DFF808028068A860DFF8AF
:104BA0000402E86040F2AD102861DFF81C02686181
:104BB000FEE7002C09D102F0CFFC8046DFF8F001BF
:104BC00000680400404602F0CBFCDFF8F0018442AC
:104BD00013D108202870DFF8C401006A6860DFF88C
:104BE000C001006AA860DFF8BC01E86040F2B710BD
:104BF0002861DFF8D4016861CEE002F0ADFC8046A8
:104C000094F83E00002810D0012813D0022815D0B7
:104C1000032813D004280CD005280BD006280DD06B
:104C200007280BD0FF2869D07FE02000FEF7CDFEDB
:104C300080E07FE0200001F065F87BE094F83C0024
:104C400000280ED001280DD002280AD004280DD04B
:104C5000052807D0062805D0072802D0082801D04B
:104C60003EE03FE02000FEF786FD3BE0A06B406A9F
:104C7000060096F83F0007002000FEF77CFD96F83E
:104C80003F0096F84010884212D096F83F0094F802
:104C90003F1088420CD1300003F047FD070096F822
:104CA00040003900C9B2884202D296F84070FFE74E
:104CB000002084F83C00380096F83F10C0B28842CB
:104CC0000DD03900C9B2300000F00BFD300002F009
:104CD00073FB96F83F2001002E2002F03CF801E023
:104CE000FEF73AFF94F83E00032803D094F83E0004
:104CF000072802D1200001F005F81BE0404602F031
:104D00002FFC1F202870DFF89400C06F6860DFF868
:104D10009000C06FA860DFF88C00E86040F2FF10E0
:104D20002861DFF8A400686104E0404602F018FC46
:104D3000FEF712FF606C002802D0200003F014FD83
:104D400014F1740000F015FE2000FFF7F6FB2000C0
:104D500000F0BEFBDFF86C000088401EDFF8641036
:104D60000880FF2084F83E00404602F0F9FB002056
:104D70002870DFF8280000686860DFF82400006809
:104D8000A860DFF82000E86040F227202861DFF803
:104D900038006861FEF7A6F9BDE8F08174000100F3
:104DA000C0020100102501006F95002070950020C1
:104DB000FC94002050370100603B01001C8A002059
:104DC000BC9400205A950020003A01002DE9F843D8
:104DD00004000D0016001F00002F01D1FEF7BCFEDD
:104DE000DFF8B4060078002815D020203870DFF8EE
:104DF000F802D0F880007860DFF8CC04D0F88000AA
:104E0000B860DFF8C804F86040F2DE403861DFF8CF
:104E100010077861FEE7DFF8AC040078012813D0B2
:104E200002203870DFF8C00280687860DFF89804EC
:104E30008068B860DFF89404F86040F2E1403861BF
:104E4000DFF8DC067861FEE7ADB2002D03D0ADB22D
:104E5000B5F5004F01D1012000E00020C0B20028CC
:104E600013D108203870DFF88002006A7860DFF81C
:104E70005804006AB860DFF85404F86040F2E54076
:104E80003861DFF89C067861FEE702F065FB814639
:104E9000DFF83C040068806D00284DD0DFF8300456
:104EA0000068806D401EDFF8281409688865DFF807
:104EB00020040068806D8046002E04D0DFF81004C6
:104EC0000068006D306002F0BAFCDFF80414096875
:104ED000096D401ADFF8F8130968C1F8C800DFF857
:104EE000F0030068D0F8CC00DFF8E4130968D1F8CB
:104EF000C810884209D2DFF8D8030068D0F8C8008B
:104F0000DFF8CC130968C1F8CC00484602F028FB52
:104F100000203870744800687860DFF8AC030068DF
:104F2000B860DFF8A803F86040F2F9403861DFF8B4
:104F3000F00578614046D3E0ADB228041AD5484662
:104F400002F00EFB002E01D0002030601D203870D2
:104F50006548406F7860DFF87003406FB860DFF835
:104F60006C03F86040F206503861DFF8B4057861F0
:104F70000020B5E05B48007800281CD0002E01D04E
:104F800000203060484602F0EBFA2D203870564879
:104F9000D0F8B4007860DFF83003D0F8B400B8601F
:104FA000DFF82803F86040F212503861DFF870052E
:104FB0007861002094E0220007210020FEF7E6FA45
:104FC000484602F0CDFAFEF78DF802F0C5FA8146A8
:104FD000DFF8FC02006890F83D00002804D00128AA
:104FE0003ED0032858D070E0002E26D0DFF8E00233
:104FF0000068006D306002F022FCDFF8D41209680E
:10500000096D401ADFF8C8120968C1F8C800DFF856
:10501000C0020068D0F8CC00DFF8B4120968D1F8FB
:10502000C810884209D2DFF8A8020068D0F8C8008A
:10503000DFF89C120968C1F8CC00002038702A48BB
:1050400000687860DFF880020068B860DFF87C02F2
:10505000F86040F231503861DFF8C404786136E01E
:10506000002E04D0DFF868020068006D3060212057
:1050700038701D48D0F884007860DFF84C02D0F812
:105080008400B860DFF84402F86040F23B503861B9
:10509000DFF88C0478611AE0002E01D00020306027
:1050A000222038701048D0F888007860DFF81802A5
:1050B000D0F88800B860DFF81402F86040F245507C
:1050C0003861DFF85C04786101E0FEF745FDDFF848
:1050D00000020068806D8046484602F041FA404672
:1050E000BDE8F28374950020740001002DE9F843B7
:1050F00004000D001600002E01D1FEF72DFD7148B1
:105100000078012811D002203070DFF80C07806889
:1051100070606D488068B0606C48F06040F2BF50CD
:105120003061DFF8F8067061FEE7ADB2002D03D004
:10513000ADB2B5F5004F01D1012000E00020C0B2B2
:10514000002811D108203070DFF8CC06006A7060AA
:105150005D48006AB0605D48F06040F2C350306165
:10516000DFF8B8067061FEE702F069FB804602F0E6
:10517000F3F98146002C02D1554800680400C4F8B8
:10518000508000203070DFF89006006870604E4854
:105190000068B0604D48F06040F2D4503061DFF8F4
:1051A0007C0670610020070094F83E00002801286A
:1051B0000BD9801E01282BD9801E012805D9801EFD
:1051C000012825D9F9385DD073E0A06D10F1010FE9
:1051D00015D1484602F0C4F91E203070DFF83806B9
:1051E000806F70603848806FB0603848F06040F27F
:1051F000F3503061DFF82406706100205FE0A06D9D
:10520000401CA065A06D0700484602F0A9F955E0D2
:1052100094F83C00072812D1CDF80080002300222A
:1052200021000020FEF7DAFAA06D0700484602F0E0
:1052300097F9ADB2280424D4FDF754FF21E0A06D06
:1052400010F1010F15D1484602F08AF91E20307086
:10525000DFF8C405806F70601B48806FB0601B482A
:10526000F06040F22A603061DFF8B0057061002024
:1052700025E0A06D401CA065A06D0700484602F027
:105280006FF91BE0484602F06BF91F203070DFF821
:105290008805C06F70600C48C06FB0600B48F0604C
:1052A00040F23D603061DFF8740570610020070056
:1052B00004E0484602F054F9FEF74EFC3800BDE821
:1052C000F283000070950020C0020100102501004B
:1052D000FC9400202DE9F04704000D0016001F008B
:1052E000002F01D1FEF738FC6B480078002815D05C
:1052F00020203870DFF82005D0F880007860DFF8D3
:105300002005D0F88000B860DFF81805F86040F29A
:10531000A2603861DFF810057861FEE7002D13D137
:105320000A203870DFF8F004806A7860DFF8F00453
:10533000806AB860DFF8EC04F86040F2A56038617C
:10534000DFF8E4047861FEE7002E13D10A203870FC
:10535000DFF8C404806A7860DFF8C404806AB8604B
:10536000DFF8C004F86040F2A7603861DFF8B804E5
:105370007861FEE702F0F0F88246002C03D1DFF8F6
:10538000AC0400680400206800281AD1504602F0DE
:10539000E7F8002028600020306008203870DFF82F
:1053A0007804006A7860DFF87804006AB860DFF893
:1053B0007404F86040F2B2603861DFF86C04786120
:1053C0004BE094F84C00C0071AD4504602F0C8F8DD
:1053D000002028600020306007203870DFF8380493
:1053E000C0697860DFF83804C069B860DFF8340459
:1053F000F86040F2BA603861DFF82C0478612CE084
:10540000504602F0ADF800208046606A814619F1EE
:105410002009D9F80000002804D119F1040918F175
:105420000108F6E7B8F10808C5F80080A06CB0EBF9
:105430000800306000203870DFF8DC030068786016
:10544000DFF8DC030068B860DFF8D803F8604FF4D9
:10545000DB603861DFF8D0037861BDE8F08738B5EC
:105460000400002C03D1DFF8C403006804002068A6
:10547000616A884206D32068616AA26C01EB8201EE
:10548000884201D3002006E0A16C606A00F009F9AF
:1054900005002800C0B232BD6F9500200021C0F881
:1054A000D810DFF88C130968002903D10021C0F857
:1054B000DC1009E0DFF878130968C0F8DC10DFF8C9
:1054C00070130968C1F8D800DFF8641308607047EA
:1054D000D0F8D8301A00D0F8DC301900002A0AD1F0
:1054E000D34B1960002902D00023C1F8D830002323
:1054F000C0F8DC3012E0002906D10023C2F8DC300D
:105500000023C0F8D83009E0C2F8DC10C1F8D82078
:105510000023C0F8DC300023C0F8D830704700000A
:10552000603701000021C24A11600021C14A118088
:105530000021C14A116000210170B749096841602A
:10554000B74909688160B749C16040F6020101614D
:10555000BA494161704738B504000020206000203E
:10556000A0600020606000202061002060610020B9
:10557000A0610020E06100202062B148E0600020CE
:1055800060620020A0620020E06200202065002010
:10559000E0660020A4F87000002114F1740000F00F
:1055A0000EFA0020C4F884000020C4F8880000200F
:1055B000C4F898000020A4F8A0000020C4F89C00C3
:1055C0000020C4F8A4000020C4F8A80000200500B2
:1055D000EDB2032D07D20020EDB204EB8501C1F836
:1055E0008C006D1CF4E70020A0650020C4F8C80002
:1055F0000020C4F8CC000020A064002084F8AC0097
:105600000020C4F8D4000020C4F8D0000020A4F882
:105610004C000020E065002020660020606600202D
:10562000A0660020A4F8AE000020A4F8B00000207E
:10563000C4F8B4000020C4F8B80002F000F9C4F8BF
:10564000BC000020C4F8C00000202063002060637C
:105650000020A063002084F83C00002084F83D0076
:10566000002084F83E00402084F83F00402084F869
:105670004000002060640020C4F8D8000020C4F876
:10568000DC0064A0C4F8E00031BD00B587B0674815
:105690000068FEF753FF69460020FFF74EFA07B097
:1056A00000BD02B40100684600200200082A08D2AA
:1056B0000868644B984201D0002003E0091D521C89
:1056C000F4E7012001B0704702B46A4600221100DD
:1056D000082904D25B4A40F82120491CF8E701B0B0
:1056E0007047F8B504000D000020060094F83F0054
:1056F000070094F83E0000280DD0401E20D0401E28
:10570000012820D9801E01281AD9801E01281AD903
:10571000F93877D077E02000FEF757F984F83F504A
:1057200094F83F0000F0ADF840480068844203D18F
:105730002000FEF7DDF802E02000FEF7FAF864E052
:1057400084F83F5061E084F83F5094F83C00012811
:105750000BD0022852D004280BD0052805D00628EB
:1057600003D007284AD0082849D12000FDF7AEFF12
:1057700047E02000FDF7AAFFA06B406A0600280062
:105780003900C0B2C9B2884212D2280096F83F1040
:10579000C0B2884202D3002006002EE0300001F0A3
:1057A0000BFEEDB22A0001002D2001F0D4FA24E016
:1057B00096F83F003900C9B288421ED1300002F08D
:1057C000B4FF050096F840002900C9B2884202D211
:1057D00096F84050FFE7280096F83F10C0B2884284
:1057E00002D10020060008E0300001F0E5FD0100D4
:1057F000EDB22A002E2001F0AEFA02E001E0FEF741
:10580000ABF902E005E0FEF7A7F93400002C7FF4C5
:105810006BAFF1BD20000000740001007037010083
:10582000C00201001025010080370100FC94002017
:10583000D89400205A950020D49400200C3A0100FE
:10584000303B01004523CDAB00210800022805D2E2
:105850000021244A42F82010401CF7E7704780B529
:1058600020480068002806D11E48406802F0BFFFAB
:105870002030C0B204E01B48006802F0B8FFC0B29C
:1058800002BDC0B2202809D2164909680122D0F110
:105890001F039A401143134A116009E011494968F6
:1058A0000122D0F11F03E03B9A4011430D4A5160A1
:1058B0007047C0B2202809D20A4909680122D0F1F4
:1058C0001F039A409143074A116009E0054949685E
:1058D0000122D0F11F03E03B9A409143014A5160FD
:1058E000704700000494002070B43A4D2D682900E0
:1058F000384D2D682B001033374D2D886D1E2C0030
:1059000000252A0015002600ADB2B6B2B5420AD273
:105910000B6000254D6000250D810025CD60103104
:105920001033521CEEE700250D6000254D60002568
:105930000D810025CD60274D2D68284E3560264D00
:105940002D88264EB5800025244EF5800025234E57
:10595000358100250570224D2D684560214D2D684B
:105960008560214DC5605D250561204D456170BC98
:10597000704710B401004B8918004B89002B1BD0D5
:105980000B681A00154B1B6813604B68134C23609F
:10599000124BDB884C891B1B104CE3800F4B9B8800
:1059A0004C89E3180D4CA38000234B8100238B818D
:1059B00000230B6000234B6080B210BC7047018154
:1059C0000022428100228281002202600022426085
:1059D00070470000649400204C950020EC93002058
:1059E00074000100C0020100A02401002037010062
:1059F0002DE9F14187B007A86B4600220021002065
:105A0000FFF7E4F99DF800000028F5D101F0A4FDAE
:105A1000804601200700DFF844050068401CDFF8DD
:105A20003C150860DFF834050168212001F06CF9AD
:105A3000380000F0A1F90500380000F0F0F9060088
:105A400070190400DFF818050068A04202D2DFF8E0
:105A500010050460404601F083FDCDE710B58AB023
:105A600004000020DFF8F41408600020DFF8F414CC
:105A700008600020DFF8F01408600020DFF8E4146C
:105A800088800020DFF8DC14C8800020DFF8D814FC
:105A900088800020DFF8D014C880DFF8D0040068C8
:105AA000002812D109202070DFF8C404406A606029
:105AB000DFF8C004406AA060DFF8BC04E060A52005
:105AC0002061DFF8B8046061FEE7DFF8B404006825
:105AD000DFF8B0140968884212D209202070DFF87C
